Component: ARM Compiler 5.06 update 7 (build 960) Tool: armlink [4d3601]

==============================================================================

Section Cross References

    startup_stm32f407xx.o(STACK) refers (Special) to heapauxi.o(.text) for __use_two_region_memory
    startup_stm32f407xx.o(HEAP) refers (Special) to heapauxi.o(.text) for __use_two_region_memory
    startup_stm32f407xx.o(RESET) refers (Special) to heapauxi.o(.text) for __use_two_region_memory
    startup_stm32f407xx.o(RESET) refers to startup_stm32f407xx.o(STACK) for __initial_sp
    startup_stm32f407xx.o(RESET) refers to startup_stm32f407xx.o(.text) for Reset_Handler
    startup_stm32f407xx.o(RESET) refers to stm32f4xx_it.o(i.NMI_Handler) for NMI_Handler
    startup_stm32f407xx.o(RESET) refers to stm32f4xx_it.o(i.HardFault_Handler) for HardFault_Handler
    startup_stm32f407xx.o(RESET) refers to stm32f4xx_it.o(i.MemManage_Handler) for MemManage_Handler
    startup_stm32f407xx.o(RESET) refers to stm32f4xx_it.o(i.BusFault_Handler) for BusFault_Handler
    startup_stm32f407xx.o(RESET) refers to stm32f4xx_it.o(i.UsageFault_Handler) for UsageFault_Handler
    startup_stm32f407xx.o(RESET) refers to port.o(.emb_text) for SVC_Handler
    startup_stm32f407xx.o(RESET) refers to stm32f4xx_it.o(i.DebugMon_Handler) for DebugMon_Handler
    startup_stm32f407xx.o(RESET) refers to cmsis_os2.o(i.SysTick_Handler) for SysTick_Handler
    startup_stm32f407xx.o(RESET) refers to stm32f4xx_it.o(i.USART1_IRQHandler) for USART1_IRQHandler
    startup_stm32f407xx.o(RESET) refers to stm32f4xx_it.o(i.TIM8_TRG_COM_TIM14_IRQHandler) for TIM8_TRG_COM_TIM14_IRQHandler
    startup_stm32f407xx.o(RESET) refers to stm32f4xx_it.o(i.DMA2_Stream2_IRQHandler) for DMA2_Stream2_IRQHandler
    startup_stm32f407xx.o(RESET) refers to stm32f4xx_it.o(i.DMA2_Stream7_IRQHandler) for DMA2_Stream7_IRQHandler
    startup_stm32f407xx.o(.text) refers (Special) to heapauxi.o(.text) for __use_two_region_memory
==============================================================================

Removing Unused input sections from the image.

    Removing encoder.o(.rev16_text), (4 bytes).
    Removing encoder.o(.revsh_text), (4 bytes).
    Removing encoder.o(.rrx_text), (6 bytes).
    Removing ps2.o(.rev16_text), (4 bytes).
    Removing ps2.o(.revsh_text), (4 bytes).
    Removing ps2.o(.rrx_text), (6 bytes).
    Removing ps2.o(i.PS2_RedLight), (68 bytes).
    Removing ps2.o(i.PS2_Vibration), (100 bytes).
    Removing ps2.o(i.PS2_VibrationMode), (72 bytes).
    Removing main.o(.rev16_text), (4 bytes).
    Removing main.o(.revsh_text), (4 bytes).
    Removing main.o(.rrx_text), (6 bytes).
    Removing gpio.o(.rev16_text), (4 bytes).
    Removing gpio.o(.revsh_text), (4 bytes).
    Removing gpio.o(.rrx_text), (6 bytes).
    Removing freertos.o(.rev16_text), (4 bytes).
    Removing freertos.o(.revsh_text), (4 bytes).
    Removing freertos.o(.rrx_text), (6 bytes).
==============================================================================

Image Symbol Table

    Local Symbols

    Symbol Name                              Value     Ov Type        Size  Object(Section)

    ../Core/Src/dma.c                        0x00000000   Number         0  dma.o ABSOLUTE
    ../Core/Src/freertos.c                   0x00000000   Number         0  freertos.o ABSOLUTE
    ../Core/Src/gpio.c                       0x00000000   Number         0  gpio.o ABSOLUTE
    ../Core/Src/main.c                       0x00000000   Number         0  main.o ABSOLUTE
    ../Core/Src/stm32f4xx_hal_msp.c          0x00000000   Number         0  stm32f4xx_hal_msp.o ABSOLUTE
    ../Core/Src/stm32f4xx_hal_timebase_tim.c 0x00000000   Number         0  stm32f4xx_hal_timebase_tim.o ABSOLUTE
    ../Core/Src/stm32f4xx_it.c               0x00000000   Number         0  stm32f4xx_it.o ABSOLUTE
    ../Core/Src/system_stm32f4xx.c           0x00000000   Number         0  system_stm32f4xx.o ABSOLUTE
    ../Core/Src/tim.c                        0x00000000   Number         0  tim.o ABSOLUTE
    ../Core/Src/usart.c                      0x00000000   Number         0  usart.o ABSOLUTE
    ../Drivers/STM32F4xx_HAL_Driver/Src/stm32f4xx_hal.c 0x00000000   Number         0  stm32f4xx_hal.o ABSOLUTE
    ../Drivers/STM32F4xx_HAL_Driver/Src/stm32f4xx_hal_cortex.c 0x00000000   Number         0  stm32f4xx_hal_cortex.o ABSOLUTE
    ../Drivers/STM32F4xx_HAL_Driver/Src/stm32f4xx_hal_dma.c 0x00000000   Number         0  stm32f4xx_hal_dma.o ABSOLUTE
    ../Drivers/STM32F4xx_HAL_Driver/Src/stm32f4xx_hal_dma_ex.c 0x00000000   Number         0  stm32f4xx_hal_dma_ex.o ABSOLUTE
    ../Drivers/STM32F4xx_HAL_Driver/Src/stm32f4xx_hal_exti.c 0x00000000   Number         0  stm32f4xx_hal_exti.o ABSOLUTE
    ../Drivers/STM32F4xx_HAL_Driver/Src/stm32f4xx_hal_flash.c 0x00000000   Number         0  stm32f4xx_hal_flash.o ABSOLUTE
    ../Drivers/STM32F4xx_HAL_Driver/Src/stm32f4xx_hal_flash_ex.c 0x00000000   Number         0  stm32f4xx_hal_flash_ex.o ABSOLUTE
    ../Drivers/STM32F4xx_HAL_Driver/Src/stm32f4xx_hal_flash_ramfunc.c 0x00000000   Number         0  stm32f4xx_hal_flash_ramfunc.o ABSOLUTE
    ../Drivers/STM32F4xx_HAL_Driver/Src/stm32f4xx_hal_gpio.c 0x00000000   Number         0  stm32f4xx_hal_gpio.o ABSOLUTE
    ../Drivers/STM32F4xx_HAL_Driver/Src/stm32f4xx_hal_pwr.c 0x00000000   Number         0  stm32f4xx_hal_pwr.o ABSOLUTE
    ../Drivers/STM32F4xx_HAL_Driver/Src/stm32f4xx_hal_pwr_ex.c 0x00000000   Number         0  stm32f4xx_hal_pwr_ex.o ABSOLUTE
    ../Drivers/STM32F4xx_HAL_Driver/Src/stm32f4xx_hal_rcc.c 0x00000000   Number         0  stm32f4xx_hal_rcc.o ABSOLUTE
    ../Drivers/STM32F4xx_HAL_Driver/Src/stm32f4xx_hal_rcc_ex.c 0x00000000   Number         0  stm32f4xx_hal_rcc_ex.o ABSOLUTE
    ../Drivers/STM32F4xx_HAL_Driver/Src/stm32f4xx_hal_tim.c 0x00000000   Number         0  stm32f4xx_hal_tim.o ABSOLUTE
    ../Drivers/STM32F4xx_HAL_Driver/Src/stm32f4xx_hal_tim_ex.c 0x00000000   Number         0  stm32f4xx_hal_tim_ex.o ABSOLUTE
    ../Drivers/STM32F4xx_HAL_Driver/Src/stm32f4xx_hal_uart.c 0x00000000   Number         0  stm32f4xx_hal_uart.o ABSOLUTE
    ../Middlewares/Third_Party/FreeRTOS/Source/CMSIS_RTOS_V2/cmsis_os2.c 0x00000000   Number         0  cmsis_os2.o ABSOLUTE
    ../Middlewares/Third_Party/FreeRTOS/Source/croutine.c 0x00000000   Number         0  croutine.o ABSOLUTE
    ../Middlewares/Third_Party/FreeRTOS/Source/event_groups.c 0x00000000   Number         0  event_groups.o ABSOLUTE
    ../Middlewares/Third_Party/FreeRTOS/Source/list.c 0x00000000   Number         0  list.o ABSOLUTE
    ../Middlewares/Third_Party/FreeRTOS/Source/portable/MemMang/heap_4.c 0x00000000   Number         0  heap_4.o ABSOLUTE
    ../Middlewares/Third_Party/FreeRTOS/Source/portable/RVDS/ARM_CM4F/port.c 0x00000000   Number         0  port.o ABSOLUTE
    ../Middlewares/Third_Party/FreeRTOS/Source/queue.c 0x00000000   Number         0  queue.o ABSOLUTE
    ../Middlewares/Third_Party/FreeRTOS/Source/stream_buffer.c 0x00000000   Number         0  stream_buffer.o ABSOLUTE
    ../Middlewares/Third_Party/FreeRTOS/Source/tasks.c 0x00000000   Number         0  tasks.o ABSOLUTE
    ../Middlewares/Third_Party/FreeRTOS/Source/timers.c 0x00000000   Number         0  timers.o ABSOLUTE
    ../clib/angel/boardlib.s                 0x00000000   Number         0  boardinit3.o ABSOLUTE
    ../clib/angel/boardlib.s                 0x00000000   Number         0  boardshut.o ABSOLUTE
    ../clib/angel/boardlib.s                 0x00000000   Number         0  boardinit2.o ABSOLUTE
    ../clib/angel/boardlib.s                 0x00000000   Number         0  boardinit1.o ABSOLUTE
    ../clib/angel/dczerorl2.s                0x00000000   Number         0  __dczerorl2.o ABSOLUTE
    ../clib/angel/handlers.s                 0x00000000   Number         0  __scatter_zi.o ABSOLUTE
    ../clib/angel/kernel.s                   0x00000000   Number         0  __rtentry.o ABSOLUTE
    ../clib/angel/kernel.s                   0x00000000   Number         0  __rtentry2.o ABSOLUTE
    ../clib/angel/kernel.s                   0x00000000   Number         0  __rtentry4.o ABSOLUTE
    ../clib/angel/kernel.s                   0x00000000   Number         0  rtexit.o ABSOLUTE
    ../clib/angel/kernel.s                   0x00000000   Number         0  rtexit2.o ABSOLUTE
    ../clib/angel/rt.s                       0x00000000   Number         0  aeabi_ldiv0_sigfpe.o ABSOLUTE
    ../clib/angel/rt.s                       0x00000000   Number         0  aeabi_ldiv0.o ABSOLUTE
    ../clib/angel/rt.s                       0x00000000   Number         0  rt_div0.o ABSOLUTE
    ../clib/angel/rt.s                       0x00000000   Number         0  rt_raise.o ABSOLUTE
    ../clib/angel/scatter.s                  0x00000000   Number         0  __scatter.o ABSOLUTE
    ../clib/angel/startup.s                  0x00000000   Number         0  __main.o ABSOLUTE
    ../clib/angel/sys.s                      0x00000000   Number         0  indicate_semi.o ABSOLUTE
    ../clib/angel/sys.s                      0x00000000   Number         0  sys_stackheap_outer.o ABSOLUTE
    ../clib/angel/sys.s                      0x00000000   Number         0  use_no_semi.o ABSOLUTE
    ../clib/angel/sys.s                      0x00000000   Number         0  libspace.o ABSOLUTE
    ../clib/angel/sysapp.c                   0x00000000   Number         0  sys_wrch.o ABSOLUTE
    ../clib/angel/sysapp.c                   0x00000000   Number         0  sys_command.o ABSOLUTE
    ../clib/angel/sysapp.c                   0x00000000   Number         0  sys_exit.o ABSOLUTE
    ../clib/armsys.c                         0x00000000   Number         0  argv_veneer.o ABSOLUTE
    ../clib/armsys.c                         0x00000000   Number         0  _get_argv_nomalloc.o ABSOLUTE
    ../clib/armsys.c                         0x00000000   Number         0  no_argv.o ABSOLUTE
    ../clib/armsys.c                         0x00000000   Number         0  argv_veneer.o ABSOLUTE
    ../clib/heapalloc.c                      0x00000000   Number         0  hrguard.o ABSOLUTE
    ../clib/heapaux.c                        0x00000000   Number         0  heapauxi.o ABSOLUTE
    ../clib/libinit.s                        0x00000000   Number         0  libinit.o ABSOLUTE
    ../clib/libinit.s                        0x00000000   Number         0  libshutdown.o ABSOLUTE
    ../clib/libinit.s                        0x00000000   Number         0  libinit2.o ABSOLUTE
    ../clib/libinit.s                        0x00000000   Number         0  libshutdown2.o ABSOLUTE
    ../clib/longlong.s                       0x00000000   Number         0  lludivv7m.o ABSOLUTE
    ../clib/memcpset.s                       0x00000000   Number         0  aeabi_memset.o ABSOLUTE
    ../clib/memcpset.s                       0x00000000   Number         0  rt_memcpy_w.o ABSOLUTE
    ../clib/memcpset.s                       0x00000000   Number         0  rt_memclr_w.o ABSOLUTE
    ../clib/memcpset.s                       0x00000000   Number         0  rt_memcpy_v6.o ABSOLUTE
    ../clib/memcpset.s                       0x00000000   Number         0  rt_memclr.o ABSOLUTE
    ../clib/memcpset.s                       0x00000000   Number         0  memset.o ABSOLUTE
    ../clib/signal.c                         0x00000000   Number         0  defsig_stak_inner.o ABSOLUTE
    ../clib/signal.c                         0x00000000   Number         0  defsig_fpe_formal.o ABSOLUTE
    ../clib/signal.c                         0x00000000   Number         0  defsig_pvfn_inner.o ABSOLUTE
    ../clib/signal.c                         0x00000000   Number         0  defsig_cppl_inner.o ABSOLUTE
    ../clib/signal.c                         0x00000000   Number         0  defsig_segv_inner.o ABSOLUTE
    ../clib/signal.c                         0x00000000   Number         0  defsig_other.o ABSOLUTE
    ../clib/signal.c                         0x00000000   Number         0  defsig_rtmem_inner.o ABSOLUTE
    ../clib/signal.c                         0x00000000   Number         0  __raise.o ABSOLUTE
    ../clib/signal.c                         0x00000000   Number         0  defsig_general.o ABSOLUTE
    ../clib/signal.c                         0x00000000   Number         0  defsig_fpe_outer.o ABSOLUTE
    ../clib/signal.c                         0x00000000   Number         0  defsig_rtmem_outer.o ABSOLUTE
    ../clib/signal.c                         0x00000000   Number         0  defsig_fpe_inner.o ABSOLUTE
    ../clib/signal.c                         0x00000000   Number         0  defsig_exit.o ABSOLUTE
    ../clib/signal.c                         0x00000000   Number         0  defsig_rtmem_formal.o ABSOLUTE
    ../clib/signal.c                         0x00000000   Number         0  defsig_abrt_inner.o ABSOLUTE
    ../clib/signal.c                         0x00000000   Number         0  defsig_rtred_inner.o ABSOLUTE
    ../clib/signal.s                         0x00000000   Number         0  defsig.o ABSOLUTE
    ../clib/stdlib.c                         0x00000000   Number         0  exit.o ABSOLUTE
    ../fplib/daddsub.s                       0x00000000   Number         0  daddsub_clz.o ABSOLUTE
    ../fplib/dfix.s                          0x00000000   Number         0  dfix.o ABSOLUTE
    ../fplib/dflt.s                          0x00000000   Number         0  dflt_clz.o ABSOLUTE
    ../fplib/dmul.s                          0x00000000   Number         0  dmul.o ABSOLUTE
    ../fplib/dnaninf.s                       0x00000000   Number         0  dnaninf.o ABSOLUTE
    ../fplib/dretinf.s                       0x00000000   Number         0  dretinf.o ABSOLUTE
    ../fplib/fpinit.s                        0x00000000   Number         0  fpinit.o ABSOLUTE
    ../fplib/usenofp.s                       0x00000000   Number         0  usenofp.o ABSOLUTE
    ..\Core\Src\Encoder.c                    0x00000000   Number         0  encoder.o ABSOLUTE
    ..\Core\Src\dma.c                        0x00000000   Number         0  dma.o ABSOLUTE
    ..\Core\Src\freertos.c                   0x00000000   Number         0  freertos.o ABSOLUTE
    ..\Core\Src\gpio.c                       0x00000000   Number         0  gpio.o ABSOLUTE
    ..\Core\Src\main.c                       0x00000000   Number         0  main.o ABSOLUTE
    ..\Core\Src\stm32f4xx_hal_msp.c          0x00000000   Number         0  stm32f4xx_hal_msp.o ABSOLUTE
    ..\Core\Src\stm32f4xx_hal_timebase_tim.c 0x00000000   Number         0  stm32f4xx_hal_timebase_tim.o ABSOLUTE
    ..\Core\Src\stm32f4xx_it.c               0x00000000   Number         0  stm32f4xx_it.o ABSOLUTE
    ..\Core\Src\system_stm32f4xx.c           0x00000000   Number         0  system_stm32f4xx.o ABSOLUTE
    ..\Core\Src\tim.c                        0x00000000   Number         0  tim.o ABSOLUTE
    ..\Core\Src\usart.c                      0x00000000   Number         0  usart.o ABSOLUTE
    ..\Drivers\STM32F4xx_HAL_Driver\Src\stm32f4xx_hal.c 0x00000000   Number         0  stm32f4xx_hal.o ABSOLUTE
    ..\Drivers\STM32F4xx_HAL_Driver\Src\stm32f4xx_hal_cortex.c 0x00000000   Number         0  stm32f4xx_hal_cortex.o ABSOLUTE
    ..\Drivers\STM32F4xx_HAL_Driver\Src\stm32f4xx_hal_dma.c 0x00000000   Number         0  stm32f4xx_hal_dma.o ABSOLUTE
    ..\Drivers\STM32F4xx_HAL_Driver\Src\stm32f4xx_hal_dma_ex.c 0x00000000   Number         0  stm32f4xx_hal_dma_ex.o ABSOLUTE
    ..\Drivers\STM32F4xx_HAL_Driver\Src\stm32f4xx_hal_exti.c 0x00000000   Number         0  stm32f4xx_hal_exti.o ABSOLUTE
    ..\Drivers\STM32F4xx_HAL_Driver\Src\stm32f4xx_hal_flash.c 0x00000000   Number         0  stm32f4xx_hal_flash.o ABSOLUTE
    ..\Drivers\STM32F4xx_HAL_Driver\Src\stm32f4xx_hal_flash_ex.c 0x00000000   Number         0  stm32f4xx_hal_flash_ex.o ABSOLUTE
    ..\Drivers\STM32F4xx_HAL_Driver\Src\stm32f4xx_hal_flash_ramfunc.c 0x00000000   Number         0  stm32f4xx_hal_flash_ramfunc.o ABSOLUTE
    ..\Drivers\STM32F4xx_HAL_Driver\Src\stm32f4xx_hal_gpio.c 0x00000000   Number         0  stm32f4xx_hal_gpio.o ABSOLUTE
    ..\Drivers\STM32F4xx_HAL_Driver\Src\stm32f4xx_hal_pwr.c 0x00000000   Number         0  stm32f4xx_hal_pwr.o ABSOLUTE
    ..\Drivers\STM32F4xx_HAL_Driver\Src\stm32f4xx_hal_pwr_ex.c 0x00000000   Number         0  stm32f4xx_hal_pwr_ex.o ABSOLUTE
    ..\Drivers\STM32F4xx_HAL_Driver\Src\stm32f4xx_hal_rcc.c 0x00000000   Number         0  stm32f4xx_hal_rcc.o ABSOLUTE
    ..\Drivers\STM32F4xx_HAL_Driver\Src\stm32f4xx_hal_rcc_ex.c 0x00000000   Number         0  stm32f4xx_hal_rcc_ex.o ABSOLUTE
    ..\Drivers\STM32F4xx_HAL_Driver\Src\stm32f4xx_hal_tim.c 0x00000000   Number         0  stm32f4xx_hal_tim.o ABSOLUTE
    ..\Drivers\STM32F4xx_HAL_Driver\Src\stm32f4xx_hal_tim_ex.c 0x00000000   Number         0  stm32f4xx_hal_tim_ex.o ABSOLUTE
    ..\Drivers\STM32F4xx_HAL_Driver\Src\stm32f4xx_hal_uart.c 0x00000000   Number         0  stm32f4xx_hal_uart.o ABSOLUTE
    ..\Middlewares\Third_Party\FreeRTOS\Source\CMSIS_RTOS_V2\cmsis_os2.c 0x00000000   Number         0  cmsis_os2.o ABSOLUTE
    ..\Middlewares\Third_Party\FreeRTOS\Source\portable\RVDS\ARM_CM4F\port.c 0x00000000   Number         0  port.o ABSOLUTE
    ..\\Core\\Src\\Encoder.c                 0x00000000   Number         0  encoder.o ABSOLUTE
    PS2.c                                    0x00000000   Number         0  ps2.o ABSOLUTE
    PS2.c                                    0x00000000   Number         0  ps2.o ABSOLUTE
    dc.s                                     0x00000000   Number         0  dc.o ABSOLUTE
    startup_stm32f407xx.s                    0x00000000   Number         0  startup_stm32f407xx.o ABSOLUTE
    RESET                                    0x08000000   Section      392  startup_stm32f407xx.o(RESET)
    !!!main                                  0x08000188   Section        8  __main.o(!!!main)
    !!!scatter                               0x08000190   Section       52  __scatter.o(!!!scatter)
    !!dczerorl2                              0x080001c4   Section       90  __dczerorl2.o(!!dczerorl2)
    !!handler_zi                             0x08000220   Section       28  __scatter_zi.o(!!handler_zi)
    .ARM.Collect$$libinit$$00000000          0x0800023c   Section        2  libinit.o(.ARM.Collect$$libinit$$00000000)
    .ARM.Collect$$libinit$$00000001          0x0800023e   Section        4  libinit2.o(.ARM.Collect$$libinit$$00000001)
    .ARM.Collect$$libinit$$00000004          0x08000242   Section        0  libinit2.o(.ARM.Collect$$libinit$$00000004)
    .ARM.Collect$$libinit$$0000000A          0x08000242   Section        0  libinit2.o(.ARM.Collect$$libinit$$0000000A)
    .ARM.Collect$$libinit$$0000000C          0x08000242   Section        0  libinit2.o(.ARM.Collect$$libinit$$0000000C)
    .ARM.Collect$$libinit$$0000000E          0x08000242   Section        0  libinit2.o(.ARM.Collect$$libinit$$0000000E)
    .ARM.Collect$$libinit$$00000011          0x08000242   Section        0  libinit2.o(.ARM.Collect$$libinit$$00000011)
    .ARM.Collect$$libinit$$00000013          0x08000242   Section        0  libinit2.o(.ARM.Collect$$libinit$$00000013)
    .ARM.Collect$$libinit$$00000015          0x08000242   Section        0  libinit2.o(.ARM.Collect$$libinit$$00000015)
    .ARM.Collect$$libinit$$00000017          0x08000242   Section        0  libinit2.o(.ARM.Collect$$libinit$$00000017)
    .ARM.Collect$$libinit$$00000019          0x08000242   Section        0  libinit2.o(.ARM.Collect$$libinit$$00000019)
    .ARM.Collect$$libinit$$0000001B          0x08000242   Section        0  libinit2.o(.ARM.Collect$$libinit$$0000001B)
    .ARM.Collect$$libinit$$0000001D          0x08000242   Section        0  libinit2.o(.ARM.Collect$$libinit$$0000001D)
    .ARM.Collect$$libinit$$0000001F          0x08000242   Section        0  libinit2.o(.ARM.Collect$$libinit$$0000001F)
    .ARM.Collect$$libinit$$00000021          0x08000242   Section        0  libinit2.o(.ARM.Collect$$libinit$$00000021)
    .ARM.Collect$$libinit$$00000023          0x08000242   Section        0  libinit2.o(.ARM.Collect$$libinit$$00000023)
    .ARM.Collect$$libinit$$00000025          0x08000242   Section        0  libinit2.o(.ARM.Collect$$libinit$$00000025)
    .ARM.Collect$$libinit$$0000002C          0x08000242   Section        0  libinit2.o(.ARM.Collect$$libinit$$0000002C)
    .ARM.Collect$$libinit$$0000002E          0x08000242   Section        0  libinit2.o(.ARM.Collect$$libinit$$0000002E)
    .ARM.Collect$$libinit$$00000030          0x08000242   Section        0  libinit2.o(.ARM.Collect$$libinit$$00000030)
    .ARM.Collect$$libinit$$00000032          0x08000242   Section        0  libinit2.o(.ARM.Collect$$libinit$$00000032)
    .ARM.Collect$$libinit$$00000033          0x08000242   Section        2  libinit2.o(.ARM.Collect$$libinit$$00000033)
    .ARM.Collect$$libshutdown$$00000000      0x08000244   Section        2  libshutdown.o(.ARM.Collect$$libshutdown$$00000000)
    .ARM.Collect$$libshutdown$$00000002      0x08000246   Section        0  libshutdown2.o(.ARM.Collect$$libshutdown$$00000002)
    .ARM.Collect$$libshutdown$$00000004      0x08000246   Section        0  libshutdown2.o(.ARM.Collect$$libshutdown$$00000004)
    .ARM.Collect$$libshutdown$$00000006      0x08000246   Section        0  libshutdown2.o(.ARM.Collect$$libshutdown$$00000006)
    .ARM.Collect$$libshutdown$$00000009      0x08000246   Section        0  libshutdown2.o(.ARM.Collect$$libshutdown$$00000009)
    .ARM.Collect$$libshutdown$$0000000C      0x08000246   Section        0  libshutdown2.o(.ARM.Collect$$libshutdown$$0000000C)
    .ARM.Collect$$libshutdown$$0000000E      0x08000246   Section        0  libshutdown2.o(.ARM.Collect$$libshutdown$$0000000E)
    .ARM.Collect$$libshutdown$$00000011      0x08000246   Section        0  libshutdown2.o(.ARM.Collect$$libshutdown$$00000011)
    .ARM.Collect$$libshutdown$$00000012      0x08000246   Section        2  libshutdown2.o(.ARM.Collect$$libshutdown$$00000012)
    .ARM.Collect$$rtentry$$00000000          0x08000248   Section        0  __rtentry.o(.ARM.Collect$$rtentry$$00000000)
    .ARM.Collect$$rtentry$$00000002          0x08000248   Section        0  __rtentry2.o(.ARM.Collect$$rtentry$$00000002)
    .ARM.Collect$$rtentry$$00000004          0x08000248   Section        6  __rtentry4.o(.ARM.Collect$$rtentry$$00000004)
    .ARM.Collect$$rtentry$$00000009          0x0800024e   Section        0  __rtentry2.o(.ARM.Collect$$rtentry$$00000009)
    .ARM.Collect$$rtentry$$0000000A          0x0800024e   Section        4  __rtentry2.o(.ARM.Collect$$rtentry$$0000000A)
    .ARM.Collect$$rtentry$$0000000C          0x08000252   Section        0  __rtentry2.o(.ARM.Collect$$rtentry$$0000000C)
    .ARM.Collect$$rtentry$$0000000D          0x08000252   Section        8  __rtentry2.o(.ARM.Collect$$rtentry$$0000000D)
    .ARM.Collect$$rtexit$$00000000           0x0800025a   Section        2  rtexit.o(.ARM.Collect$$rtexit$$00000000)
    .ARM.Collect$$rtexit$$00000002           0x0800025c   Section        0  rtexit2.o(.ARM.Collect$$rtexit$$00000002)
    .ARM.Collect$$rtexit$$00000003           0x0800025c   Section        4  rtexit2.o(.ARM.Collect$$rtexit$$00000003)
    .ARM.Collect$$rtexit$$00000004           0x08000260   Section        6  rtexit2.o(.ARM.Collect$$rtexit$$00000004)
    .emb_text                                0x08000268   Section      190  port.o(.emb_text)
    $v0                                      0x08000268   Number         0  port.o(.emb_text)
    .text                                    0x08000328   Section       64  startup_stm32f407xx.o(.text)
    $v0                                      0x08000328   Number         0  startup_stm32f407xx.o(.text)
    .text                                    0x08000368   Section      238  lludivv7m.o(.text)
    .text                                    0x08000456   Section      138  rt_memcpy_v6.o(.text)
    .text                                    0x080004e0   Section       16  aeabi_memset.o(.text)
    .text                                    0x080004f0   Section       78  rt_memclr_w.o(.text)
    .text                                    0x0800053e   Section        0  heapauxi.o(.text)
    .text                                    0x08000544   Section      100  rt_memcpy_w.o(.text)
    .text                                    0x080005a8   Section       68  rt_memclr.o(.text)
    .text                                    0x080005ec   Section       74  sys_stackheap_outer.o(.text)
    .text                                    0x08000636   Section        0  exit.o(.text)
    .text                                    0x08000648   Section        8  libspace.o(.text)
    .text                                    0x08000650   Section        0  sys_exit.o(.text)
    .text                                    0x0800065c   Section        2  use_no_semi.o(.text)
    .text                                    0x0800065e   Section        0  indicate_semi.o(.text)
    i.Angle_PID_P                            0x08000660   Section        0  stm32f4xx_it.o(i.Angle_PID_P)
    i.Angle_PID_V                            0x08000710   Section        0  stm32f4xx_it.o(i.Angle_PID_V)
    i.AutoCtrl                               0x080007c0   Section        0  encoder.o(i.AutoCtrl)
    i.BusFault_Handler                       0x08000e24   Section        0  stm32f4xx_it.o(i.BusFault_Handler)
    i.CNT_init                               0x08000e28   Section        0  encoder.o(i.CNT_init)
    i.DMA2_Stream2_IRQHandler                0x08000e58   Section        0  stm32f4xx_it.o(i.DMA2_Stream2_IRQHandler)
    i.DMA2_Stream7_IRQHandler                0x08000e68   Section        0  stm32f4xx_it.o(i.DMA2_Stream7_IRQHandler)
    i.DMA_CalcBaseAndBitshift                0x08000e78   Section        0  stm32f4xx_hal_dma.o(i.DMA_CalcBaseAndBitshift)
    DMA_CalcBaseAndBitshift                  0x08000e79   Thumb Code    46  stm32f4xx_hal_dma.o(i.DMA_CalcBaseAndBitshift)
    i.DMA_CheckFifoParam                     0x08000eac   Section        0  stm32f4xx_hal_dma.o(i.DMA_CheckFifoParam)
    DMA_CheckFifoParam                       0x08000ead   Thumb Code   170  stm32f4xx_hal_dma.o(i.DMA_CheckFifoParam)
    i.DMA_SetConfig                          0x08000f56   Section        0  stm32f4xx_hal_dma.o(i.DMA_SetConfig)
    DMA_SetConfig                            0x08000f57   Thumb Code    44  stm32f4xx_hal_dma.o(i.DMA_SetConfig)
    i.DebugMon_Handler                       0x08000f82   Section        0  stm32f4xx_it.o(i.DebugMon_Handler)
    i.Error_Handler                          0x08000f84   Section        0  main.o(i.Error_Handler)
    i.HAL_DMA_Abort                          0x08000f8a   Section        0  stm32f4xx_hal_dma.o(i.HAL_DMA_Abort)
    i.HAL_DMA_Abort_IT                       0x08001036   Section        0  stm32f4xx_hal_dma.o(i.HAL_DMA_Abort_IT)
    i.HAL_DMA_IRQHandler                     0x08001060   Section        0  stm32f4xx_hal_dma.o(i.HAL_DMA_IRQHandler)
    i.HAL_DMA_Init                           0x080012a0   Section        0  stm32f4xx_hal_dma.o(i.HAL_DMA_Init)
    i.HAL_DMA_Start_IT                       0x0800138c   Section        0  stm32f4xx_hal_dma.o(i.HAL_DMA_Start_IT)
    i.HAL_Delay                              0x08001420   Section        0  stm32f4xx_hal.o(i.HAL_Delay)
    i.HAL_GPIO_Init                          0x08001448   Section        0  stm32f4xx_hal_gpio.o(i.HAL_GPIO_Init)
    i.HAL_GPIO_ReadPin                       0x08001638   Section        0  stm32f4xx_hal_gpio.o(i.HAL_GPIO_ReadPin)
    i.HAL_GPIO_WritePin                      0x08001648   Section        0  stm32f4xx_hal_gpio.o(i.HAL_GPIO_WritePin)
    i.HAL_GetTick                            0x08001654   Section        0  stm32f4xx_hal.o(i.HAL_GetTick)
    i.HAL_IncTick                            0x08001660   Section        0  stm32f4xx_hal.o(i.HAL_IncTick)
    i.HAL_Init                               0x08001678   Section        0  stm32f4xx_hal.o(i.HAL_Init)
    i.HAL_InitTick                           0x080016b4   Section        0  stm32f4xx_hal_timebase_tim.o(i.HAL_InitTick)
    i.HAL_MspInit                            0x08001740   Section        0  stm32f4xx_hal_msp.o(i.HAL_MspInit)
    i.HAL_NVIC_EnableIRQ                     0x08001794   Section        0  stm32f4xx_hal_cortex.o(i.HAL_NVIC_EnableIRQ)
    i.HAL_NVIC_SetPriority                   0x080017b4   Section        0  stm32f4xx_hal_cortex.o(i.HAL_NVIC_SetPriority)
    i.HAL_NVIC_SetPriorityGrouping           0x08001830   Section        0  stm32f4xx_hal_cortex.o(i.HAL_NVIC_SetPriorityGrouping)
    i.HAL_RCC_ClockConfig                    0x08001858   Section        0  stm32f4xx_hal_rcc.o(i.HAL_RCC_ClockConfig)
    i.HAL_RCC_GetClockConfig                 0x080019dc   Section        0  stm32f4xx_hal_rcc.o(i.HAL_RCC_GetClockConfig)
    i.HAL_RCC_GetHCLKFreq                    0x08001a20   Section        0  stm32f4xx_hal_rcc.o(i.HAL_RCC_GetHCLKFreq)
    i.HAL_RCC_GetPCLK1Freq                   0x08001a2c   Section        0  stm32f4xx_hal_rcc.o(i.HAL_RCC_GetPCLK1Freq)
    i.HAL_RCC_GetPCLK2Freq                   0x08001a4c   Section        0  stm32f4xx_hal_rcc.o(i.HAL_RCC_GetPCLK2Freq)
    i.HAL_RCC_GetSysClockFreq                0x08001a6c   Section        0  stm32f4xx_hal_rcc.o(i.HAL_RCC_GetSysClockFreq)
    i.HAL_RCC_OscConfig                      0x08001b1c   Section        0  stm32f4xx_hal_rcc.o(i.HAL_RCC_OscConfig)
    i.HAL_TIMEx_BreakCallback                0x08001fb8   Section        0  stm32f4xx_hal_tim_ex.o(i.HAL_TIMEx_BreakCallback)
    i.HAL_TIMEx_CommutCallback               0x08001fba   Section        0  stm32f4xx_hal_tim_ex.o(i.HAL_TIMEx_CommutCallback)
    i.HAL_TIMEx_ConfigBreakDeadTime          0x08001fbc   Section        0  stm32f4xx_hal_tim_ex.o(i.HAL_TIMEx_ConfigBreakDeadTime)
    i.HAL_TIMEx_MasterConfigSynchronization  0x08002030   Section        0  stm32f4xx_hal_tim_ex.o(i.HAL_TIMEx_MasterConfigSynchronization)
    i.HAL_TIM_Base_Init                      0x080020e4   Section        0  stm32f4xx_hal_tim.o(i.HAL_TIM_Base_Init)
    i.HAL_TIM_Base_MspInit                   0x0800214c   Section        0  tim.o(i.HAL_TIM_Base_MspInit)
    i.HAL_TIM_Base_Start_IT                  0x080021dc   Section        0  stm32f4xx_hal_tim.o(i.HAL_TIM_Base_Start_IT)
    i.HAL_TIM_ConfigClockSource              0x08002284   Section        0  stm32f4xx_hal_tim.o(i.HAL_TIM_ConfigClockSource)
    i.HAL_TIM_Encoder_Init                   0x08002390   Section        0  stm32f4xx_hal_tim.o(i.HAL_TIM_Encoder_Init)
    i.HAL_TIM_Encoder_MspInit                0x08002458   Section        0  tim.o(i.HAL_TIM_Encoder_MspInit)
    i.HAL_TIM_IC_CaptureCallback             0x08002678   Section        0  stm32f4xx_hal_tim.o(i.HAL_TIM_IC_CaptureCallback)
    i.HAL_TIM_IRQHandler                     0x0800267a   Section        0  stm32f4xx_hal_tim.o(i.HAL_TIM_IRQHandler)
    i.HAL_TIM_MspPostInit                    0x08002810   Section        0  tim.o(i.HAL_TIM_MspPostInit)
    i.HAL_TIM_OC_DelayElapsedCallback        0x08002908   Section        0  stm32f4xx_hal_tim.o(i.HAL_TIM_OC_DelayElapsedCallback)
    i.HAL_TIM_PWM_ConfigChannel              0x0800290a   Section        0  stm32f4xx_hal_tim.o(i.HAL_TIM_PWM_ConfigChannel)
    i.HAL_TIM_PWM_Init                       0x08002a0e   Section        0  stm32f4xx_hal_tim.o(i.HAL_TIM_PWM_Init)
    i.HAL_TIM_PWM_MspInit                    0x08002a74   Section        0  tim.o(i.HAL_TIM_PWM_MspInit)
    i.HAL_TIM_PWM_PulseFinishedCallback      0x08002aa8   Section        0  stm32f4xx_hal_tim.o(i.HAL_TIM_PWM_PulseFinishedCallback)
    i.HAL_TIM_PWM_Start                      0x08002aac   Section        0  stm32f4xx_hal_tim.o(i.HAL_TIM_PWM_Start)
    i.HAL_TIM_PeriodElapsedCallback          0x08002bb8   Section        0  main.o(i.HAL_TIM_PeriodElapsedCallback)
    i.HAL_TIM_TriggerCallback                0x08002bd0   Section        0  stm32f4xx_hal_tim.o(i.HAL_TIM_TriggerCallback)
    i.HAL_UARTEx_RxEventCallback             0x08002bd2   Section        0  stm32f4xx_hal_uart.o(i.HAL_UARTEx_RxEventCallback)
    i.HAL_UART_DMAStop                       0x08002bd4   Section        0  stm32f4xx_hal_uart.o(i.HAL_UART_DMAStop)
    i.HAL_UART_ErrorCallback                 0x08002c5e   Section        0  stm32f4xx_hal_uart.o(i.HAL_UART_ErrorCallback)
    i.HAL_UART_IRQHandler                    0x08002c60   Section        0  stm32f4xx_hal_uart.o(i.HAL_UART_IRQHandler)
    i.HAL_UART_Init                          0x08002f40   Section        0  stm32f4xx_hal_uart.o(i.HAL_UART_Init)
    i.HAL_UART_MspInit                       0x08002fb4   Section        0  usart.o(i.HAL_UART_MspInit)
    i.HAL_UART_Receive_DMA                   0x080030d0   Section        0  stm32f4xx_hal_uart.o(i.HAL_UART_Receive_DMA)
    i.HAL_UART_RxCpltCallback                0x08003112   Section        0  stm32f4xx_hal_uart.o(i.HAL_UART_RxCpltCallback)
    i.HAL_UART_RxHalfCpltCallback            0x08003114   Section        0  stm32f4xx_hal_uart.o(i.HAL_UART_RxHalfCpltCallback)
    i.HAL_UART_Transmit                      0x08003116   Section        0  stm32f4xx_hal_uart.o(i.HAL_UART_Transmit)
    i.HAL_UART_TxCpltCallback                0x080031e8   Section        0  stm32f4xx_hal_uart.o(i.HAL_UART_TxCpltCallback)
    i.HardFault_Handler                      0x080031ea   Section        0  stm32f4xx_it.o(i.HardFault_Handler)
    i.Incremental_PID_calc_A                 0x080031f0   Section        0  encoder.o(i.Incremental_PID_calc_A)
    i.Incremental_PID_calc_B                 0x080032f8   Section        0  encoder.o(i.Incremental_PID_calc_B)
    i.Incremental_PID_calc_C                 0x08003400   Section        0  encoder.o(i.Incremental_PID_calc_C)
    i.Incremental_PID_calc_D                 0x08003508   Section        0  encoder.o(i.Incremental_PID_calc_D)
    i.MX_DMA_Init                            0x08003610   Section        0  dma.o(i.MX_DMA_Init)
    i.MX_FREERTOS_Init                       0x08003658   Section        0  freertos.o(i.MX_FREERTOS_Init)
    i.MX_GPIO_Init                           0x080036c4   Section        0  gpio.o(i.MX_GPIO_Init)
    i.MX_TIM12_Init                          0x0800384c   Section        0  tim.o(i.MX_TIM12_Init)
    i.MX_TIM1_Init                           0x080038e8   Section        0  tim.o(i.MX_TIM1_Init)
    i.MX_TIM2_Init                           0x080039c8   Section        0  tim.o(i.MX_TIM2_Init)
    i.MX_TIM3_Init                           0x08003a40   Section        0  tim.o(i.MX_TIM3_Init)
    i.MX_TIM4_Init                           0x08003abc   Section        0  tim.o(i.MX_TIM4_Init)
    i.MX_TIM6_Init                           0x08003b38   Section        0  tim.o(i.MX_TIM6_Init)
    i.MX_TIM8_Init                           0x08003b84   Section        0  tim.o(i.MX_TIM8_Init)
    i.MX_TIM9_Init                           0x08003c00   Section        0  tim.o(i.MX_TIM9_Init)
    i.MX_USART1_UART_Init                    0x08003c9c   Section        0  usart.o(i.MX_USART1_UART_Init)
    i.MemManage_Handler                      0x08003cd4   Section        0  stm32f4xx_it.o(i.MemManage_Handler)
    i.NMI_Handler                            0x08003cd8   Section        0  stm32f4xx_it.o(i.NMI_Handler)
    i.PS2_AnologData                         0x08003cdc   Section        0  ps2.o(i.PS2_AnologData)
    i.PS2_ClearData                          0x08003ce8   Section        0  ps2.o(i.PS2_ClearData)
    i.PS2_Cmd                                0x08003d00   Section        0  ps2.o(i.PS2_Cmd)
    i.PS2_DataKey                            0x08003d9c   Section        0  ps2.o(i.PS2_DataKey)
    i.PS2_EnterConfing                       0x08003df0   Section        0  ps2.o(i.PS2_EnterConfing)
    i.PS2_ExitConfing                        0x08003e50   Section        0  ps2.o(i.PS2_ExitConfing)
    i.PS2_ReadData                           0x08003eb0   Section        0  ps2.o(i.PS2_ReadData)
    i.PS2_SetInit                            0x08003f70   Section        0  ps2.o(i.PS2_SetInit)
    i.PS2_ShortPoll                          0x08003f8c   Section        0  ps2.o(i.PS2_ShortPoll)
    i.PS2_TurnOnAnalogMode                   0x08003fd4   Section        0  ps2.o(i.PS2_TurnOnAnalogMode)
    i.PWM_SET                                0x0800402c   Section        0  encoder.o(i.PWM_SET)
    i.StartDefaultTask                       0x08004064   Section        0  freertos.o(i.StartDefaultTask)
    i.StartTask02                            0x080040ec   Section        0  freertos.o(i.StartTask02)
    i.StartTask03                            0x0800412c   Section        0  freertos.o(i.StartTask03)
    i.StartTask04                            0x08004158   Section        0  freertos.o(i.StartTask04)
    i.SysTick_Handler                        0x080042b0   Section        0  cmsis_os2.o(i.SysTick_Handler)
    i.SystemClock_Config                     0x080042c8   Section        0  main.o(i.SystemClock_Config)
    i.SystemInit                             0x08004380   Section        0  system_stm32f4xx.o(i.SystemInit)
    i.TIM8_TRG_COM_TIM14_IRQHandler          0x08004394   Section        0  stm32f4xx_it.o(i.TIM8_TRG_COM_TIM14_IRQHandler)
    i.TIM_Base_SetConfig                     0x080043ac   Section        0  stm32f4xx_hal_tim.o(i.TIM_Base_SetConfig)
    i.TIM_CCxChannelCmd                      0x08004484   Section        0  stm32f4xx_hal_tim.o(i.TIM_CCxChannelCmd)
    i.TIM_ETR_SetConfig                      0x080044a6   Section        0  stm32f4xx_hal_tim.o(i.TIM_ETR_SetConfig)
    i.TIM_ITRx_SetConfig                     0x080044bc   Section        0  stm32f4xx_hal_tim.o(i.TIM_ITRx_SetConfig)
    TIM_ITRx_SetConfig                       0x080044bd   Thumb Code    18  stm32f4xx_hal_tim.o(i.TIM_ITRx_SetConfig)
    i.TIM_OC1_SetConfig                      0x080044d0   Section        0  stm32f4xx_hal_tim.o(i.TIM_OC1_SetConfig)
    TIM_OC1_SetConfig                        0x080044d1   Thumb Code   104  stm32f4xx_hal_tim.o(i.TIM_OC1_SetConfig)
    i.TIM_OC2_SetConfig                      0x08004540   Section        0  stm32f4xx_hal_tim.o(i.TIM_OC2_SetConfig)
    i.TIM_OC3_SetConfig                      0x080045bc   Section        0  stm32f4xx_hal_tim.o(i.TIM_OC3_SetConfig)
    TIM_OC3_SetConfig                        0x080045bd   Thumb Code   112  stm32f4xx_hal_tim.o(i.TIM_OC3_SetConfig)
    i.TIM_OC4_SetConfig                      0x08004634   Section        0  stm32f4xx_hal_tim.o(i.TIM_OC4_SetConfig)
    TIM_OC4_SetConfig                        0x08004635   Thumb Code    74  stm32f4xx_hal_tim.o(i.TIM_OC4_SetConfig)
    i.TIM_TI1_ConfigInputStage               0x08004688   Section        0  stm32f4xx_hal_tim.o(i.TIM_TI1_ConfigInputStage)
    TIM_TI1_ConfigInputStage                 0x08004689   Thumb Code    38  stm32f4xx_hal_tim.o(i.TIM_TI1_ConfigInputStage)
    i.TIM_TI2_ConfigInputStage               0x080046ae   Section        0  stm32f4xx_hal_tim.o(i.TIM_TI2_ConfigInputStage)
    TIM_TI2_ConfigInputStage                 0x080046af   Thumb Code    40  stm32f4xx_hal_tim.o(i.TIM_TI2_ConfigInputStage)
    i.UART1_Rx_IDLE_Callback                 0x080046d8   Section        0  stm32f4xx_it.o(i.UART1_Rx_IDLE_Callback)
    i.UART_DMAAbortOnError                   0x0800476c   Section        0  stm32f4xx_hal_uart.o(i.UART_DMAAbortOnError)
    UART_DMAAbortOnError                     0x0800476d   Thumb Code    20  stm32f4xx_hal_uart.o(i.UART_DMAAbortOnError)
    i.UART_DMAError                          0x08004780   Section        0  stm32f4xx_hal_uart.o(i.UART_DMAError)
    UART_DMAError                            0x08004781   Thumb Code    80  stm32f4xx_hal_uart.o(i.UART_DMAError)
    i.UART_DMAReceiveCplt                    0x080047d0   Section        0  stm32f4xx_hal_uart.o(i.UART_DMAReceiveCplt)
    UART_DMAReceiveCplt                      0x080047d1   Thumb Code   176  stm32f4xx_hal_uart.o(i.UART_DMAReceiveCplt)
    i.UART_DMARxHalfCplt                     0x08004880   Section        0  stm32f4xx_hal_uart.o(i.UART_DMARxHalfCplt)
    UART_DMARxHalfCplt                       0x08004881   Thumb Code    32  stm32f4xx_hal_uart.o(i.UART_DMARxHalfCplt)
    i.UART_EndRxTransfer                     0x080048a0   Section        0  stm32f4xx_hal_uart.o(i.UART_EndRxTransfer)
    UART_EndRxTransfer                       0x080048a1   Thumb Code   108  stm32f4xx_hal_uart.o(i.UART_EndRxTransfer)
    i.UART_EndTransmit_IT                    0x0800490c   Section        0  stm32f4xx_hal_uart.o(i.UART_EndTransmit_IT)
    UART_EndTransmit_IT                      0x0800490d   Thumb Code    32  stm32f4xx_hal_uart.o(i.UART_EndTransmit_IT)
    i.UART_EndTxTransfer                     0x0800492c   Section        0  stm32f4xx_hal_uart.o(i.UART_EndTxTransfer)
    UART_EndTxTransfer                       0x0800492d   Thumb Code    38  stm32f4xx_hal_uart.o(i.UART_EndTxTransfer)
    i.UART_Receive_IT                        0x08004952   Section        0  stm32f4xx_hal_uart.o(i.UART_Receive_IT)
    UART_Receive_IT                          0x08004953   Thumb Code   248  stm32f4xx_hal_uart.o(i.UART_Receive_IT)
    i.UART_Rx_Callback                       0x08004a4c   Section        0  stm32f4xx_it.o(i.UART_Rx_Callback)
    i.UART_SetConfig                         0x08004a84   Section        0  stm32f4xx_hal_uart.o(i.UART_SetConfig)
    UART_SetConfig                           0x08004a85   Thumb Code   546  stm32f4xx_hal_uart.o(i.UART_SetConfig)
    i.UART_Start_Receive_DMA                 0x08004cb0   Section        0  stm32f4xx_hal_uart.o(i.UART_Start_Receive_DMA)
    i.UART_Transmit_IT                       0x08004d7c   Section        0  stm32f4xx_hal_uart.o(i.UART_Transmit_IT)
    UART_Transmit_IT                         0x08004d7d   Thumb Code    96  stm32f4xx_hal_uart.o(i.UART_Transmit_IT)
    i.UART_WaitOnFlagUntilTimeout            0x08004ddc   Section        0  stm32f4xx_hal_uart.o(i.UART_WaitOnFlagUntilTimeout)
    UART_WaitOnFlagUntilTimeout              0x08004ddd   Thumb Code   146  stm32f4xx_hal_uart.o(i.UART_WaitOnFlagUntilTimeout)
    i.USART1_IRQHandler                      0x08004e70   Section        0  stm32f4xx_it.o(i.USART1_IRQHandler)
    i.UsageFault_Handler                     0x08004e84   Section        0  stm32f4xx_it.o(i.UsageFault_Handler)
    i.WHEEL_SPD_UPD_A                        0x08004e88   Section        0  encoder.o(i.WHEEL_SPD_UPD_A)
    i.WHEEL_SPD_UPD_B                        0x08004eac   Section        0  encoder.o(i.WHEEL_SPD_UPD_B)
    i.WHEEL_SPD_UPD_C                        0x08004ed0   Section        0  encoder.o(i.WHEEL_SPD_UPD_C)
    i.WHEEL_SPD_UPD_D                        0x08004ef4   Section        0  encoder.o(i.WHEEL_SPD_UPD_D)
    i.__NVIC_GetPriorityGrouping             0x08004f18   Section        0  stm32f4xx_hal_cortex.o(i.__NVIC_GetPriorityGrouping)
    __NVIC_GetPriorityGrouping               0x08004f19   Thumb Code    10  stm32f4xx_hal_cortex.o(i.__NVIC_GetPriorityGrouping)
    i.__NVIC_SetPriority                     0x08004f28   Section        0  stm32f4xx_hal_cortex.o(i.__NVIC_SetPriority)
    __NVIC_SetPriority                       0x08004f29   Thumb Code    32  stm32f4xx_hal_cortex.o(i.__NVIC_SetPriority)
    i.__get_IPSR                             0x08004f50   Section        0  cmsis_os2.o(i.__get_IPSR)
    __get_IPSR                               0x08004f51   Thumb Code     6  cmsis_os2.o(i.__get_IPSR)
    i.delay_us                               0x08004f58   Section        0  ps2.o(i.delay_us)
    i.main                                   0x08004fb0   Section        0  main.o(i.main)
    i.osDelay                                0x08005050   Section        0  cmsis_os2.o(i.osDelay)
    i.osKernelInitialize                     0x08005070   Section        0  cmsis_os2.o(i.osKernelInitialize)
    i.osKernelStart                          0x0800509c   Section        0  cmsis_os2.o(i.osKernelStart)
    i.osThreadNew                            0x080050fc   Section        0  cmsis_os2.o(i.osThreadNew)
    i.prvAddCurrentTaskToDelayedList         0x080051b4   Section        0  tasks.o(i.prvAddCurrentTaskToDelayedList)
    prvAddCurrentTaskToDelayedList           0x080051b5   Thumb Code   100  tasks.o(i.prvAddCurrentTaskToDelayedList)
    i.prvAddNewTaskToReadyList               0x08005230   Section        0  tasks.o(i.prvAddNewTaskToReadyList)
    prvAddNewTaskToReadyList                 0x08005231   Thumb Code   154  tasks.o(i.prvAddNewTaskToReadyList)
    i.prvCheckForValidListAndQueue           0x080052e8   Section        0  timers.o(i.prvCheckForValidListAndQueue)
    prvCheckForValidListAndQueue             0x080052e9   Thumb Code    78  timers.o(i.prvCheckForValidListAndQueue)
    i.prvCheckTasksWaitingTermination        0x0800535c   Section        0  tasks.o(i.prvCheckTasksWaitingTermination)
    prvCheckTasksWaitingTermination          0x0800535d   Thumb Code    60  tasks.o(i.prvCheckTasksWaitingTermination)
    i.prvCopyDataFromQueue                   0x080053a4   Section        0  queue.o(i.prvCopyDataFromQueue)
    prvCopyDataFromQueue                     0x080053a5   Thumb Code    42  queue.o(i.prvCopyDataFromQueue)
    i.prvCopyDataToQueue                     0x080053ce   Section        0  queue.o(i.prvCopyDataToQueue)
    prvCopyDataToQueue                       0x080053cf   Thumb Code   126  queue.o(i.prvCopyDataToQueue)
    i.prvDeleteTCB                           0x0800544c   Section        0  tasks.o(i.prvDeleteTCB)
    prvDeleteTCB                             0x0800544d   Thumb Code    80  tasks.o(i.prvDeleteTCB)
    i.prvGetNextExpireTime                   0x0800549c   Section        0  timers.o(i.prvGetNextExpireTime)
    prvGetNextExpireTime                     0x0800549d   Thumb Code    36  timers.o(i.prvGetNextExpireTime)
    i.prvHeapInit                            0x080054c4   Section        0  heap_4.o(i.prvHeapInit)
    prvHeapInit                              0x080054c5   Thumb Code    98  heap_4.o(i.prvHeapInit)
    i.prvIdleTask                            0x08005540   Section        0  tasks.o(i.prvIdleTask)
    prvIdleTask                              0x08005541   Thumb Code    32  tasks.o(i.prvIdleTask)
    i.prvInitialiseNewQueue                  0x08005568   Section        0  queue.o(i.prvInitialiseNewQueue)
    prvInitialiseNewQueue                    0x08005569   Thumb Code    42  queue.o(i.prvInitialiseNewQueue)
    i.prvInitialiseNewTask                   0x08005592   Section        0  tasks.o(i.prvInitialiseNewTask)
    prvInitialiseNewTask                     0x08005593   Thumb Code   190  tasks.o(i.prvInitialiseNewTask)
    i.prvInitialiseTaskLists                 0x08005650   Section        0  tasks.o(i.prvInitialiseTaskLists)
    prvInitialiseTaskLists                   0x08005651   Thumb Code    70  tasks.o(i.prvInitialiseTaskLists)
    i.prvInsertBlockIntoFreeList             0x080056b8   Section        0  heap_4.o(i.prvInsertBlockIntoFreeList)
    prvInsertBlockIntoFreeList               0x080056b9   Thumb Code    96  heap_4.o(i.prvInsertBlockIntoFreeList)
    i.prvInsertTimerInActiveList             0x08005720   Section        0  timers.o(i.prvInsertTimerInActiveList)
    prvInsertTimerInActiveList               0x08005721   Thumb Code    80  timers.o(i.prvInsertTimerInActiveList)
    i.prvIsQueueEmpty                        0x08005778   Section        0  queue.o(i.prvIsQueueEmpty)
    prvIsQueueEmpty                          0x08005779   Thumb Code    26  queue.o(i.prvIsQueueEmpty)
    i.prvIsQueueFull                         0x08005792   Section        0  queue.o(i.prvIsQueueFull)
    prvIsQueueFull                           0x08005793   Thumb Code    30  queue.o(i.prvIsQueueFull)
    i.prvProcessExpiredTimer                 0x080057b0   Section        0  timers.o(i.prvProcessExpiredTimer)
    prvProcessExpiredTimer                   0x080057b1   Thumb Code   110  timers.o(i.prvProcessExpiredTimer)
    i.prvProcessReceivedCommands             0x08005824   Section        0  timers.o(i.prvProcessReceivedCommands)
    prvProcessReceivedCommands               0x08005825   Thumb Code   350  timers.o(i.prvProcessReceivedCommands)
    i.prvProcessTimerOrBlockTask             0x08005988   Section        0  timers.o(i.prvProcessTimerOrBlockTask)
    prvProcessTimerOrBlockTask               0x08005989   Thumb Code   102  timers.o(i.prvProcessTimerOrBlockTask)
    i.prvResetNextTaskUnblockTime            0x080059fc   Section        0  tasks.o(i.prvResetNextTaskUnblockTime)
    prvResetNextTaskUnblockTime              0x080059fd   Thumb Code    42  tasks.o(i.prvResetNextTaskUnblockTime)
    i.prvSampleTimeNow                       0x08005a30   Section        0  timers.o(i.prvSampleTimeNow)
    prvSampleTimeNow                         0x08005a31   Thumb Code    40  timers.o(i.prvSampleTimeNow)
    i.prvSwitchTimerLists                    0x08005a5c   Section        0  timers.o(i.prvSwitchTimerLists)
    prvSwitchTimerLists                      0x08005a5d   Thumb Code   154  timers.o(i.prvSwitchTimerLists)
    i.prvTaskExitError                       0x08005b00   Section        0  port.o(i.prvTaskExitError)
    prvTaskExitError                         0x08005b01   Thumb Code    60  port.o(i.prvTaskExitError)
    i.prvTimerTask                           0x08005b40   Section        0  timers.o(i.prvTimerTask)
    prvTimerTask                             0x08005b41   Thumb Code    26  timers.o(i.prvTimerTask)
    i.prvUnlockQueue                         0x08005b5a   Section        0  queue.o(i.prvUnlockQueue)
    prvUnlockQueue                           0x08005b5b   Thumb Code   126  queue.o(i.prvUnlockQueue)
    i.pvPortMalloc                           0x08005bd8   Section        0  heap_4.o(i.pvPortMalloc)
    i.pxPortInitialiseStack                  0x08005d24   Section        0  port.o(i.pxPortInitialiseStack)
    i.uxListRemove                           0x08005d50   Section        0  list.o(i.uxListRemove)
    i.vApplicationGetIdleTaskMemory          0x08005d78   Section        0  cmsis_os2.o(i.vApplicationGetIdleTaskMemory)
    i.vApplicationGetTimerTaskMemory         0x08005d90   Section        0  cmsis_os2.o(i.vApplicationGetTimerTaskMemory)
    i.vListInitialise                        0x08005da8   Section        0  list.o(i.vListInitialise)
    i.vListInitialiseItem                    0x08005dc2   Section        0  list.o(i.vListInitialiseItem)
    i.vListInsert                            0x08005dc8   Section        0  list.o(i.vListInsert)
    i.vListInsertEnd                         0x08005dfc   Section        0  list.o(i.vListInsertEnd)
    i.vPortEnterCritical                     0x08005e14   Section        0  port.o(i.vPortEnterCritical)
    i.vPortExitCritical                      0x08005e68   Section        0  port.o(i.vPortExitCritical)
    i.vPortFree                              0x08005ea4   Section        0  heap_4.o(i.vPortFree)
    i.vPortSetupTimerInterrupt               0x08005f48   Section        0  port.o(i.vPortSetupTimerInterrupt)
    i.vPortValidateInterruptPriority         0x08005f70   Section        0  port.o(i.vPortValidateInterruptPriority)
    i.vQueueAddToRegistry                    0x08005fe8   Section        0  queue.o(i.vQueueAddToRegistry)
    i.vQueueWaitForMessageRestricted         0x08006014   Section        0  queue.o(i.vQueueWaitForMessageRestricted)
    i.vTaskDelay                             0x08006060   Section        0  tasks.o(i.vTaskDelay)
    i.vTaskInternalSetTimeOutState           0x080060bc   Section        0  tasks.o(i.vTaskInternalSetTimeOutState)
    i.vTaskMissedYield                       0x080060d4   Section        0  tasks.o(i.vTaskMissedYield)
    i.vTaskPlaceOnEventList                  0x080060e0   Section        0  tasks.o(i.vTaskPlaceOnEventList)
    i.vTaskPlaceOnEventListRestricted        0x08006118   Section        0  tasks.o(i.vTaskPlaceOnEventListRestricted)
    i.vTaskStartScheduler                    0x08006158   Section        0  tasks.o(i.vTaskStartScheduler)
    i.vTaskSuspendAll                        0x08006210   Section        0  tasks.o(i.vTaskSuspendAll)
    i.vTaskSwitchContext                     0x08006220   Section        0  tasks.o(i.vTaskSwitchContext)
    i.xPortStartScheduler                    0x080062b0   Section        0  port.o(i.xPortStartScheduler)
    i.xPortSysTickHandler                    0x08006418   Section        0  port.o(i.xPortSysTickHandler)
    i.xQueueGenericCreateStatic              0x0800644c   Section        0  queue.o(i.xQueueGenericCreateStatic)
    i.xQueueGenericReset                     0x0800652c   Section        0  queue.o(i.xQueueGenericReset)
    i.xQueueGenericSend                      0x080065c4   Section        0  queue.o(i.xQueueGenericSend)
    i.xQueueGenericSendFromISR               0x0800676c   Section        0  queue.o(i.xQueueGenericSendFromISR)
    i.xQueueReceive                          0x08006868   Section        0  queue.o(i.xQueueReceive)
    i.xTaskCheckForTimeOut                   0x080069d0   Section        0  tasks.o(i.xTaskCheckForTimeOut)
    i.xTaskCreate                            0x08006a5c   Section        0  tasks.o(i.xTaskCreate)
    i.xTaskCreateStatic                      0x08006ac0   Section        0  tasks.o(i.xTaskCreateStatic)
    i.xTaskGetSchedulerState                 0x08006b7c   Section        0  tasks.o(i.xTaskGetSchedulerState)
    i.xTaskGetTickCount                      0x08006b9c   Section        0  tasks.o(i.xTaskGetTickCount)
    i.xTaskIncrementTick                     0x08006ba8   Section        0  tasks.o(i.xTaskIncrementTick)
    i.xTaskPriorityDisinherit                0x08006cec   Section        0  tasks.o(i.xTaskPriorityDisinherit)
    i.xTaskRemoveFromEventList               0x08006d90   Section        0  tasks.o(i.xTaskRemoveFromEventList)
    i.xTaskResumeAll                         0x08006e28   Section        0  tasks.o(i.xTaskResumeAll)
    i.xTimerCreateTimerTask                  0x08006f2c   Section        0  timers.o(i.xTimerCreateTimerTask)
    i.xTimerGenericCommand                   0x08006fa4   Section        0  timers.o(i.xTimerGenericCommand)
    x$fpl$dadd                               0x08007028   Section      336  daddsub_clz.o(x$fpl$dadd)
    $v0                                      0x08007028   Number         0  daddsub_clz.o(x$fpl$dadd)
    _dadd1                                   0x08007039   Thumb Code     0  daddsub_clz.o(x$fpl$dadd)
    x$fpl$dfix                               0x08007178   Section       94  dfix.o(x$fpl$dfix)
    $v0                                      0x08007178   Number         0  dfix.o(x$fpl$dfix)
    x$fpl$dflt                               0x080071d6   Section       46  dflt_clz.o(x$fpl$dflt)
    $v0                                      0x080071d6   Number         0  dflt_clz.o(x$fpl$dflt)
    x$fpl$dmul                               0x08007204   Section      340  dmul.o(x$fpl$dmul)
    $v0                                      0x08007204   Number         0  dmul.o(x$fpl$dmul)
    x$fpl$dnaninf                            0x08007358   Section      156  dnaninf.o(x$fpl$dnaninf)
    $v0                                      0x08007358   Number         0  dnaninf.o(x$fpl$dnaninf)
    x$fpl$dretinf                            0x080073f4   Section       12  dretinf.o(x$fpl$dretinf)
    $v0                                      0x080073f4   Number         0  dretinf.o(x$fpl$dretinf)
    x$fpl$dsub                               0x08007400   Section      468  daddsub_clz.o(x$fpl$dsub)
    $v0                                      0x08007400   Number         0  daddsub_clz.o(x$fpl$dsub)
    _dsub1                                   0x08007411   Thumb Code     0  daddsub_clz.o(x$fpl$dsub)
    x$fpl$fpinit                             0x080075d4   Section       10  fpinit.o(x$fpl$fpinit)
    $v0                                      0x080075d4   Number         0  fpinit.o(x$fpl$fpinit)
    x$fpl$usenofp                            0x080075de   Section        0  usenofp.o(x$fpl$usenofp)
    .constdata                               0x080075e0   Section      144  freertos.o(.constdata)
    .constdata                               0x08007670   Section        8  stm32f4xx_hal_dma.o(.constdata)
    flagBitshiftOffset                       0x08007670   Data           8  stm32f4xx_hal_dma.o(.constdata)
    .constdata                               0x08007678   Section       24  system_stm32f4xx.o(.constdata)
    .conststring                             0x08007690   Section       46  freertos.o(.conststring)
    .data                                    0x20000000   Section      120  encoder.o(.data)
    bias                                     0x20000038   Data           4  encoder.o(.data)
    last_bias                                0x2000003c   Data           4  encoder.o(.data)
    prev_bias                                0x20000040   Data           4  encoder.o(.data)
    PID                                      0x20000044   Data           4  encoder.o(.data)
    bias                                     0x20000048   Data           4  encoder.o(.data)
    last_bias                                0x2000004c   Data           4  encoder.o(.data)
    prev_bias                                0x20000050   Data           4  encoder.o(.data)
    PID                                      0x20000054   Data           4  encoder.o(.data)
    bias                                     0x20000058   Data           4  encoder.o(.data)
    last_bias                                0x2000005c   Data           4  encoder.o(.data)
    prev_bias                                0x20000060   Data           4  encoder.o(.data)
    PID                                      0x20000064   Data           4  encoder.o(.data)
    bias                                     0x20000068   Data           4  encoder.o(.data)
    last_bias                                0x2000006c   Data           4  encoder.o(.data)
    prev_bias                                0x20000070   Data           4  encoder.o(.data)
    PID                                      0x20000074   Data           4  encoder.o(.data)
    .data                                    0x20000078   Section       36  ps2.o(.data)
    .data                                    0x2000009c   Section       28  freertos.o(.data)
    .data                                    0x200000b8   Section       40  stm32f4xx_it.o(.data)
    all_bias                                 0x200000d0   Data           4  stm32f4xx_it.o(.data)
    last_bias                                0x200000d4   Data           4  stm32f4xx_it.o(.data)
    all_bias                                 0x200000d8   Data           4  stm32f4xx_it.o(.data)
    last_bias                                0x200000dc   Data           4  stm32f4xx_it.o(.data)
    .data                                    0x200000e0   Section        9  stm32f4xx_hal.o(.data)
    .data                                    0x200000ec   Section        4  system_stm32f4xx.o(.data)
    .data                                    0x200000f0   Section       60  tasks.o(.data)
    pxDelayedTaskList                        0x200000f4   Data           4  tasks.o(.data)
    pxOverflowDelayedTaskList                0x200000f8   Data           4  tasks.o(.data)
    uxDeletedTasksWaitingCleanUp             0x200000fc   Data           4  tasks.o(.data)
    uxCurrentNumberOfTasks                   0x20000100   Data           4  tasks.o(.data)
    xTickCount                               0x20000104   Data           4  tasks.o(.data)
    uxTopReadyPriority                       0x20000108   Data           4  tasks.o(.data)
    xSchedulerRunning                        0x2000010c   Data           4  tasks.o(.data)
    xPendedTicks                             0x20000110   Data           4  tasks.o(.data)
    xYieldPending                            0x20000114   Data           4  tasks.o(.data)
    xNumOfOverflows                          0x20000118   Data           4  tasks.o(.data)
    uxTaskNumber                             0x2000011c   Data           4  tasks.o(.data)
    xNextTaskUnblockTime                     0x20000120   Data           4  tasks.o(.data)
    xIdleTaskHandle                          0x20000124   Data           4  tasks.o(.data)
    uxSchedulerSuspended                     0x20000128   Data           4  tasks.o(.data)
    .data                                    0x2000012c   Section       20  timers.o(.data)
    pxCurrentTimerList                       0x2000012c   Data           4  timers.o(.data)
    pxOverflowTimerList                      0x20000130   Data           4  timers.o(.data)
    xTimerQueue                              0x20000134   Data           4  timers.o(.data)
    xTimerTaskHandle                         0x20000138   Data           4  timers.o(.data)
    xLastTime                                0x2000013c   Data           4  timers.o(.data)
    .data                                    0x20000140   Section        4  cmsis_os2.o(.data)
    KernelState                              0x20000140   Data           4  cmsis_os2.o(.data)
    .data                                    0x20000144   Section       32  heap_4.o(.data)
    xStart                                   0x20000144   Data           8  heap_4.o(.data)
    pxEnd                                    0x2000014c   Data           4  heap_4.o(.data)
    xFreeBytesRemaining                      0x20000150   Data           4  heap_4.o(.data)
    xMinimumEverFreeBytesRemaining           0x20000154   Data           4  heap_4.o(.data)
    xNumberOfSuccessfulAllocations           0x20000158   Data           4  heap_4.o(.data)
    xNumberOfSuccessfulFrees                 0x2000015c   Data           4  heap_4.o(.data)
    xBlockAllocatedBit                       0x20000160   Data           4  heap_4.o(.data)
    .data                                    0x20000164   Section       12  port.o(.data)
    uxCriticalNesting                        0x20000164   Data           4  port.o(.data)
    ucMaxSysCallPriority                     0x20000168   Data           1  port.o(.data)
    ulMaxPRIGROUPValue                       0x2000016c   Data           4  port.o(.data)
    .bss                                     0x20000170   Section        9  ps2.o(.bss)
    .bss                                     0x2000017c   Section      576  tim.o(.bss)
    .bss                                     0x200003bc   Section      260  usart.o(.bss)
    .bss                                     0x200004c0   Section      510  stm32f4xx_it.o(.bss)
    .bss                                     0x200006c0   Section       72  stm32f4xx_hal_timebase_tim.o(.bss)
    .bss                                     0x20000708   Section       64  queue.o(.bss)
    .bss                                     0x20000748   Section     1220  tasks.o(.bss)
    pxReadyTasksLists                        0x20000748   Data        1120  tasks.o(.bss)
    xDelayedTaskList1                        0x20000ba8   Data          20  tasks.o(.bss)
    xDelayedTaskList2                        0x20000bbc   Data          20  tasks.o(.bss)
    xPendingReadyList                        0x20000bd0   Data          20  tasks.o(.bss)
    xTasksWaitingTermination                 0x20000be4   Data          20  tasks.o(.bss)
    xSuspendedTaskList                       0x20000bf8   Data          20  tasks.o(.bss)
    .bss                                     0x20000c0c   Section      280  timers.o(.bss)
    xActiveTimerList1                        0x20000c0c   Data          20  timers.o(.bss)
    xActiveTimerList2                        0x20000c20   Data          20  timers.o(.bss)
    xStaticTimerQueue                        0x20000c34   Data          80  timers.o(.bss)
    ucStaticTimerQueueStorage                0x20000c84   Data         160  timers.o(.bss)
    .bss                                     0x20000d24   Section     1720  cmsis_os2.o(.bss)
    Idle_TCB                                 0x20000d24   Data          92  cmsis_os2.o(.bss)
    Idle_Stack                               0x20000d80   Data         512  cmsis_os2.o(.bss)
    Timer_TCB                                0x20000f80   Data          92  cmsis_os2.o(.bss)
    Timer_Stack                              0x20000fdc   Data        1024  cmsis_os2.o(.bss)
    .bss                                     0x200013dc   Section    15360  heap_4.o(.bss)
    ucHeap                                   0x200013dc   Data       15360  heap_4.o(.bss)
    .bss                                     0x20004fdc   Section       96  libspace.o(.bss)
    HEAP                                     0x20005040   Section      512  startup_stm32f407xx.o(HEAP)
    Heap_Mem                                 0x20005040   Data         512  startup_stm32f407xx.o(HEAP)
    STACK                                    0x20005240   Section     1024  startup_stm32f407xx.o(STACK)
    Stack_Mem                                0x20005240   Data        1024  startup_stm32f407xx.o(STACK)
    __initial_sp                             0x20005640   Data           0  startup_stm32f407xx.o(STACK)

    Global Symbols

    Symbol Name                              Value     Ov Type        Size  Object(Section)

    BuildAttributes$$THM_ISAv4$E$P$D$K$B$S$7EM$VFPi3$EXTD16$VFPS$VFMA$PE$A:L22UL41UL21$X:L11$S22US41US21$IEEE1$IW$USESV6$~STKCKD$USESV7$~SHL$OSPACE$ROPI$EBA8$UX$STANDARDLIB$REQ8$PRES8$EABIv2 0x00000000   Number         0  anon$$obj.o ABSOLUTE
    __ARM_use_no_argv                        0x00000000   Number         0  main.o ABSOLUTE
    __ARM_exceptions_init                     - Undefined Weak Reference
    __alloca_initialize                       - Undefined Weak Reference
    __arm_fini_                               - Undefined Weak Reference
    __arm_preinit_                            - Undefined Weak Reference
    __cpp_initialize__aeabi_                  - Undefined Weak Reference
    __cxa_finalize                            - Undefined Weak Reference
    __rt_locale                               - Undefined Weak Reference
    __sigvec_lookup                           - Undefined Weak Reference
    _atexit_init                              - Undefined Weak Reference
    _call_atexit_fns                          - Undefined Weak Reference
    _clock_init                               - Undefined Weak Reference
    _fp_trap_init                             - Undefined Weak Reference
    _fp_trap_shutdown                         - Undefined Weak Reference
    _get_lc_collate                           - Undefined Weak Reference
    _get_lc_ctype                             - Undefined Weak Reference
    _get_lc_monetary                          - Undefined Weak Reference
    _get_lc_numeric                           - Undefined Weak Reference
    _get_lc_time                              - Undefined Weak Reference
    _getenv_init                              - Undefined Weak Reference
    _handle_redirection                       - Undefined Weak Reference
    _init_alloc                               - Undefined Weak Reference
    _init_user_alloc                          - Undefined Weak Reference
    _initio                                   - Undefined Weak Reference
    _rand_init                                - Undefined Weak Reference
    _signal_finish                            - Undefined Weak Reference
    _signal_init                              - Undefined Weak Reference
    _terminate_alloc                          - Undefined Weak Reference
    _terminate_user_alloc                     - Undefined Weak Reference
    _terminateio                              - Undefined Weak Reference
    __Vectors_Size                           0x00000188   Number         0  startup_stm32f407xx.o ABSOLUTE
    __Vectors                                0x08000000   Data           4  startup_stm32f407xx.o(RESET)
    __Vectors_End                            0x08000188   Data           0  startup_stm32f407xx.o(RESET)
    __main                                   0x08000189   Thumb Code     8  __main.o(!!!main)
    __scatterload                            0x08000191   Thumb Code     0  __scatter.o(!!!scatter)
    __scatterload_rt2                        0x08000191   Thumb Code    44  __scatter.o(!!!scatter)
    __scatterload_rt2_thumb_only             0x08000191   Thumb Code     0  __scatter.o(!!!scatter)
    __scatterload_null                       0x0800019f   Thumb Code     0  __scatter.o(!!!scatter)
    __decompress                             0x080001c5   Thumb Code    90  __dczerorl2.o(!!dczerorl2)
    __decompress1                            0x080001c5   Thumb Code     0  __dczerorl2.o(!!dczerorl2)
    __scatterload_zeroinit                   0x08000221   Thumb Code    28  __scatter_zi.o(!!handler_zi)
    __rt_lib_init                            0x0800023d   Thumb Code     0  libinit.o(.ARM.Collect$$libinit$$00000000)
    __rt_lib_init_fp_1                       0x0800023f   Thumb Code     0  libinit2.o(.ARM.Collect$$libinit$$00000001)
    __rt_lib_init_alloca_1                   0x08000243   Thumb Code     0  libinit2.o(.ARM.Collect$$libinit$$0000002E)
    __rt_lib_init_argv_1                     0x08000243   Thumb Code     0  libinit2.o(.ARM.Collect$$libinit$$0000002C)
    __rt_lib_init_atexit_1                   0x08000243   Thumb Code     0  libinit2.o(.ARM.Collect$$libinit$$0000001B)
    __rt_lib_init_clock_1                    0x08000243   Thumb Code     0  libinit2.o(.ARM.Collect$$libinit$$00000021)
    __rt_lib_init_cpp_1                      0x08000243   Thumb Code     0  libinit2.o(.ARM.Collect$$libinit$$00000032)
    __rt_lib_init_exceptions_1               0x08000243   Thumb Code     0  libinit2.o(.ARM.Collect$$libinit$$00000030)
    __rt_lib_init_fp_trap_1                  0x08000243   Thumb Code     0  libinit2.o(.ARM.Collect$$libinit$$0000001F)
    __rt_lib_init_getenv_1                   0x08000243   Thumb Code     0  libinit2.o(.ARM.Collect$$libinit$$00000023)
    __rt_lib_init_heap_1                     0x08000243   Thumb Code     0  libinit2.o(.ARM.Collect$$libinit$$0000000A)
    __rt_lib_init_lc_collate_1               0x08000243   Thumb Code     0  libinit2.o(.ARM.Collect$$libinit$$00000011)
    __rt_lib_init_lc_ctype_1                 0x08000243   Thumb Code     0  libinit2.o(.ARM.Collect$$libinit$$00000013)
    __rt_lib_init_lc_monetary_1              0x08000243   Thumb Code     0  libinit2.o(.ARM.Collect$$libinit$$00000015)
    __rt_lib_init_lc_numeric_1               0x08000243   Thumb Code     0  libinit2.o(.ARM.Collect$$libinit$$00000017)
    __rt_lib_init_lc_time_1                  0x08000243   Thumb Code     0  libinit2.o(.ARM.Collect$$libinit$$00000019)
    __rt_lib_init_preinit_1                  0x08000243   Thumb Code     0  libinit2.o(.ARM.Collect$$libinit$$00000004)
    __rt_lib_init_rand_1                     0x08000243   Thumb Code     0  libinit2.o(.ARM.Collect$$libinit$$0000000E)
    __rt_lib_init_return                     0x08000243   Thumb Code     0  libinit2.o(.ARM.Collect$$libinit$$00000033)
    __rt_lib_init_signal_1                   0x08000243   Thumb Code     0  libinit2.o(.ARM.Collect$$libinit$$0000001D)
    __rt_lib_init_stdio_1                    0x08000243   Thumb Code     0  libinit2.o(.ARM.Collect$$libinit$$00000025)
    __rt_lib_init_user_alloc_1               0x08000243   Thumb Code     0  libinit2.o(.ARM.Collect$$libinit$$0000000C)
    __rt_lib_shutdown                        0x08000245   Thumb Code     0  libshutdown.o(.ARM.Collect$$libshutdown$$00000000)
    __rt_lib_shutdown_cpp_1                  0x08000247   Thumb Code     0  libshutdown2.o(.ARM.Collect$$libshutdown$$00000004)
    __rt_lib_shutdown_fini_1                 0x08000247   Thumb Code     0  libshutdown2.o(.ARM.Collect$$libshutdown$$00000002)
    __rt_lib_shutdown_fp_trap_1              0x08000247   Thumb Code     0  libshutdown2.o(.ARM.Collect$$libshutdown$$00000009)
    __rt_lib_shutdown_heap_1                 0x08000247   Thumb Code     0  libshutdown2.o(.ARM.Collect$$libshutdown$$00000011)
    __rt_lib_shutdown_return                 0x08000247   Thumb Code     0  libshutdown2.o(.ARM.Collect$$libshutdown$$00000012)
    __rt_lib_shutdown_signal_1               0x08000247   Thumb Code     0  libshutdown2.o(.ARM.Collect$$libshutdown$$0000000C)
    __rt_lib_shutdown_stdio_1                0x08000247   Thumb Code     0  libshutdown2.o(.ARM.Collect$$libshutdown$$00000006)
    __rt_lib_shutdown_user_alloc_1           0x08000247   Thumb Code     0  libshutdown2.o(.ARM.Collect$$libshutdown$$0000000E)
    __rt_entry                               0x08000249   Thumb Code     0  __rtentry.o(.ARM.Collect$$rtentry$$00000000)
    __rt_entry_presh_1                       0x08000249   Thumb Code     0  __rtentry2.o(.ARM.Collect$$rtentry$$00000002)
    __rt_entry_sh                            0x08000249   Thumb Code     0  __rtentry4.o(.ARM.Collect$$rtentry$$00000004)
    __rt_entry_li                            0x0800024f   Thumb Code     0  __rtentry2.o(.ARM.Collect$$rtentry$$0000000A)
    __rt_entry_postsh_1                      0x0800024f   Thumb Code     0  __rtentry2.o(.ARM.Collect$$rtentry$$00000009)
    __rt_entry_main                          0x08000253   Thumb Code     0  __rtentry2.o(.ARM.Collect$$rtentry$$0000000D)
    __rt_entry_postli_1                      0x08000253   Thumb Code     0  __rtentry2.o(.ARM.Collect$$rtentry$$0000000C)
    __rt_exit                                0x0800025b   Thumb Code     0  rtexit.o(.ARM.Collect$$rtexit$$00000000)
    __rt_exit_ls                             0x0800025d   Thumb Code     0  rtexit2.o(.ARM.Collect$$rtexit$$00000003)
    __rt_exit_prels_1                        0x0800025d   Thumb Code     0  rtexit2.o(.ARM.Collect$$rtexit$$00000002)
    __rt_exit_exit                           0x08000261   Thumb Code     0  rtexit2.o(.ARM.Collect$$rtexit$$00000004)
    SVC_Handler                              0x08000269   Thumb Code    28  port.o(.emb_text)
    __asm___6_port_c_39a90d8d__prvStartFirstTask 0x08000289   Thumb Code    36  port.o(.emb_text)
    __asm___6_port_c_39a90d8d__prvEnableVFP  0x080002b1   Thumb Code    16  port.o(.emb_text)
    PendSV_Handler                           0x080002c5   Thumb Code    88  port.o(.emb_text)
    vPortGetIPSR                             0x08000321   Thumb Code     6  port.o(.emb_text)
    Reset_Handler                            0x08000329   Thumb Code     8  startup_stm32f407xx.o(.text)
    ADC_IRQHandler                           0x08000343   Thumb Code     0  startup_stm32f407xx.o(.text)
    CAN1_RX0_IRQHandler                      0x08000343   Thumb Code     0  startup_stm32f407xx.o(.text)
    CAN1_RX1_IRQHandler                      0x08000343   Thumb Code     0  startup_stm32f407xx.o(.text)
    CAN1_SCE_IRQHandler                      0x08000343   Thumb Code     0  startup_stm32f407xx.o(.text)
    CAN1_TX_IRQHandler                       0x08000343   Thumb Code     0  startup_stm32f407xx.o(.text)
    CAN2_RX0_IRQHandler                      0x08000343   Thumb Code     0  startup_stm32f407xx.o(.text)
    CAN2_RX1_IRQHandler                      0x08000343   Thumb Code     0  startup_stm32f407xx.o(.text)
    CAN2_SCE_IRQHandler                      0x08000343   Thumb Code     0  startup_stm32f407xx.o(.text)
    CAN2_TX_IRQHandler                       0x08000343   Thumb Code     0  startup_stm32f407xx.o(.text)
    DCMI_IRQHandler                          0x08000343   Thumb Code     0  startup_stm32f407xx.o(.text)
    DMA1_Stream0_IRQHandler                  0x08000343   Thumb Code     0  startup_stm32f407xx.o(.text)
    DMA1_Stream1_IRQHandler                  0x08000343   Thumb Code     0  startup_stm32f407xx.o(.text)
    DMA1_Stream2_IRQHandler                  0x08000343   Thumb Code     0  startup_stm32f407xx.o(.text)
    DMA1_Stream3_IRQHandler                  0x08000343   Thumb Code     0  startup_stm32f407xx.o(.text)
    DMA1_Stream4_IRQHandler                  0x08000343   Thumb Code     0  startup_stm32f407xx.o(.text)
    DMA1_Stream5_IRQHandler                  0x08000343   Thumb Code     0  startup_stm32f407xx.o(.text)
    DMA1_Stream6_IRQHandler                  0x08000343   Thumb Code     0  startup_stm32f407xx.o(.text)
    DMA1_Stream7_IRQHandler                  0x08000343   Thumb Code     0  startup_stm32f407xx.o(.text)
    DMA2_Stream0_IRQHandler                  0x08000343   Thumb Code     0  startup_stm32f407xx.o(.text)
    DMA2_Stream1_IRQHandler                  0x08000343   Thumb Code     0  startup_stm32f407xx.o(.text)
    DMA2_Stream3_IRQHandler                  0x08000343   Thumb Code     0  startup_stm32f407xx.o(.text)
    DMA2_Stream4_IRQHandler                  0x08000343   Thumb Code     0  startup_stm32f407xx.o(.text)
    DMA2_Stream5_IRQHandler                  0x08000343   Thumb Code     0  startup_stm32f407xx.o(.text)
    DMA2_Stream6_IRQHandler                  0x08000343   Thumb Code     0  startup_stm32f407xx.o(.text)
    ETH_IRQHandler                           0x08000343   Thumb Code     0  startup_stm32f407xx.o(.text)
    ETH_WKUP_IRQHandler                      0x08000343   Thumb Code     0  startup_stm32f407xx.o(.text)
    EXTI0_IRQHandler                         0x08000343   Thumb Code     0  startup_stm32f407xx.o(.text)
    EXTI15_10_IRQHandler                     0x08000343   Thumb Code     0  startup_stm32f407xx.o(.text)
    EXTI1_IRQHandler                         0x08000343   Thumb Code     0  startup_stm32f407xx.o(.text)
    EXTI2_IRQHandler                         0x08000343   Thumb Code     0  startup_stm32f407xx.o(.text)
    EXTI3_IRQHandler                         0x08000343   Thumb Code     0  startup_stm32f407xx.o(.text)
    EXTI4_IRQHandler                         0x08000343   Thumb Code     0  startup_stm32f407xx.o(.text)
    EXTI9_5_IRQHandler                       0x08000343   Thumb Code     0  startup_stm32f407xx.o(.text)
    FLASH_IRQHandler                         0x08000343   Thumb Code     0  startup_stm32f407xx.o(.text)
    FMC_IRQHandler                           0x08000343   Thumb Code     0  startup_stm32f407xx.o(.text)
    FPU_IRQHandler                           0x08000343   Thumb Code     0  startup_stm32f407xx.o(.text)
    HASH_RNG_IRQHandler                      0x08000343   Thumb Code     0  startup_stm32f407xx.o(.text)
    I2C1_ER_IRQHandler                       0x08000343   Thumb Code     0  startup_stm32f407xx.o(.text)
    I2C1_EV_IRQHandler                       0x08000343   Thumb Code     0  startup_stm32f407xx.o(.text)
    I2C2_ER_IRQHandler                       0x08000343   Thumb Code     0  startup_stm32f407xx.o(.text)
    I2C2_EV_IRQHandler                       0x08000343   Thumb Code     0  startup_stm32f407xx.o(.text)
    I2C3_ER_IRQHandler                       0x08000343   Thumb Code     0  startup_stm32f407xx.o(.text)
    I2C3_EV_IRQHandler                       0x08000343   Thumb Code     0  startup_stm32f407xx.o(.text)
    OTG_FS_IRQHandler                        0x08000343   Thumb Code     0  startup_stm32f407xx.o(.text)
    OTG_FS_WKUP_IRQHandler                   0x08000343   Thumb Code     0  startup_stm32f407xx.o(.text)
    OTG_HS_EP1_IN_IRQHandler                 0x08000343   Thumb Code     0  startup_stm32f407xx.o(.text)
    OTG_HS_EP1_OUT_IRQHandler                0x08000343   Thumb Code     0  startup_stm32f407xx.o(.text)
    OTG_HS_IRQHandler                        0x08000343   Thumb Code     0  startup_stm32f407xx.o(.text)
    OTG_HS_WKUP_IRQHandler                   0x08000343   Thumb Code     0  startup_stm32f407xx.o(.text)
    PVD_IRQHandler                           0x08000343   Thumb Code     0  startup_stm32f407xx.o(.text)
    RCC_IRQHandler                           0x08000343   Thumb Code     0  startup_stm32f407xx.o(.text)
    RTC_Alarm_IRQHandler                     0x08000343   Thumb Code     0  startup_stm32f407xx.o(.text)
    RTC_WKUP_IRQHandler                      0x08000343   Thumb Code     0  startup_stm32f407xx.o(.text)
    SDIO_IRQHandler                          0x08000343   Thumb Code     0  startup_stm32f407xx.o(.text)
    SPI1_IRQHandler                          0x08000343   Thumb Code     0  startup_stm32f407xx.o(.text)
    SPI2_IRQHandler                          0x08000343   Thumb Code     0  startup_stm32f407xx.o(.text)
    SPI3_IRQHandler                          0x08000343   Thumb Code     0  startup_stm32f407xx.o(.text)
    TAMP_STAMP_IRQHandler                    0x08000343   Thumb Code     0  startup_stm32f407xx.o(.text)
    TIM1_BRK_TIM9_IRQHandler                 0x08000343   Thumb Code     0  startup_stm32f407xx.o(.text)
    TIM1_CC_IRQHandler                       0x08000343   Thumb Code     0  startup_stm32f407xx.o(.text)
    TIM1_TRG_COM_TIM11_IRQHandler            0x08000343   Thumb Code     0  startup_stm32f407xx.o(.text)
    TIM1_UP_TIM10_IRQHandler                 0x08000343   Thumb Code     0  startup_stm32f407xx.o(.text)
    TIM2_IRQHandler                          0x08000343   Thumb Code     0  startup_stm32f407xx.o(.text)
    TIM3_IRQHandler                          0x08000343   Thumb Code     0  startup_stm32f407xx.o(.text)
    TIM4_IRQHandler                          0x08000343   Thumb Code     0  startup_stm32f407xx.o(.text)
    TIM5_IRQHandler                          0x08000343   Thumb Code     0  startup_stm32f407xx.o(.text)
    TIM6_DAC_IRQHandler                      0x08000343   Thumb Code     0  startup_stm32f407xx.o(.text)
    TIM7_IRQHandler                          0x08000343   Thumb Code     0  startup_stm32f407xx.o(.text)
    TIM8_BRK_TIM12_IRQHandler                0x08000343   Thumb Code     0  startup_stm32f407xx.o(.text)
    TIM8_CC_IRQHandler                       0x08000343   Thumb Code     0  startup_stm32f407xx.o(.text)
    TIM8_UP_TIM13_IRQHandler                 0x08000343   Thumb Code     0  startup_stm32f407xx.o(.text)
    UART4_IRQHandler                         0x08000343   Thumb Code     0  startup_stm32f407xx.o(.text)
    UART5_IRQHandler                         0x08000343   Thumb Code     0  startup_stm32f407xx.o(.text)
    USART2_IRQHandler                        0x08000343   Thumb Code     0  startup_stm32f407xx.o(.text)
    USART3_IRQHandler                        0x08000343   Thumb Code     0  startup_stm32f407xx.o(.text)
    USART6_IRQHandler                        0x08000343   Thumb Code     0  startup_stm32f407xx.o(.text)
    WWDG_IRQHandler                          0x08000343   Thumb Code     0  startup_stm32f407xx.o(.text)
    __user_initial_stackheap                 0x08000345   Thumb Code     0  startup_stm32f407xx.o(.text)
    __aeabi_uldivmod                         0x08000369   Thumb Code     0  lludivv7m.o(.text)
    _ll_udiv                                 0x08000369   Thumb Code   238  lludivv7m.o(.text)
    __aeabi_memcpy                           0x08000457   Thumb Code     0  rt_memcpy_v6.o(.text)
    __rt_memcpy                              0x08000457   Thumb Code   138  rt_memcpy_v6.o(.text)
    _memcpy_lastbytes                        0x080004bd   Thumb Code     0  rt_memcpy_v6.o(.text)
    __aeabi_memset                           0x080004e1   Thumb Code    16  aeabi_memset.o(.text)
    __aeabi_memclr4                          0x080004f1   Thumb Code     0  rt_memclr_w.o(.text)
    __aeabi_memclr8                          0x080004f1   Thumb Code     0  rt_memclr_w.o(.text)
    __rt_memclr_w                            0x080004f1   Thumb Code    78  rt_memclr_w.o(.text)
    _memset_w                                0x080004f5   Thumb Code     0  rt_memclr_w.o(.text)
    __use_two_region_memory                  0x0800053f   Thumb Code     2  heapauxi.o(.text)
    __rt_heap_escrow$2region                 0x08000541   Thumb Code     2  heapauxi.o(.text)
    __rt_heap_expand$2region                 0x08000543   Thumb Code     2  heapauxi.o(.text)
    __aeabi_memcpy4                          0x08000545   Thumb Code     0  rt_memcpy_w.o(.text)
    __aeabi_memcpy8                          0x08000545   Thumb Code     0  rt_memcpy_w.o(.text)
    __rt_memcpy_w                            0x08000545   Thumb Code   100  rt_memcpy_w.o(.text)
    _memcpy_lastbytes_aligned                0x0800058d   Thumb Code     0  rt_memcpy_w.o(.text)
    __aeabi_memclr                           0x080005a9   Thumb Code     0  rt_memclr.o(.text)
    __rt_memclr                              0x080005a9   Thumb Code    68  rt_memclr.o(.text)
    _memset                                  0x080005ad   Thumb Code     0  rt_memclr.o(.text)
    __user_setup_stackheap                   0x080005ed   Thumb Code    74  sys_stackheap_outer.o(.text)
    exit                                     0x08000637   Thumb Code    18  exit.o(.text)
    __user_libspace                          0x08000649   Thumb Code     8  libspace.o(.text)
    __user_perproc_libspace                  0x08000649   Thumb Code     0  libspace.o(.text)
    __user_perthread_libspace                0x08000649   Thumb Code     0  libspace.o(.text)
    _sys_exit                                0x08000651   Thumb Code     8  sys_exit.o(.text)
    __I$use$semihosting                      0x0800065d   Thumb Code     0  use_no_semi.o(.text)
    __use_no_semihosting_swi                 0x0800065d   Thumb Code     2  use_no_semi.o(.text)
    __semihosting_library_function           0x0800065f   Thumb Code     0  indicate_semi.o(.text)
    Angle_PID_P                              0x08000661   Thumb Code   152  stm32f4xx_it.o(i.Angle_PID_P)
    Angle_PID_V                              0x08000711   Thumb Code   152  stm32f4xx_it.o(i.Angle_PID_V)
    AutoCtrl                                 0x080007c1   Thumb Code  1594  encoder.o(i.AutoCtrl)
    BusFault_Handler                         0x08000e25   Thumb Code     4  stm32f4xx_it.o(i.BusFault_Handler)
    CNT_init                                 0x08000e29   Thumb Code    30  encoder.o(i.CNT_init)
    DMA2_Stream2_IRQHandler                  0x08000e59   Thumb Code    10  stm32f4xx_it.o(i.DMA2_Stream2_IRQHandler)
    DMA2_Stream7_IRQHandler                  0x08000e69   Thumb Code    10  stm32f4xx_it.o(i.DMA2_Stream7_IRQHandler)
    DebugMon_Handler                         0x08000f83   Thumb Code     2  stm32f4xx_it.o(i.DebugMon_Handler)
    Error_Handler                            0x08000f85   Thumb Code     6  main.o(i.Error_Handler)
    HAL_DMA_Abort                            0x08000f8b   Thumb Code   172  stm32f4xx_hal_dma.o(i.HAL_DMA_Abort)
    HAL_DMA_Abort_IT                         0x08001037   Thumb Code    40  stm32f4xx_hal_dma.o(i.HAL_DMA_Abort_IT)
    HAL_DMA_IRQHandler                       0x08001061   Thumb Code   570  stm32f4xx_hal_dma.o(i.HAL_DMA_IRQHandler)
    HAL_DMA_Init                             0x080012a1   Thumb Code   232  stm32f4xx_hal_dma.o(i.HAL_DMA_Init)
    HAL_DMA_Start_IT                         0x0800138d   Thumb Code   146  stm32f4xx_hal_dma.o(i.HAL_DMA_Start_IT)
    HAL_Delay                                0x08001421   Thumb Code    36  stm32f4xx_hal.o(i.HAL_Delay)
    HAL_GPIO_Init                            0x08001449   Thumb Code   452  stm32f4xx_hal_gpio.o(i.HAL_GPIO_Init)
    HAL_GPIO_ReadPin                         0x08001639   Thumb Code    16  stm32f4xx_hal_gpio.o(i.HAL_GPIO_ReadPin)
    HAL_GPIO_WritePin                        0x08001649   Thumb Code    12  stm32f4xx_hal_gpio.o(i.HAL_GPIO_WritePin)
    HAL_GetTick                              0x08001655   Thumb Code     6  stm32f4xx_hal.o(i.HAL_GetTick)
    HAL_IncTick                              0x08001661   Thumb Code    16  stm32f4xx_hal.o(i.HAL_IncTick)
    HAL_Init                                 0x08001679   Thumb Code    54  stm32f4xx_hal.o(i.HAL_Init)
    HAL_InitTick                             0x080016b5   Thumb Code   122  stm32f4xx_hal_timebase_tim.o(i.HAL_InitTick)
    HAL_MspInit                              0x08001741   Thumb Code    78  stm32f4xx_hal_msp.o(i.HAL_MspInit)
    HAL_NVIC_EnableIRQ                       0x08001795   Thumb Code    32  stm32f4xx_hal_cortex.o(i.HAL_NVIC_EnableIRQ)
    HAL_NVIC_SetPriority                     0x080017b5   Thumb Code   124  stm32f4xx_hal_cortex.o(i.HAL_NVIC_SetPriority)
    HAL_NVIC_SetPriorityGrouping             0x08001831   Thumb Code    32  stm32f4xx_hal_cortex.o(i.HAL_NVIC_SetPriorityGrouping)
    HAL_RCC_ClockConfig                      0x08001859   Thumb Code   368  stm32f4xx_hal_rcc.o(i.HAL_RCC_ClockConfig)
    HAL_RCC_GetClockConfig                   0x080019dd   Thumb Code    58  stm32f4xx_hal_rcc.o(i.HAL_RCC_GetClockConfig)
    HAL_RCC_GetHCLKFreq                      0x08001a21   Thumb Code     6  stm32f4xx_hal_rcc.o(i.HAL_RCC_GetHCLKFreq)
    HAL_RCC_GetPCLK1Freq                     0x08001a2d   Thumb Code    22  stm32f4xx_hal_rcc.o(i.HAL_RCC_GetPCLK1Freq)
    HAL_RCC_GetPCLK2Freq                     0x08001a4d   Thumb Code    22  stm32f4xx_hal_rcc.o(i.HAL_RCC_GetPCLK2Freq)
    HAL_RCC_GetSysClockFreq                  0x08001a6d   Thumb Code   162  stm32f4xx_hal_rcc.o(i.HAL_RCC_GetSysClockFreq)
    HAL_RCC_OscConfig                        0x08001b1d   Thumb Code  1172  stm32f4xx_hal_rcc.o(i.HAL_RCC_OscConfig)
    HAL_TIMEx_BreakCallback                  0x08001fb9   Thumb Code     2  stm32f4xx_hal_tim_ex.o(i.HAL_TIMEx_BreakCallback)
    HAL_TIMEx_CommutCallback                 0x08001fbb   Thumb Code     2  stm32f4xx_hal_tim_ex.o(i.HAL_TIMEx_CommutCallback)
    HAL_TIMEx_ConfigBreakDeadTime            0x08001fbd   Thumb Code   116  stm32f4xx_hal_tim_ex.o(i.HAL_TIMEx_ConfigBreakDeadTime)
    HAL_TIMEx_MasterConfigSynchronization    0x08002031   Thumb Code   150  stm32f4xx_hal_tim_ex.o(i.HAL_TIMEx_MasterConfigSynchronization)
    HAL_TIM_Base_Init                        0x080020e5   Thumb Code   102  stm32f4xx_hal_tim.o(i.HAL_TIM_Base_Init)
    HAL_TIM_Base_MspInit                     0x0800214d   Thumb Code   128  tim.o(i.HAL_TIM_Base_MspInit)
    HAL_TIM_Base_Start_IT                    0x080021dd   Thumb Code   138  stm32f4xx_hal_tim.o(i.HAL_TIM_Base_Start_IT)
    HAL_TIM_ConfigClockSource                0x08002285   Thumb Code   268  stm32f4xx_hal_tim.o(i.HAL_TIM_ConfigClockSource)
    HAL_TIM_Encoder_Init                     0x08002391   Thumb Code   200  stm32f4xx_hal_tim.o(i.HAL_TIM_Encoder_Init)
    HAL_TIM_Encoder_MspInit                  0x08002459   Thumb Code   512  tim.o(i.HAL_TIM_Encoder_MspInit)
    HAL_TIM_IC_CaptureCallback               0x08002679   Thumb Code     2  stm32f4xx_hal_tim.o(i.HAL_TIM_IC_CaptureCallback)
    HAL_TIM_IRQHandler                       0x0800267b   Thumb Code   406  stm32f4xx_hal_tim.o(i.HAL_TIM_IRQHandler)
    HAL_TIM_MspPostInit                      0x08002811   Thumb Code   224  tim.o(i.HAL_TIM_MspPostInit)
    HAL_TIM_OC_DelayElapsedCallback          0x08002909   Thumb Code     2  stm32f4xx_hal_tim.o(i.HAL_TIM_OC_DelayElapsedCallback)
    HAL_TIM_PWM_ConfigChannel                0x0800290b   Thumb Code   260  stm32f4xx_hal_tim.o(i.HAL_TIM_PWM_ConfigChannel)
    HAL_TIM_PWM_Init                         0x08002a0f   Thumb Code   102  stm32f4xx_hal_tim.o(i.HAL_TIM_PWM_Init)
    HAL_TIM_PWM_MspInit                      0x08002a75   Thumb Code    44  tim.o(i.HAL_TIM_PWM_MspInit)
    HAL_TIM_PWM_PulseFinishedCallback        0x08002aa9   Thumb Code     2  stm32f4xx_hal_tim.o(i.HAL_TIM_PWM_PulseFinishedCallback)
    HAL_TIM_PWM_Start                        0x08002aad   Thumb Code   238  stm32f4xx_hal_tim.o(i.HAL_TIM_PWM_Start)
    HAL_TIM_PeriodElapsedCallback            0x08002bb9   Thumb Code    18  main.o(i.HAL_TIM_PeriodElapsedCallback)
    HAL_TIM_TriggerCallback                  0x08002bd1   Thumb Code     2  stm32f4xx_hal_tim.o(i.HAL_TIM_TriggerCallback)
    HAL_UARTEx_RxEventCallback               0x08002bd3   Thumb Code     2  stm32f4xx_hal_uart.o(i.HAL_UARTEx_RxEventCallback)
    HAL_UART_DMAStop                         0x08002bd5   Thumb Code   138  stm32f4xx_hal_uart.o(i.HAL_UART_DMAStop)
    HAL_UART_ErrorCallback                   0x08002c5f   Thumb Code     2  stm32f4xx_hal_uart.o(i.HAL_UART_ErrorCallback)
    HAL_UART_IRQHandler                      0x08002c61   Thumb Code   732  stm32f4xx_hal_uart.o(i.HAL_UART_IRQHandler)
    HAL_UART_Init                            0x08002f41   Thumb Code   114  stm32f4xx_hal_uart.o(i.HAL_UART_Init)
    HAL_UART_MspInit                         0x08002fb5   Thumb Code   260  usart.o(i.HAL_UART_MspInit)
    HAL_UART_Receive_DMA                     0x080030d1   Thumb Code    66  stm32f4xx_hal_uart.o(i.HAL_UART_Receive_DMA)
    HAL_UART_RxCpltCallback                  0x08003113   Thumb Code     2  stm32f4xx_hal_uart.o(i.HAL_UART_RxCpltCallback)
    HAL_UART_RxHalfCpltCallback              0x08003115   Thumb Code     2  stm32f4xx_hal_uart.o(i.HAL_UART_RxHalfCpltCallback)
    HAL_UART_Transmit                        0x08003117   Thumb Code   210  stm32f4xx_hal_uart.o(i.HAL_UART_Transmit)
    HAL_UART_TxCpltCallback                  0x080031e9   Thumb Code     2  stm32f4xx_hal_uart.o(i.HAL_UART_TxCpltCallback)
    HardFault_Handler                        0x080031eb   Thumb Code     4  stm32f4xx_it.o(i.HardFault_Handler)
    Incremental_PID_calc_A                   0x080031f1   Thumb Code   236  encoder.o(i.Incremental_PID_calc_A)
    Incremental_PID_calc_B                   0x080032f9   Thumb Code   236  encoder.o(i.Incremental_PID_calc_B)
    Incremental_PID_calc_C                   0x08003401   Thumb Code   236  encoder.o(i.Incremental_PID_calc_C)
    Incremental_PID_calc_D                   0x08003509   Thumb Code   236  encoder.o(i.Incremental_PID_calc_D)
    MX_DMA_Init                              0x08003611   Thumb Code    68  dma.o(i.MX_DMA_Init)
    MX_FREERTOS_Init                         0x08003659   Thumb Code    60  freertos.o(i.MX_FREERTOS_Init)
    MX_GPIO_Init                             0x080036c5   Thumb Code   376  gpio.o(i.MX_GPIO_Init)
    MX_TIM12_Init                            0x0800384d   Thumb Code   148  tim.o(i.MX_TIM12_Init)
    MX_TIM1_Init                             0x080038e9   Thumb Code   216  tim.o(i.MX_TIM1_Init)
    MX_TIM2_Init                             0x080039c9   Thumb Code   114  tim.o(i.MX_TIM2_Init)
    MX_TIM3_Init                             0x08003a41   Thumb Code   114  tim.o(i.MX_TIM3_Init)
    MX_TIM4_Init                             0x08003abd   Thumb Code   114  tim.o(i.MX_TIM4_Init)
    MX_TIM6_Init                             0x08003b39   Thumb Code    68  tim.o(i.MX_TIM6_Init)
    MX_TIM8_Init                             0x08003b85   Thumb Code   116  tim.o(i.MX_TIM8_Init)
    MX_TIM9_Init                             0x08003c01   Thumb Code   148  tim.o(i.MX_TIM9_Init)
    MX_USART1_UART_Init                      0x08003c9d   Thumb Code    46  usart.o(i.MX_USART1_UART_Init)
    MemManage_Handler                        0x08003cd5   Thumb Code     4  stm32f4xx_it.o(i.MemManage_Handler)
    NMI_Handler                              0x08003cd9   Thumb Code     4  stm32f4xx_it.o(i.NMI_Handler)
    PS2_AnologData                           0x08003cdd   Thumb Code     8  ps2.o(i.PS2_AnologData)
    PS2_ClearData                            0x08003ce9   Thumb Code    20  ps2.o(i.PS2_ClearData)
    PS2_Cmd                                  0x08003d01   Thumb Code   146  ps2.o(i.PS2_Cmd)
    PS2_DataKey                              0x08003d9d   Thumb Code    70  ps2.o(i.PS2_DataKey)
    PS2_EnterConfing                         0x08003df1   Thumb Code    90  ps2.o(i.PS2_EnterConfing)
    PS2_ExitConfing                          0x08003e51   Thumb Code    90  ps2.o(i.PS2_ExitConfing)
    PS2_ReadData                             0x08003eb1   Thumb Code   180  ps2.o(i.PS2_ReadData)
    PS2_SetInit                              0x08003f71   Thumb Code    28  ps2.o(i.PS2_SetInit)
    PS2_ShortPoll                            0x08003f8d   Thumb Code    66  ps2.o(i.PS2_ShortPoll)
    PS2_TurnOnAnalogMode                     0x08003fd5   Thumb Code    84  ps2.o(i.PS2_TurnOnAnalogMode)
    PWM_SET                                  0x0800402d   Thumb Code    48  encoder.o(i.PWM_SET)
    StartDefaultTask                         0x08004065   Thumb Code   108  freertos.o(i.StartDefaultTask)
    StartTask02                              0x080040ed   Thumb Code    46  freertos.o(i.StartTask02)
    StartTask03                              0x0800412d   Thumb Code    30  freertos.o(i.StartTask03)
    StartTask04                              0x08004159   Thumb Code   314  freertos.o(i.StartTask04)
    SysTick_Handler                          0x080042b1   Thumb Code    22  cmsis_os2.o(i.SysTick_Handler)
    SystemClock_Config                       0x080042c9   Thumb Code   174  main.o(i.SystemClock_Config)
    SystemInit                               0x08004381   Thumb Code    14  system_stm32f4xx.o(i.SystemInit)
    TIM8_TRG_COM_TIM14_IRQHandler            0x08004395   Thumb Code    16  stm32f4xx_it.o(i.TIM8_TRG_COM_TIM14_IRQHandler)
    TIM_Base_SetConfig                       0x080043ad   Thumb Code   170  stm32f4xx_hal_tim.o(i.TIM_Base_SetConfig)
    TIM_CCxChannelCmd                        0x08004485   Thumb Code    34  stm32f4xx_hal_tim.o(i.TIM_CCxChannelCmd)
    TIM_ETR_SetConfig                        0x080044a7   Thumb Code    22  stm32f4xx_hal_tim.o(i.TIM_ETR_SetConfig)
    TIM_OC2_SetConfig                        0x08004541   Thumb Code   114  stm32f4xx_hal_tim.o(i.TIM_OC2_SetConfig)
    UART1_Rx_IDLE_Callback                   0x080046d9   Thumb Code   120  stm32f4xx_it.o(i.UART1_Rx_IDLE_Callback)
    UART_Rx_Callback                         0x08004a4d   Thumb Code    50  stm32f4xx_it.o(i.UART_Rx_Callback)
    UART_Start_Receive_DMA                   0x08004cb1   Thumb Code   192  stm32f4xx_hal_uart.o(i.UART_Start_Receive_DMA)
    USART1_IRQHandler                        0x08004e71   Thumb Code    16  stm32f4xx_it.o(i.USART1_IRQHandler)
    UsageFault_Handler                       0x08004e85   Thumb Code     4  stm32f4xx_it.o(i.UsageFault_Handler)
    WHEEL_SPD_UPD_A                          0x08004e89   Thumb Code    30  encoder.o(i.WHEEL_SPD_UPD_A)
    WHEEL_SPD_UPD_B                          0x08004ead   Thumb Code    30  encoder.o(i.WHEEL_SPD_UPD_B)
    WHEEL_SPD_UPD_C                          0x08004ed1   Thumb Code    30  encoder.o(i.WHEEL_SPD_UPD_C)
    WHEEL_SPD_UPD_D                          0x08004ef5   Thumb Code    30  encoder.o(i.WHEEL_SPD_UPD_D)
    delay_us                                 0x08004f59   Thumb Code    84  ps2.o(i.delay_us)
    main                                     0x08004fb1   Thumb Code   138  main.o(i.main)
    osDelay                                  0x08005051   Thumb Code    30  cmsis_os2.o(i.osDelay)
    osKernelInitialize                       0x08005071   Thumb Code    38  cmsis_os2.o(i.osKernelInitialize)
    osKernelStart                            0x0800509d   Thumb Code    82  cmsis_os2.o(i.osKernelStart)
    osThreadNew                              0x080050fd   Thumb Code   184  cmsis_os2.o(i.osThreadNew)
    pvPortMalloc                             0x08005bd9   Thumb Code   306  heap_4.o(i.pvPortMalloc)
    pxPortInitialiseStack                    0x08005d25   Thumb Code    38  port.o(i.pxPortInitialiseStack)
    uxListRemove                             0x08005d51   Thumb Code    40  list.o(i.uxListRemove)
    vApplicationGetIdleTaskMemory            0x08005d79   Thumb Code    14  cmsis_os2.o(i.vApplicationGetIdleTaskMemory)
    vApplicationGetTimerTaskMemory           0x08005d91   Thumb Code    16  cmsis_os2.o(i.vApplicationGetTimerTaskMemory)
    vListInitialise                          0x08005da9   Thumb Code    26  list.o(i.vListInitialise)
    vListInitialiseItem                      0x08005dc3   Thumb Code     6  list.o(i.vListInitialiseItem)
    vListInsert                              0x08005dc9   Thumb Code    52  list.o(i.vListInsert)
    vListInsertEnd                           0x08005dfd   Thumb Code    24  list.o(i.vListInsertEnd)
    vPortEnterCritical                       0x08005e15   Thumb Code    76  port.o(i.vPortEnterCritical)
    vPortExitCritical                        0x08005e69   Thumb Code    56  port.o(i.vPortExitCritical)
    vPortFree                                0x08005ea5   Thumb Code   150  heap_4.o(i.vPortFree)
    vPortSetupTimerInterrupt                 0x08005f49   Thumb Code    36  port.o(i.vPortSetupTimerInterrupt)
    vPortValidateInterruptPriority           0x08005f71   Thumb Code   106  port.o(i.vPortValidateInterruptPriority)
    vQueueAddToRegistry                      0x08005fe9   Thumb Code    38  queue.o(i.vQueueAddToRegistry)
    vQueueWaitForMessageRestricted           0x08006015   Thumb Code    74  queue.o(i.vQueueWaitForMessageRestricted)
    vTaskDelay                               0x08006061   Thumb Code    82  tasks.o(i.vTaskDelay)
    vTaskInternalSetTimeOutState             0x080060bd   Thumb Code    14  tasks.o(i.vTaskInternalSetTimeOutState)
    vTaskMissedYield                         0x080060d5   Thumb Code     8  tasks.o(i.vTaskMissedYield)
    vTaskPlaceOnEventList                    0x080060e1   Thumb Code    52  tasks.o(i.vTaskPlaceOnEventList)
    vTaskPlaceOnEventListRestricted          0x08006119   Thumb Code    60  tasks.o(i.vTaskPlaceOnEventListRestricted)
    vTaskStartScheduler                      0x08006159   Thumb Code   156  tasks.o(i.vTaskStartScheduler)
    vTaskSuspendAll                          0x08006211   Thumb Code    12  tasks.o(i.vTaskSuspendAll)
    vTaskSwitchContext                       0x08006221   Thumb Code   122  tasks.o(i.vTaskSwitchContext)
    xPortStartScheduler                      0x080062b1   Thumb Code   330  port.o(i.xPortStartScheduler)
    xPortSysTickHandler                      0x08006419   Thumb Code    46  port.o(i.xPortSysTickHandler)
    xQueueGenericCreateStatic                0x0800644d   Thumb Code   224  queue.o(i.xQueueGenericCreateStatic)
    xQueueGenericReset                       0x0800652d   Thumb Code   146  queue.o(i.xQueueGenericReset)
    xQueueGenericSend                        0x080065c5   Thumb Code   420  queue.o(i.xQueueGenericSend)
    xQueueGenericSendFromISR                 0x0800676d   Thumb Code   252  queue.o(i.xQueueGenericSendFromISR)
    xQueueReceive                            0x08006869   Thumb Code   356  queue.o(i.xQueueReceive)
    xTaskCheckForTimeOut                     0x080069d1   Thumb Code   132  tasks.o(i.xTaskCheckForTimeOut)
    xTaskCreate                              0x08006a5d   Thumb Code   100  tasks.o(i.xTaskCreate)
    xTaskCreateStatic                        0x08006ac1   Thumb Code   186  tasks.o(i.xTaskCreateStatic)
    xTaskGetSchedulerState                   0x08006b7d   Thumb Code    24  tasks.o(i.xTaskGetSchedulerState)
    xTaskGetTickCount                        0x08006b9d   Thumb Code     6  tasks.o(i.xTaskGetTickCount)
    xTaskIncrementTick                       0x08006ba9   Thumb Code   280  tasks.o(i.xTaskIncrementTick)
    xTaskPriorityDisinherit                  0x08006ced   Thumb Code   152  tasks.o(i.xTaskPriorityDisinherit)
    xTaskRemoveFromEventList                 0x08006d91   Thumb Code   126  tasks.o(i.xTaskRemoveFromEventList)
    xTaskResumeAll                           0x08006e29   Thumb Code   222  tasks.o(i.xTaskResumeAll)
    xTimerCreateTimerTask                    0x08006f2d   Thumb Code   100  timers.o(i.xTimerCreateTimerTask)
    xTimerGenericCommand                     0x08006fa5   Thumb Code   128  timers.o(i.xTimerGenericCommand)
    __aeabi_dadd                             0x08007029   Thumb Code     0  daddsub_clz.o(x$fpl$dadd)
    _dadd                                    0x08007029   Thumb Code   332  daddsub_clz.o(x$fpl$dadd)
    __aeabi_d2iz                             0x08007179   Thumb Code     0  dfix.o(x$fpl$dfix)
    _dfix                                    0x08007179   Thumb Code    94  dfix.o(x$fpl$dfix)
    __aeabi_i2d                              0x080071d7   Thumb Code     0  dflt_clz.o(x$fpl$dflt)
    _dflt                                    0x080071d7   Thumb Code    46  dflt_clz.o(x$fpl$dflt)
    __aeabi_dmul                             0x08007205   Thumb Code     0  dmul.o(x$fpl$dmul)
    _dmul                                    0x08007205   Thumb Code   332  dmul.o(x$fpl$dmul)
    __fpl_dnaninf                            0x08007359   Thumb Code   156  dnaninf.o(x$fpl$dnaninf)
    __fpl_dretinf                            0x080073f5   Thumb Code    12  dretinf.o(x$fpl$dretinf)
    __aeabi_dsub                             0x08007401   Thumb Code     0  daddsub_clz.o(x$fpl$dsub)
    _dsub                                    0x08007401   Thumb Code   464  daddsub_clz.o(x$fpl$dsub)
    _fp_init                                 0x080075d5   Thumb Code    10  fpinit.o(x$fpl$fpinit)
    __fplib_config_fpu_vfp                   0x080075dd   Thumb Code     0  fpinit.o(x$fpl$fpinit)
    __fplib_config_pureend_doubles           0x080075dd   Thumb Code     0  fpinit.o(x$fpl$fpinit)
    __I$use$fp                               0x080075de   Number         0  usenofp.o(x$fpl$usenofp)
    defaultTask_attributes                   0x080075e0   Data          36  freertos.o(.constdata)
    Tsk_WHL_UPD_attributes                   0x08007604   Data          36  freertos.o(.constdata)
    PWM_GEN_attributes                       0x08007628   Data          36  freertos.o(.constdata)
    Servo_control_attributes                 0x0800764c   Data          36  freertos.o(.constdata)
    AHBPrescTable                            0x08007678   Data          16  system_stm32f4xx.o(.constdata)
    APBPrescTable                            0x08007688   Data           8  system_stm32f4xx.o(.constdata)
    Region$$Table$$Base                      0x080076c0   Number         0  anon$$obj.o(Region$$Table)
    Region$$Table$$Limit                     0x080076e0   Number         0  anon$$obj.o(Region$$Table)
    A                                        0x20000000   Data           4  encoder.o(.data)
    B                                        0x20000004   Data           4  encoder.o(.data)
    C                                        0x20000008   Data           4  encoder.o(.data)
    D                                        0x2000000c   Data           4  encoder.o(.data)
    V_A                                      0x20000010   Data           4  encoder.o(.data)
    V_B                                      0x20000014   Data           4  encoder.o(.data)
    V_C                                      0x20000018   Data           4  encoder.o(.data)
    V_D                                      0x2000001c   Data           4  encoder.o(.data)
    kp                                       0x20000020   Data           8  encoder.o(.data)
    ki                                       0x20000028   Data           8  encoder.o(.data)
    kd                                       0x20000030   Data           8  encoder.o(.data)
    Handkey                                  0x20000078   Data           2  ps2.o(.data)
    Comd                                     0x2000007a   Data           2  ps2.o(.data)
    MASK                                     0x2000007c   Data          32  ps2.o(.data)
    PS2_LX                                   0x2000009c   Data           1  freertos.o(.data)
    PS2_LY                                   0x2000009d   Data           1  freertos.o(.data)
    PS2_RX                                   0x2000009e   Data           1  freertos.o(.data)
    PS2_RY                                   0x2000009f   Data           1  freertos.o(.data)
    PS2_KEY                                  0x200000a0   Data           1  freertos.o(.data)
    angle1                                   0x200000a2   Data           2  freertos.o(.data)
    angle2                                   0x200000a4   Data           2  freertos.o(.data)
    defaultTaskHandle                        0x200000a8   Data           4  freertos.o(.data)
    Tsk_WHL_UPDHandle                        0x200000ac   Data           4  freertos.o(.data)
    PWM_GENHandle                            0x200000b0   Data           4  freertos.o(.data)
    Servo_controlHandle                      0x200000b4   Data           4  freertos.o(.data)
    Kp                                       0x200000b8   Data           4  stm32f4xx_it.o(.data)
    Ki                                       0x200000bc   Data           4  stm32f4xx_it.o(.data)
    Kd                                       0x200000c0   Data           4  stm32f4xx_it.o(.data)
    AngleV                                   0x200000c4   Data           2  stm32f4xx_it.o(.data)
    AngleP                                   0x200000c6   Data           2  stm32f4xx_it.o(.data)
    imax                                     0x200000c8   Data           4  stm32f4xx_it.o(.data)
    state                                    0x200000cc   Data           1  stm32f4xx_it.o(.data)
    Uart1RxBuffLen                           0x200000ce   Data           2  stm32f4xx_it.o(.data)
    uwTick                                   0x200000e0   Data           4  stm32f4xx_hal.o(.data)
    uwTickPrio                               0x200000e4   Data           4  stm32f4xx_hal.o(.data)
    uwTickFreq                               0x200000e8   Data           1  stm32f4xx_hal.o(.data)
    SystemCoreClock                          0x200000ec   Data           4  system_stm32f4xx.o(.data)
    pxCurrentTCB                             0x200000f0   Data           4  tasks.o(.data)
    Data                                     0x20000170   Data           9  ps2.o(.bss)
    htim1                                    0x2000017c   Data          72  tim.o(.bss)
    htim2                                    0x200001c4   Data          72  tim.o(.bss)
    htim3                                    0x2000020c   Data          72  tim.o(.bss)
    htim4                                    0x20000254   Data          72  tim.o(.bss)
    htim6                                    0x2000029c   Data          72  tim.o(.bss)
    htim8                                    0x200002e4   Data          72  tim.o(.bss)
    htim9                                    0x2000032c   Data          72  tim.o(.bss)
    htim12                                   0x20000374   Data          72  tim.o(.bss)
    huart1                                   0x200003bc   Data          68  usart.o(.bss)
    hdma_usart1_rx                           0x20000400   Data          96  usart.o(.bss)
    hdma_usart1_tx                           0x20000460   Data          96  usart.o(.bss)
    Uart1RxBuff                              0x200004c0   Data         255  stm32f4xx_it.o(.bss)
    Uart1TxBuff                              0x200005bf   Data         255  stm32f4xx_it.o(.bss)
    htim14                                   0x200006c0   Data          72  stm32f4xx_hal_timebase_tim.o(.bss)
    xQueueRegistry                           0x20000708   Data          64  queue.o(.bss)
    __libspace_start                         0x20004fdc   Data          96  libspace.o(.bss)
    __temporary_stack_top$libspace           0x2000503c   Data           0  libspace.o(.bss)



==============================================================================

Memory Map of the image

  Image Entry point : 0x08000189

  Load Region LR_IROM1 (Base: 0x08000000, Size: 0x00007850, Max: 0x00080000, ABSOLUTE, COMPRESSED[0x00007738])

    Execution Region ER_IROM1 (Exec base: 0x08000000, Load base: 0x08000000, Size: 0x000076e0, Max: 0x00080000, ABSOLUTE)

    Exec Addr    Load Addr    Size         Type   Attr      Idx    E Section Name        Object

    0x08000000   0x08000000   0x00000188   Data   RO            3    RESET               startup_stm32f407xx.o
    0x08000188   0x08000188   0x00000008   Code   RO         5244  * !!!main             c_w.l(__main.o)
    0x08000190   0x08000190   0x00000034   Code   RO         5442    !!!scatter          c_w.l(__scatter.o)
    0x080001c4   0x080001c4   0x0000005a   Code   RO         5440    !!dczerorl2         c_w.l(__dczerorl2.o)
    0x0800021e   0x0800021e   0x00000002   PAD
    0x08000220   0x08000220   0x0000001c   Code   RO         5444    !!handler_zi        c_w.l(__scatter_zi.o)
    0x0800023c   0x0800023c   0x00000002   Code   RO         5308    .ARM.Collect$$libinit$$00000000  c_w.l(libinit.o)
    0x0800023e   0x0800023e   0x00000004   Code   RO         5320    .ARM.Collect$$libinit$$00000001  c_w.l(libinit2.o)
    0x08000242   0x08000242   0x00000000   Code   RO         5323    .ARM.Collect$$libinit$$00000004  c_w.l(libinit2.o)
    0x08000242   0x08000242   0x00000000   Code   RO         5326    .ARM.Collect$$libinit$$0000000A  c_w.l(libinit2.o)
    0x08000242   0x08000242   0x00000000   Code   RO         5328    .ARM.Collect$$libinit$$0000000C  c_w.l(libinit2.o)
    0x08000242   0x08000242   0x00000000   Code   RO         5330    .ARM.Collect$$libinit$$0000000E  c_w.l(libinit2.o)
    0x08000242   0x08000242   0x00000000   Code   RO         5333    .ARM.Collect$$libinit$$00000011  c_w.l(libinit2.o)
    0x08000242   0x08000242   0x00000000   Code   RO         5335    .ARM.Collect$$libinit$$00000013  c_w.l(libinit2.o)
    0x08000242   0x08000242   0x00000000   Code   RO         5337    .ARM.Collect$$libinit$$00000015  c_w.l(libinit2.o)
    0x08000242   0x08000242   0x00000000   Code   RO         5339    .ARM.Collect$$libinit$$00000017  c_w.l(libinit2.o)
    0x08000242   0x08000242   0x00000000   Code   RO         5341    .ARM.Collect$$libinit$$00000019  c_w.l(libinit2.o)
    0x08000242   0x08000242   0x00000000   Code   RO         5343    .ARM.Collect$$libinit$$0000001B  c_w.l(libinit2.o)
    0x08000242   0x08000242   0x00000000   Code   RO         5345    .ARM.Collect$$libinit$$0000001D  c_w.l(libinit2.o)
    0x08000242   0x08000242   0x00000000   Code   RO         5347    .ARM.Collect$$libinit$$0000001F  c_w.l(libinit2.o)
    0x08000242   0x08000242   0x00000000   Code   RO         5349    .ARM.Collect$$libinit$$00000021  c_w.l(libinit2.o)
    0x08000242   0x08000242   0x00000000   Code   RO         5351    .ARM.Collect$$libinit$$00000023  c_w.l(libinit2.o)
    0x08000242   0x08000242   0x00000000   Code   RO         5353    .ARM.Collect$$libinit$$00000025  c_w.l(libinit2.o)
    0x08000242   0x08000242   0x00000000   Code   RO         5357    .ARM.Collect$$libinit$$0000002C  c_w.l(libinit2.o)
    0x08000242   0x08000242   0x00000000   Code   RO         5359    .ARM.Collect$$libinit$$0000002E  c_w.l(libinit2.o)
    0x08000242   0x08000242   0x00000000   Code   RO         5361    .ARM.Collect$$libinit$$00000030  c_w.l(libinit2.o)
    0x08000242   0x08000242   0x00000000   Code   RO         5363    .ARM.Collect$$libinit$$00000032  c_w.l(libinit2.o)
    0x08000242   0x08000242   0x00000002   Code   RO         5364    .ARM.Collect$$libinit$$00000033  c_w.l(libinit2.o)
    0x08000244   0x08000244   0x00000002   Code   RO         5395    .ARM.Collect$$libshutdown$$00000000  c_w.l(libshutdown.o)
    0x08000246   0x08000246   0x00000000   Code   RO         5421    .ARM.Collect$$libshutdown$$00000002  c_w.l(libshutdown2.o)
    0x08000246   0x08000246   0x00000000   Code   RO         5423    .ARM.Collect$$libshutdown$$00000004  c_w.l(libshutdown2.o)
    0x08000246   0x08000246   0x00000000   Code   RO         5425    .ARM.Collect$$libshutdown$$00000006  c_w.l(libshutdown2.o)
    0x08000246   0x08000246   0x00000000   Code   RO         5428    .ARM.Collect$$libshutdown$$00000009  c_w.l(libshutdown2.o)
    0x08000246   0x08000246   0x00000000   Code   RO         5431    .ARM.Collect$$libshutdown$$0000000C  c_w.l(libshutdown2.o)
    0x08000246   0x08000246   0x00000000   Code   RO         5433    .ARM.Collect$$libshutdown$$0000000E  c_w.l(libshutdown2.o)
    0x08000246   0x08000246   0x00000000   Code   RO         5436    .ARM.Collect$$libshutdown$$00000011  c_w.l(libshutdown2.o)
    0x08000246   0x08000246   0x00000002   Code   RO         5437    .ARM.Collect$$libshutdown$$00000012  c_w.l(libshutdown2.o)
    0x08000248   0x08000248   0x00000000   Code   RO         5264    .ARM.Collect$$rtentry$$00000000  c_w.l(__rtentry.o)
    0x08000248   0x08000248   0x00000000   Code   RO         5279    .ARM.Collect$$rtentry$$00000002  c_w.l(__rtentry2.o)
    0x08000248   0x08000248   0x00000006   Code   RO         5291    .ARM.Collect$$rtentry$$00000004  c_w.l(__rtentry4.o)
    0x0800024e   0x0800024e   0x00000000   Code   RO         5281    .ARM.Collect$$rtentry$$00000009  c_w.l(__rtentry2.o)
    0x0800024e   0x0800024e   0x00000004   Code   RO         5282    .ARM.Collect$$rtentry$$0000000A  c_w.l(__rtentry2.o)
    0x08000252   0x08000252   0x00000000   Code   RO         5284    .ARM.Collect$$rtentry$$0000000C  c_w.l(__rtentry2.o)
    0x08000252   0x08000252   0x00000008   Code   RO         5285    .ARM.Collect$$rtentry$$0000000D  c_w.l(__rtentry2.o)
    0x0800025a   0x0800025a   0x00000002   Code   RO         5312    .ARM.Collect$$rtexit$$00000000  c_w.l(rtexit.o)
    0x0800025c   0x0800025c   0x00000000   Code   RO         5368    .ARM.Collect$$rtexit$$00000002  c_w.l(rtexit2.o)
    0x0800025c   0x0800025c   0x00000004   Code   RO         5369    .ARM.Collect$$rtexit$$00000003  c_w.l(rtexit2.o)
    0x08000260   0x08000260   0x00000006   Code   RO         5370    .ARM.Collect$$rtexit$$00000004  c_w.l(rtexit2.o)
    0x08000266   0x08000266   0x00000002   PAD
    0x08000268   0x08000268   0x000000be   Code   RO         5153    .emb_text           port.o
    0x08000326   0x08000326   0x00000002   PAD
    0x08000328   0x08000328   0x00000040   Code   RO            4    .text               startup_stm32f407xx.o
    0x08000368   0x08000368   0x000000ee   Code   RO         5232    .text               c_w.l(lludivv7m.o)
    0x08000456   0x08000456   0x0000008a   Code   RO         5234    .text               c_w.l(rt_memcpy_v6.o)
    0x080004e0   0x080004e0   0x00000010   Code   RO         5238    .text               c_w.l(aeabi_memset.o)
    0x080004f0   0x080004f0   0x0000004e   Code   RO         5240    .text               c_w.l(rt_memclr_w.o)
    0x0800053e   0x0800053e   0x00000006   Code   RO         5242    .text               c_w.l(heapauxi.o)
    0x08000544   0x08000544   0x00000064   Code   RO         5269    .text               c_w.l(rt_memcpy_w.o)
    0x080005a8   0x080005a8   0x00000044   Code   RO         5271    .text               c_w.l(rt_memclr.o)
    0x080005ec   0x080005ec   0x0000004a   Code   RO         5295    .text               c_w.l(sys_stackheap_outer.o)
    0x08000636   0x08000636   0x00000012   Code   RO         5297    .text               c_w.l(exit.o)
    0x08000648   0x08000648   0x00000008   Code   RO         5309    .text               c_w.l(libspace.o)
    0x08000650   0x08000650   0x0000000c   Code   RO         5365    .text               c_w.l(sys_exit.o)
    0x0800065c   0x0800065c   0x00000002   Code   RO         5384    .text               c_w.l(use_no_semi.o)
    0x0800065e   0x0800065e   0x00000000   Code   RO         5386    .text               c_w.l(indicate_semi.o)
    0x0800065e   0x0800065e   0x00000002   PAD
    0x08000660   0x08000660   0x000000b0   Code   RO          675    i.Angle_PID_P       stm32f4xx_it.o
    0x08000710   0x08000710   0x000000b0   Code   RO          676    i.Angle_PID_V       stm32f4xx_it.o
    0x080007c0   0x080007c0   0x00000664   Code   RO           13    i.AutoCtrl          encoder.o
    0x08000e24   0x08000e24   0x00000004   Code   RO          677    i.BusFault_Handler  stm32f4xx_it.o
    0x08000e28   0x08000e28   0x00000030   Code   RO           14    i.CNT_init          encoder.o
    0x08000e58   0x08000e58   0x00000010   Code   RO          678    i.DMA2_Stream2_IRQHandler  stm32f4xx_it.o
    0x08000e68   0x08000e68   0x00000010   Code   RO          679    i.DMA2_Stream7_IRQHandler  stm32f4xx_it.o
    0x08000e78   0x08000e78   0x00000034   Code   RO         1358    i.DMA_CalcBaseAndBitshift  stm32f4xx_hal_dma.o
    0x08000eac   0x08000eac   0x000000aa   Code   RO         1359    i.DMA_CheckFifoParam  stm32f4xx_hal_dma.o
    0x08000f56   0x08000f56   0x0000002c   Code   RO         1360    i.DMA_SetConfig     stm32f4xx_hal_dma.o
    0x08000f82   0x08000f82   0x00000002   Code   RO          680    i.DebugMon_Handler  stm32f4xx_it.o
    0x08000f84   0x08000f84   0x00000006   Code   RO          353    i.Error_Handler     main.o
    0x08000f8a   0x08000f8a   0x000000ac   Code   RO         1361    i.HAL_DMA_Abort     stm32f4xx_hal_dma.o
    0x08001036   0x08001036   0x00000028   Code   RO         1362    i.HAL_DMA_Abort_IT  stm32f4xx_hal_dma.o
    0x0800105e   0x0800105e   0x00000002   PAD
    0x08001060   0x08001060   0x00000240   Code   RO         1366    i.HAL_DMA_IRQHandler  stm32f4xx_hal_dma.o
    0x080012a0   0x080012a0   0x000000ec   Code   RO         1367    i.HAL_DMA_Init      stm32f4xx_hal_dma.o
    0x0800138c   0x0800138c   0x00000092   Code   RO         1371    i.HAL_DMA_Start_IT  stm32f4xx_hal_dma.o
    0x0800141e   0x0800141e   0x00000002   PAD
    0x08001420   0x08001420   0x00000028   Code   RO         1785    i.HAL_Delay         stm32f4xx_hal.o
    0x08001448   0x08001448   0x000001f0   Code   RO         1254    i.HAL_GPIO_Init     stm32f4xx_hal_gpio.o
    0x08001638   0x08001638   0x00000010   Code   RO         1256    i.HAL_GPIO_ReadPin  stm32f4xx_hal_gpio.o
    0x08001648   0x08001648   0x0000000c   Code   RO         1258    i.HAL_GPIO_WritePin  stm32f4xx_hal_gpio.o
    0x08001654   0x08001654   0x0000000c   Code   RO         1791    i.HAL_GetTick       stm32f4xx_hal.o
    0x08001660   0x08001660   0x00000018   Code   RO         1797    i.HAL_IncTick       stm32f4xx_hal.o
    0x08001678   0x08001678   0x0000003c   Code   RO         1798    i.HAL_Init          stm32f4xx_hal.o
    0x080016b4   0x080016b4   0x0000008c   Code   RO          815    i.HAL_InitTick      stm32f4xx_hal_timebase_tim.o
    0x08001740   0x08001740   0x00000054   Code   RO          791    i.HAL_MspInit       stm32f4xx_hal_msp.o
    0x08001794   0x08001794   0x00000020   Code   RO         1643    i.HAL_NVIC_EnableIRQ  stm32f4xx_hal_cortex.o
    0x080017b4   0x080017b4   0x0000007c   Code   RO         1649    i.HAL_NVIC_SetPriority  stm32f4xx_hal_cortex.o
    0x08001830   0x08001830   0x00000028   Code   RO         1650    i.HAL_NVIC_SetPriorityGrouping  stm32f4xx_hal_cortex.o
    0x08001858   0x08001858   0x00000184   Code   RO          855    i.HAL_RCC_ClockConfig  stm32f4xx_hal_rcc.o
    0x080019dc   0x080019dc   0x00000044   Code   RO          859    i.HAL_RCC_GetClockConfig  stm32f4xx_hal_rcc.o
    0x08001a20   0x08001a20   0x0000000c   Code   RO          860    i.HAL_RCC_GetHCLKFreq  stm32f4xx_hal_rcc.o
    0x08001a2c   0x08001a2c   0x00000020   Code   RO          862    i.HAL_RCC_GetPCLK1Freq  stm32f4xx_hal_rcc.o
    0x08001a4c   0x08001a4c   0x00000020   Code   RO          863    i.HAL_RCC_GetPCLK2Freq  stm32f4xx_hal_rcc.o
    0x08001a6c   0x08001a6c   0x000000b0   Code   RO          864    i.HAL_RCC_GetSysClockFreq  stm32f4xx_hal_rcc.o
    0x08001b1c   0x08001b1c   0x0000049c   Code   RO          867    i.HAL_RCC_OscConfig  stm32f4xx_hal_rcc.o
    0x08001fb8   0x08001fb8   0x00000002   Code   RO         2753    i.HAL_TIMEx_BreakCallback  stm32f4xx_hal_tim_ex.o
    0x08001fba   0x08001fba   0x00000002   Code   RO         2754    i.HAL_TIMEx_CommutCallback  stm32f4xx_hal_tim_ex.o
    0x08001fbc   0x08001fbc   0x00000074   Code   RO         2756    i.HAL_TIMEx_ConfigBreakDeadTime  stm32f4xx_hal_tim_ex.o
    0x08002030   0x08002030   0x000000b4   Code   RO         2772    i.HAL_TIMEx_MasterConfigSynchronization  stm32f4xx_hal_tim_ex.o
    0x080020e4   0x080020e4   0x00000066   Code   RO         2038    i.HAL_TIM_Base_Init  stm32f4xx_hal_tim.o
    0x0800214a   0x0800214a   0x00000002   PAD
    0x0800214c   0x0800214c   0x00000090   Code   RO          520    i.HAL_TIM_Base_MspInit  tim.o
    0x080021dc   0x080021dc   0x000000a8   Code   RO         2043    i.HAL_TIM_Base_Start_IT  stm32f4xx_hal_tim.o
    0x08002284   0x08002284   0x0000010c   Code   RO         2047    i.HAL_TIM_ConfigClockSource  stm32f4xx_hal_tim.o
    0x08002390   0x08002390   0x000000c8   Code   RO         2059    i.HAL_TIM_Encoder_Init  stm32f4xx_hal_tim.o
    0x08002458   0x08002458   0x00000220   Code   RO          522    i.HAL_TIM_Encoder_MspInit  tim.o
    0x08002678   0x08002678   0x00000002   Code   RO         2072    i.HAL_TIM_IC_CaptureCallback  stm32f4xx_hal_tim.o
    0x0800267a   0x0800267a   0x00000196   Code   RO         2086    i.HAL_TIM_IRQHandler  stm32f4xx_hal_tim.o
    0x08002810   0x08002810   0x000000f8   Code   RO          523    i.HAL_TIM_MspPostInit  tim.o
    0x08002908   0x08002908   0x00000002   Code   RO         2089    i.HAL_TIM_OC_DelayElapsedCallback  stm32f4xx_hal_tim.o
    0x0800290a   0x0800290a   0x00000104   Code   RO         2110    i.HAL_TIM_PWM_ConfigChannel  stm32f4xx_hal_tim.o
    0x08002a0e   0x08002a0e   0x00000066   Code   RO         2113    i.HAL_TIM_PWM_Init  stm32f4xx_hal_tim.o
    0x08002a74   0x08002a74   0x00000034   Code   RO          525    i.HAL_TIM_PWM_MspInit  tim.o
    0x08002aa8   0x08002aa8   0x00000002   Code   RO         2116    i.HAL_TIM_PWM_PulseFinishedCallback  stm32f4xx_hal_tim.o
    0x08002aaa   0x08002aaa   0x00000002   PAD
    0x08002aac   0x08002aac   0x0000010c   Code   RO         2118    i.HAL_TIM_PWM_Start  stm32f4xx_hal_tim.o
    0x08002bb8   0x08002bb8   0x00000018   Code   RO          354    i.HAL_TIM_PeriodElapsedCallback  main.o
    0x08002bd0   0x08002bd0   0x00000002   Code   RO         2129    i.HAL_TIM_TriggerCallback  stm32f4xx_hal_tim.o
    0x08002bd2   0x08002bd2   0x00000002   Code   RO         3031    i.HAL_UARTEx_RxEventCallback  stm32f4xx_hal_uart.o
    0x08002bd4   0x08002bd4   0x0000008a   Code   RO         3043    i.HAL_UART_DMAStop  stm32f4xx_hal_uart.o
    0x08002c5e   0x08002c5e   0x00000002   Code   RO         3045    i.HAL_UART_ErrorCallback  stm32f4xx_hal_uart.o
    0x08002c60   0x08002c60   0x000002e0   Code   RO         3048    i.HAL_UART_IRQHandler  stm32f4xx_hal_uart.o
    0x08002f40   0x08002f40   0x00000072   Code   RO         3049    i.HAL_UART_Init     stm32f4xx_hal_uart.o
    0x08002fb2   0x08002fb2   0x00000002   PAD
    0x08002fb4   0x08002fb4   0x0000011c   Code   RO          634    i.HAL_UART_MspInit  usart.o
    0x080030d0   0x080030d0   0x00000042   Code   RO         3053    i.HAL_UART_Receive_DMA  stm32f4xx_hal_uart.o
    0x08003112   0x08003112   0x00000002   Code   RO         3055    i.HAL_UART_RxCpltCallback  stm32f4xx_hal_uart.o
    0x08003114   0x08003114   0x00000002   Code   RO         3056    i.HAL_UART_RxHalfCpltCallback  stm32f4xx_hal_uart.o
    0x08003116   0x08003116   0x000000d2   Code   RO         3057    i.HAL_UART_Transmit  stm32f4xx_hal_uart.o
    0x080031e8   0x080031e8   0x00000002   Code   RO         3060    i.HAL_UART_TxCpltCallback  stm32f4xx_hal_uart.o
    0x080031ea   0x080031ea   0x00000004   Code   RO          681    i.HardFault_Handler  stm32f4xx_it.o
    0x080031ee   0x080031ee   0x00000002   PAD
    0x080031f0   0x080031f0   0x00000108   Code   RO           15    i.Incremental_PID_calc_A  encoder.o
    0x080032f8   0x080032f8   0x00000108   Code   RO           16    i.Incremental_PID_calc_B  encoder.o
    0x08003400   0x08003400   0x00000108   Code   RO           17    i.Incremental_PID_calc_C  encoder.o
    0x08003508   0x08003508   0x00000108   Code   RO           18    i.Incremental_PID_calc_D  encoder.o
    0x08003610   0x08003610   0x00000048   Code   RO          495    i.MX_DMA_Init       dma.o
    0x08003658   0x08003658   0x0000006c   Code   RO          426    i.MX_FREERTOS_Init  freertos.o
    0x080036c4   0x080036c4   0x00000188   Code   RO          402    i.MX_GPIO_Init      gpio.o
    0x0800384c   0x0800384c   0x0000009c   Code   RO          526    i.MX_TIM12_Init     tim.o
    0x080038e8   0x080038e8   0x000000e0   Code   RO          527    i.MX_TIM1_Init      tim.o
    0x080039c8   0x080039c8   0x00000078   Code   RO          528    i.MX_TIM2_Init      tim.o
    0x08003a40   0x08003a40   0x0000007c   Code   RO          529    i.MX_TIM3_Init      tim.o
    0x08003abc   0x08003abc   0x0000007c   Code   RO          530    i.MX_TIM4_Init      tim.o
    0x08003b38   0x08003b38   0x0000004c   Code   RO          531    i.MX_TIM6_Init      tim.o
    0x08003b84   0x08003b84   0x0000007c   Code   RO          532    i.MX_TIM8_Init      tim.o
    0x08003c00   0x08003c00   0x0000009c   Code   RO          533    i.MX_TIM9_Init      tim.o
    0x08003c9c   0x08003c9c   0x00000038   Code   RO          635    i.MX_USART1_UART_Init  usart.o
    0x08003cd4   0x08003cd4   0x00000004   Code   RO          682    i.MemManage_Handler  stm32f4xx_it.o
    0x08003cd8   0x08003cd8   0x00000004   Code   RO          683    i.NMI_Handler       stm32f4xx_it.o
    0x08003cdc   0x08003cdc   0x0000000c   Code   RO          244    i.PS2_AnologData    ps2.o
    0x08003ce8   0x08003ce8   0x00000018   Code   RO          245    i.PS2_ClearData     ps2.o
    0x08003d00   0x08003d00   0x0000009c   Code   RO          246    i.PS2_Cmd           ps2.o
    0x08003d9c   0x08003d9c   0x00000054   Code   RO          247    i.PS2_DataKey       ps2.o
    0x08003df0   0x08003df0   0x00000060   Code   RO          248    i.PS2_EnterConfing  ps2.o
    0x08003e50   0x08003e50   0x00000060   Code   RO          249    i.PS2_ExitConfing   ps2.o
    0x08003eb0   0x08003eb0   0x000000c0   Code   RO          250    i.PS2_ReadData      ps2.o
    0x08003f70   0x08003f70   0x0000001c   Code   RO          252    i.PS2_SetInit       ps2.o
    0x08003f8c   0x08003f8c   0x00000048   Code   RO          253    i.PS2_ShortPoll     ps2.o
    0x08003fd4   0x08003fd4   0x00000058   Code   RO          254    i.PS2_TurnOnAnalogMode  ps2.o
    0x0800402c   0x0800402c   0x00000038   Code   RO           19    i.PWM_SET           encoder.o
    0x08004064   0x08004064   0x00000088   Code   RO          427    i.StartDefaultTask  freertos.o
    0x080040ec   0x080040ec   0x00000040   Code   RO          428    i.StartTask02       freertos.o
    0x0800412c   0x0800412c   0x0000002c   Code   RO          429    i.StartTask03       freertos.o
    0x08004158   0x08004158   0x00000158   Code   RO          430    i.StartTask04       freertos.o
    0x080042b0   0x080042b0   0x00000016   Code   RO         4568    i.SysTick_Handler   cmsis_os2.o
    0x080042c6   0x080042c6   0x00000002   PAD
    0x080042c8   0x080042c8   0x000000b8   Code   RO          355    i.SystemClock_Config  main.o
    0x08004380   0x08004380   0x00000014   Code   RO         3388    i.SystemInit        system_stm32f4xx.o
    0x08004394   0x08004394   0x00000018   Code   RO          684    i.TIM8_TRG_COM_TIM14_IRQHandler  stm32f4xx_it.o
    0x080043ac   0x080043ac   0x000000d8   Code   RO         2131    i.TIM_Base_SetConfig  stm32f4xx_hal_tim.o
    0x08004484   0x08004484   0x00000022   Code   RO         2132    i.TIM_CCxChannelCmd  stm32f4xx_hal_tim.o
    0x080044a6   0x080044a6   0x00000016   Code   RO         2142    i.TIM_ETR_SetConfig  stm32f4xx_hal_tim.o
    0x080044bc   0x080044bc   0x00000012   Code   RO         2143    i.TIM_ITRx_SetConfig  stm32f4xx_hal_tim.o
    0x080044ce   0x080044ce   0x00000002   PAD
    0x080044d0   0x080044d0   0x00000070   Code   RO         2144    i.TIM_OC1_SetConfig  stm32f4xx_hal_tim.o
    0x08004540   0x08004540   0x0000007c   Code   RO         2145    i.TIM_OC2_SetConfig  stm32f4xx_hal_tim.o
    0x080045bc   0x080045bc   0x00000078   Code   RO         2146    i.TIM_OC3_SetConfig  stm32f4xx_hal_tim.o
    0x08004634   0x08004634   0x00000054   Code   RO         2147    i.TIM_OC4_SetConfig  stm32f4xx_hal_tim.o
    0x08004688   0x08004688   0x00000026   Code   RO         2149    i.TIM_TI1_ConfigInputStage  stm32f4xx_hal_tim.o
    0x080046ae   0x080046ae   0x00000028   Code   RO         2151    i.TIM_TI2_ConfigInputStage  stm32f4xx_hal_tim.o
    0x080046d6   0x080046d6   0x00000002   PAD
    0x080046d8   0x080046d8   0x00000094   Code   RO          685    i.UART1_Rx_IDLE_Callback  stm32f4xx_it.o
    0x0800476c   0x0800476c   0x00000014   Code   RO         3062    i.UART_DMAAbortOnError  stm32f4xx_hal_uart.o
    0x08004780   0x08004780   0x00000050   Code   RO         3063    i.UART_DMAError     stm32f4xx_hal_uart.o
    0x080047d0   0x080047d0   0x000000b0   Code   RO         3064    i.UART_DMAReceiveCplt  stm32f4xx_hal_uart.o
    0x08004880   0x08004880   0x00000020   Code   RO         3066    i.UART_DMARxHalfCplt  stm32f4xx_hal_uart.o
    0x080048a0   0x080048a0   0x0000006c   Code   RO         3072    i.UART_EndRxTransfer  stm32f4xx_hal_uart.o
    0x0800490c   0x0800490c   0x00000020   Code   RO         3073    i.UART_EndTransmit_IT  stm32f4xx_hal_uart.o
    0x0800492c   0x0800492c   0x00000026   Code   RO         3074    i.UART_EndTxTransfer  stm32f4xx_hal_uart.o
    0x08004952   0x08004952   0x000000f8   Code   RO         3075    i.UART_Receive_IT   stm32f4xx_hal_uart.o
    0x08004a4a   0x08004a4a   0x00000002   PAD
    0x08004a4c   0x08004a4c   0x00000038   Code   RO          686    i.UART_Rx_Callback  stm32f4xx_it.o
    0x08004a84   0x08004a84   0x0000022c   Code   RO         3076    i.UART_SetConfig    stm32f4xx_hal_uart.o
    0x08004cb0   0x08004cb0   0x000000cc   Code   RO         3077    i.UART_Start_Receive_DMA  stm32f4xx_hal_uart.o
    0x08004d7c   0x08004d7c   0x00000060   Code   RO         3079    i.UART_Transmit_IT  stm32f4xx_hal_uart.o
    0x08004ddc   0x08004ddc   0x00000092   Code   RO         3080    i.UART_WaitOnFlagUntilTimeout  stm32f4xx_hal_uart.o
    0x08004e6e   0x08004e6e   0x00000002   PAD
    0x08004e70   0x08004e70   0x00000014   Code   RO          687    i.USART1_IRQHandler  stm32f4xx_it.o
    0x08004e84   0x08004e84   0x00000004   Code   RO          689    i.UsageFault_Handler  stm32f4xx_it.o
    0x08004e88   0x08004e88   0x00000024   Code   RO           20    i.WHEEL_SPD_UPD_A   encoder.o
    0x08004eac   0x08004eac   0x00000024   Code   RO           21    i.WHEEL_SPD_UPD_B   encoder.o
    0x08004ed0   0x08004ed0   0x00000024   Code   RO           22    i.WHEEL_SPD_UPD_C   encoder.o
    0x08004ef4   0x08004ef4   0x00000024   Code   RO           23    i.WHEEL_SPD_UPD_D   encoder.o
    0x08004f18   0x08004f18   0x00000010   Code   RO         1656    i.__NVIC_GetPriorityGrouping  stm32f4xx_hal_cortex.o
    0x08004f28   0x08004f28   0x00000028   Code   RO         1657    i.__NVIC_SetPriority  stm32f4xx_hal_cortex.o
    0x08004f50   0x08004f50   0x00000006   Code   RO         4570    i.__get_IPSR        cmsis_os2.o
    0x08004f56   0x08004f56   0x00000002   PAD
    0x08004f58   0x08004f58   0x00000058   Code   RO          257    i.delay_us          ps2.o
    0x08004fb0   0x08004fb0   0x000000a0   Code   RO          356    i.main              main.o
    0x08005050   0x08005050   0x0000001e   Code   RO         4571    i.osDelay           cmsis_os2.o
    0x0800506e   0x0800506e   0x00000002   PAD
    0x08005070   0x08005070   0x0000002c   Code   RO         4585    i.osKernelInitialize  cmsis_os2.o
    0x0800509c   0x0800509c   0x00000060   Code   RO         4588    i.osKernelStart     cmsis_os2.o
    0x080050fc   0x080050fc   0x000000b8   Code   RO         4630    i.osThreadNew       cmsis_os2.o
    0x080051b4   0x080051b4   0x0000007c   Code   RO         4005    i.prvAddCurrentTaskToDelayedList  tasks.o
    0x08005230   0x08005230   0x000000b8   Code   RO         4006    i.prvAddNewTaskToReadyList  tasks.o
    0x080052e8   0x080052e8   0x00000074   Code   RO         4381    i.prvCheckForValidListAndQueue  timers.o
    0x0800535c   0x0800535c   0x00000048   Code   RO         4007    i.prvCheckTasksWaitingTermination  tasks.o
    0x080053a4   0x080053a4   0x0000002a   Code   RO         3592    i.prvCopyDataFromQueue  queue.o
    0x080053ce   0x080053ce   0x0000007e   Code   RO         3593    i.prvCopyDataToQueue  queue.o
    0x0800544c   0x0800544c   0x00000050   Code   RO         4008    i.prvDeleteTCB      tasks.o
    0x0800549c   0x0800549c   0x00000028   Code   RO         4382    i.prvGetNextExpireTime  timers.o
    0x080054c4   0x080054c4   0x0000007c   Code   RO         5098    i.prvHeapInit       heap_4.o
    0x08005540   0x08005540   0x00000028   Code   RO         4009    i.prvIdleTask       tasks.o
    0x08005568   0x08005568   0x0000002a   Code   RO         3596    i.prvInitialiseNewQueue  queue.o
    0x08005592   0x08005592   0x000000be   Code   RO         4010    i.prvInitialiseNewTask  tasks.o
    0x08005650   0x08005650   0x00000068   Code   RO         4011    i.prvInitialiseTaskLists  tasks.o
    0x080056b8   0x080056b8   0x00000068   Code   RO         5099    i.prvInsertBlockIntoFreeList  heap_4.o
    0x08005720   0x08005720   0x00000058   Code   RO         4384    i.prvInsertTimerInActiveList  timers.o
    0x08005778   0x08005778   0x0000001a   Code   RO         3597    i.prvIsQueueEmpty   queue.o
    0x08005792   0x08005792   0x0000001e   Code   RO         3598    i.prvIsQueueFull    queue.o
    0x080057b0   0x080057b0   0x00000074   Code   RO         4385    i.prvProcessExpiredTimer  timers.o
    0x08005824   0x08005824   0x00000164   Code   RO         4386    i.prvProcessReceivedCommands  timers.o
    0x08005988   0x08005988   0x00000074   Code   RO         4387    i.prvProcessTimerOrBlockTask  timers.o
    0x080059fc   0x080059fc   0x00000034   Code   RO         4013    i.prvResetNextTaskUnblockTime  tasks.o
    0x08005a30   0x08005a30   0x0000002c   Code   RO         4388    i.prvSampleTimeNow  timers.o
    0x08005a5c   0x08005a5c   0x000000a4   Code   RO         4389    i.prvSwitchTimerLists  timers.o
    0x08005b00   0x08005b00   0x00000040   Code   RO         5154    i.prvTaskExitError  port.o
    0x08005b40   0x08005b40   0x0000001a   Code   RO         4390    i.prvTimerTask      timers.o
    0x08005b5a   0x08005b5a   0x0000007e   Code   RO         3599    i.prvUnlockQueue    queue.o
    0x08005bd8   0x08005bd8   0x0000014c   Code   RO         5100    i.pvPortMalloc      heap_4.o
    0x08005d24   0x08005d24   0x0000002c   Code   RO         5155    i.pxPortInitialiseStack  port.o
    0x08005d50   0x08005d50   0x00000028   Code   RO         3552    i.uxListRemove      list.o
    0x08005d78   0x08005d78   0x00000018   Code   RO         4642    i.vApplicationGetIdleTaskMemory  cmsis_os2.o
    0x08005d90   0x08005d90   0x00000018   Code   RO         4643    i.vApplicationGetTimerTaskMemory  cmsis_os2.o
    0x08005da8   0x08005da8   0x0000001a   Code   RO         3553    i.vListInitialise   list.o
    0x08005dc2   0x08005dc2   0x00000006   Code   RO         3554    i.vListInitialiseItem  list.o
    0x08005dc8   0x08005dc8   0x00000034   Code   RO         3555    i.vListInsert       list.o
    0x08005dfc   0x08005dfc   0x00000018   Code   RO         3556    i.vListInsertEnd    list.o
    0x08005e14   0x08005e14   0x00000054   Code   RO         5157    i.vPortEnterCritical  port.o
    0x08005e68   0x08005e68   0x0000003c   Code   RO         5158    i.vPortExitCritical  port.o
    0x08005ea4   0x08005ea4   0x000000a4   Code   RO         5101    i.vPortFree         heap_4.o
    0x08005f48   0x08005f48   0x00000028   Code   RO         5159    i.vPortSetupTimerInterrupt  port.o
    0x08005f70   0x08005f70   0x00000078   Code   RO         5160    i.vPortValidateInterruptPriority  port.o
    0x08005fe8   0x08005fe8   0x0000002c   Code   RO         3605    i.vQueueAddToRegistry  queue.o
    0x08006014   0x08006014   0x0000004a   Code   RO         3609    i.vQueueWaitForMessageRestricted  queue.o
    0x0800605e   0x0800605e   0x00000002   PAD
    0x08006060   0x08006060   0x0000005c   Code   RO         4026    i.vTaskDelay        tasks.o
    0x080060bc   0x080060bc   0x00000018   Code   RO         4031    i.vTaskInternalSetTimeOutState  tasks.o
    0x080060d4   0x080060d4   0x0000000c   Code   RO         4032    i.vTaskMissedYield  tasks.o
    0x080060e0   0x080060e0   0x00000038   Code   RO         4034    i.vTaskPlaceOnEventList  tasks.o
    0x08006118   0x08006118   0x00000040   Code   RO         4035    i.vTaskPlaceOnEventListRestricted  tasks.o
    0x08006158   0x08006158   0x000000b8   Code   RO         4043    i.vTaskStartScheduler  tasks.o
    0x08006210   0x08006210   0x00000010   Code   RO         4045    i.vTaskSuspendAll   tasks.o
    0x08006220   0x08006220   0x00000090   Code   RO         4046    i.vTaskSwitchContext  tasks.o
    0x080062b0   0x080062b0   0x00000168   Code   RO         5161    i.xPortStartScheduler  port.o
    0x08006418   0x08006418   0x00000034   Code   RO         5162    i.xPortSysTickHandler  port.o
    0x0800644c   0x0800644c   0x000000e0   Code   RO         3615    i.xQueueGenericCreateStatic  queue.o
    0x0800652c   0x0800652c   0x00000098   Code   RO         3616    i.xQueueGenericReset  queue.o
    0x080065c4   0x080065c4   0x000001a8   Code   RO         3617    i.xQueueGenericSend  queue.o
    0x0800676c   0x0800676c   0x000000fc   Code   RO         3618    i.xQueueGenericSendFromISR  queue.o
    0x08006868   0x08006868   0x00000168   Code   RO         3627    i.xQueueReceive     queue.o
    0x080069d0   0x080069d0   0x0000008c   Code   RO         4048    i.xTaskCheckForTimeOut  tasks.o
    0x08006a5c   0x08006a5c   0x00000064   Code   RO         4049    i.xTaskCreate       tasks.o
    0x08006ac0   0x08006ac0   0x000000ba   Code   RO         4050    i.xTaskCreateStatic  tasks.o
    0x08006b7a   0x08006b7a   0x00000002   PAD
    0x08006b7c   0x08006b7c   0x00000020   Code   RO         4054    i.xTaskGetSchedulerState  tasks.o
    0x08006b9c   0x08006b9c   0x0000000c   Code   RO         4055    i.xTaskGetTickCount  tasks.o
    0x08006ba8   0x08006ba8   0x00000144   Code   RO         4057    i.xTaskIncrementTick  tasks.o
    0x08006cec   0x08006cec   0x000000a4   Code   RO         4060    i.xTaskPriorityDisinherit  tasks.o
    0x08006d90   0x08006d90   0x00000098   Code   RO         4062    i.xTaskRemoveFromEventList  tasks.o
    0x08006e28   0x08006e28   0x00000104   Code   RO         4063    i.xTaskResumeAll    tasks.o
    0x08006f2c   0x08006f2c   0x00000078   Code   RO         4399    i.xTimerCreateTimerTask  timers.o
    0x08006fa4   0x08006fa4   0x00000084   Code   RO         4400    i.xTimerGenericCommand  timers.o
    0x08007028   0x08007028   0x00000150   Code   RO         5246    x$fpl$dadd          fz_wm.l(daddsub_clz.o)
    0x08007178   0x08007178   0x0000005e   Code   RO         5252    x$fpl$dfix          fz_wm.l(dfix.o)
    0x080071d6   0x080071d6   0x0000002e   Code   RO         5257    x$fpl$dflt          fz_wm.l(dflt_clz.o)
    0x08007204   0x08007204   0x00000154   Code   RO         5262    x$fpl$dmul          fz_wm.l(dmul.o)
    0x08007358   0x08007358   0x0000009c   Code   RO         5273    x$fpl$dnaninf       fz_wm.l(dnaninf.o)
    0x080073f4   0x080073f4   0x0000000c   Code   RO         5275    x$fpl$dretinf       fz_wm.l(dretinf.o)
    0x08007400   0x08007400   0x000001d4   Code   RO         5248    x$fpl$dsub          fz_wm.l(daddsub_clz.o)
    0x080075d4   0x080075d4   0x0000000a   Code   RO         5380    x$fpl$fpinit        fz_wm.l(fpinit.o)
    0x080075de   0x080075de   0x00000000   Code   RO         5277    x$fpl$usenofp       fz_wm.l(usenofp.o)
    0x080075de   0x080075de   0x00000002   PAD
    0x080075e0   0x080075e0   0x00000090   Data   RO          431    .constdata          freertos.o
    0x08007670   0x08007670   0x00000008   Data   RO         1373    .constdata          stm32f4xx_hal_dma.o
    0x08007678   0x08007678   0x00000018   Data   RO         3389    .constdata          system_stm32f4xx.o
    0x08007690   0x08007690   0x0000002e   Data   RO          432    .conststring        freertos.o
    0x080076be   0x080076be   0x00000002   PAD
    0x080076c0   0x080076c0   0x00000020   Data   RO         5438    Region$$Table       anon$$obj.o


    Execution Region RW_IRAM1 (Exec base: 0x20000000, Load base: 0x080076e0, Size: 0x00005640, Max: 0x0001c000, ABSOLUTE, COMPRESSED[0x00000058])

    Exec Addr    Load Addr    Size         Type   Attr      Idx    E Section Name        Object

    0x20000000   COMPRESSED   0x00000078   Data   RW           24    .data               encoder.o
    0x20000078   COMPRESSED   0x00000024   Data   RW          259    .data               ps2.o
    0x2000009c   COMPRESSED   0x0000001c   Data   RW          433    .data               freertos.o
    0x200000b8   COMPRESSED   0x00000028   Data   RW          691    .data               stm32f4xx_it.o
    0x200000e0   COMPRESSED   0x00000009   Data   RW         1805    .data               stm32f4xx_hal.o
    0x200000e9   COMPRESSED   0x00000003   PAD
    0x200000ec   COMPRESSED   0x00000004   Data   RW         3390    .data               system_stm32f4xx.o
    0x200000f0   COMPRESSED   0x0000003c   Data   RW         4066    .data               tasks.o
    0x2000012c   COMPRESSED   0x00000014   Data   RW         4408    .data               timers.o
    0x20000140   COMPRESSED   0x00000004   Data   RW         4645    .data               cmsis_os2.o
    0x20000144   COMPRESSED   0x00000020   Data   RW         5107    .data               heap_4.o
    0x20000164   COMPRESSED   0x0000000c   Data   RW         5163    .data               port.o
    0x20000170        -       0x00000009   Zero   RW          258    .bss                ps2.o
    0x20000179   COMPRESSED   0x00000003   PAD
    0x2000017c        -       0x00000240   Zero   RW          534    .bss                tim.o
    0x200003bc        -       0x00000104   Zero   RW          636    .bss                usart.o
    0x200004c0        -       0x000001fe   Zero   RW          690    .bss                stm32f4xx_it.o
    0x200006be   COMPRESSED   0x00000002   PAD
    0x200006c0        -       0x00000048   Zero   RW          818    .bss                stm32f4xx_hal_timebase_tim.o
    0x20000708        -       0x00000040   Zero   RW         3631    .bss                queue.o
    0x20000748        -       0x000004c4   Zero   RW         4065    .bss                tasks.o
    0x20000c0c        -       0x00000118   Zero   RW         4407    .bss                timers.o
    0x20000d24        -       0x000006b8   Zero   RW         4644    .bss                cmsis_os2.o
    0x200013dc        -       0x00003c00   Zero   RW         5106    .bss                heap_4.o
    0x20004fdc        -       0x00000060   Zero   RW         5310    .bss                c_w.l(libspace.o)
    0x2000503c   COMPRESSED   0x00000004   PAD
    0x20005040        -       0x00000200   Zero   RW            2    HEAP                startup_stm32f407xx.o
    0x20005240        -       0x00000400   Zero   RW            1    STACK               startup_stm32f407xx.o


    Execution Region RW_IRAM2 (Exec base: 0x2001c000, Load base: 0x08007738, Size: 0x00000000, Max: 0x00004000, ABSOLUTE)

    **** No section assigned to this execution region ****


==============================================================================

Image component sizes


      Code (inc. data)   RO Data    RW Data    ZI Data      Debug   Object Name

       430         38          0          4       1720      64863   cmsis_os2.o
        72          4          0          0          0        766   dma.o
      2940        236          0        120          0     708215   encoder.o
         0          0          0          0          0      19428   event_groups.o
       696        138        190         28          0       4016   freertos.o
       392         16          0          0          0       1139   gpio.o
       724         74          0         32      15360       4839   heap_4.o
       148          0          0          0          0       3538   list.o
       374         38          0          0          0       2720   main.o
      1014         92          0         12          0      11641   port.o
       936         70          0         36          9       6318   ps2.o
      1922         20          0          0         64      17340   queue.o
        64         26        392          0       1536        840   startup_stm32f407xx.o
       136         24          0          9          0       8702   stm32f4xx_hal.o
       252         22          0          0          0      33650   stm32f4xx_hal_cortex.o
      1436         16          8          0          0       6994   stm32f4xx_hal_dma.o
       524         44          0          0          0       2767   stm32f4xx_hal_gpio.o
        84          6          0          0          0        854   stm32f4xx_hal_msp.o
      1888         94          0          0          0       6249   stm32f4xx_hal_rcc.o
      2590        142          0          0          0      16721   stm32f4xx_hal_tim.o
       300         30          0          0          0       3301   stm32f4xx_hal_tim_ex.o
       140         18          0          0         72       1460   stm32f4xx_hal_timebase_tim.o
      3010         26          0          0          0      17421   stm32f4xx_hal_uart.o
       654        106          0         40        510       8328   stm32f4xx_it.o
         0          0          0          0          0        384   stream_buffer.o
        20          6         24          4          0       1115   system_stm32f4xx.o
      2808        346          0         60       1220      27342   tasks.o
      2092        146          0          0        576       8917   tim.o
      1318        124          0         20        280      32787   timers.o
       340         34          0          0        260       1872   usart.o

    ----------------------------------------------------------------------
     27336       1936        648        368      21612    1024527   Object Totals
         0          0         32          0          0          0   (incl. Generated)
        32          0          2          3          5          0   (incl. Padding)

    ----------------------------------------------------------------------

      Code (inc. data)   RO Data    RW Data    ZI Data      Debug   Library Member Name

        90          0          0          0          0          0   __dczerorl2.o
         8          0          0          0          0         68   __main.o
         0          0          0          0          0          0   __rtentry.o
        12          0          0          0          0          0   __rtentry2.o
         6          0          0          0          0          0   __rtentry4.o
        52          8          0          0          0          0   __scatter.o
        28          0          0          0          0          0   __scatter_zi.o
        16          0          0          0          0         68   aeabi_memset.o
        18          0          0          0          0         80   exit.o
         6          0          0          0          0        152   heapauxi.o
         0          0          0          0          0          0   indicate_semi.o
         2          0          0          0          0          0   libinit.o
         6          0          0          0          0          0   libinit2.o
         2          0          0          0          0          0   libshutdown.o
         2          0          0          0          0          0   libshutdown2.o
         8          4          0          0         96         68   libspace.o
       238          0          0          0          0        100   lludivv7m.o
        68          0          0          0          0         68   rt_memclr.o
        78          0          0          0          0         80   rt_memclr_w.o
       138          0          0          0          0         68   rt_memcpy_v6.o
       100          0          0          0          0         80   rt_memcpy_w.o
         2          0          0          0          0          0   rtexit.o
        10          0          0          0          0          0   rtexit2.o
        12          4          0          0          0         68   sys_exit.o
        74          0          0          0          0         80   sys_stackheap_outer.o
         2          0          0          0          0         68   use_no_semi.o
       804         16          0          0          0        368   daddsub_clz.o
        94          4          0          0          0        140   dfix.o
        46          0          0          0          0        116   dflt_clz.o
       340         12          0          0          0        152   dmul.o
       156          4          0          0          0        140   dnaninf.o
        12          0          0          0          0        116   dretinf.o
        10          0          0          0          0        116   fpinit.o
         0          0          0          0          0          0   usenofp.o

    ----------------------------------------------------------------------
      2448         52          0          0        100       2196   Library Totals
         8          0          0          0          4          0   (incl. Padding)

    ----------------------------------------------------------------------

      Code (inc. data)   RO Data    RW Data    ZI Data      Debug   Library Name

       978         16          0          0         96       1048   c_w.l
      1462         36          0          0          0       1148   fz_wm.l

    ----------------------------------------------------------------------
      2448         52          0          0        100       2196   Library Totals

    ----------------------------------------------------------------------

==============================================================================


      Code (inc. data)   RO Data    RW Data    ZI Data      Debug   

     29784       1988        648        368      21712    1004855   Grand Totals
     29784       1988        648         88      21712    1004855   ELF Image Totals (compressed)
     29784       1988        648         88          0          0   ROM Totals

==============================================================================

    Total RO  Size (Code + RO Data)                30432 (  29.72kB)
    Total RW  Size (RW Data + ZI Data)             22080 (  21.56kB)
    Total ROM Size (Code + RO Data + RW Data)      30520 (  29.80kB)

==============================================================================

