:020000040800F2
:100000004056002029030008D93C0008EB310008C5
:10001000D53C0008250E0008854E000800000000B1
:10002000000000000000000000000000690200085D
:10003000830F000800000000C5020008B14200085C
:100040004303000843030008430300084303000878
:100050004303000843030008430300084303000868
:100060004303000843030008430300084303000858
:100070004303000843030008430300084303000848
:100080004303000843030008430300084303000838
:100090004303000843030008430300084303000828
:1000A0004303000843030008430300084303000818
:1000B0004303000843030008430300084303000808
:1000C00043030008430300084303000843030008F8
:1000D00043030008714E000843030008430300086F
:1000E00043030008430300084303000843030008D8
:1000F0004303000895430008430300084303000836
:1001000043030008430300084303000843030008B7
:1001100043030008430300084303000843030008A7
:100120004303000843030008590E00084303000876
:100130004303000843030008430300084303000887
:100140004303000843030008430300084303000877
:100150004303000843030008690E00084303000836
:100160004303000843030008430300084303000857
:100170004303000843030008430300080000000095
:10018000430300084303000800F002F800F05CF8A5
:100190000AA090E8000C82448344AAF10107DA45E2
:1001A00001D100F051F8AFF2090EBAE80F0013F0D8
:1001B000010F18BFFB1A43F0010318470475000034
:1001C000247500000A444FF0000C10F8013B13F0B6
:1001D000070408BF10F8014B1D1108BF10F8015BA0
:1001E000641E05D010F8016B641E01F8016BF9D193
:1001F00013F0080F1EBF10F8014BAD1C0C1B09D1EA
:100200006D1E58BF01F801CBFAD505E014F8016B5B
:1002100001F8016B6D1EF9D59142D6D370470000ED
:100220000023002400250026103A28BF78C1FBD8FF
:10023000520728BF30C148BF0B6070471FB507F099
:10024000C9F91FBD10B510BD00F0D0F91146FFF778
:10025000F5FF04F0ADFE00F0EEF903B4FFF7F2FF96
:1002600003BC00F0F5F900002C4B19680868B0E8F1
:10027000F04F80F30988BFF36F8F4FF0000080F3D9
:10028000118870470000000008480068006880F38B
:1002900008884FF0000080F3148862B661B6BFF39F
:1002A0004F8FBFF36F8F00DF00BF00BF08ED00E08E
:1002B000DFF80C00016841F470010160704700BF75
:1002C00088ED00E0EFF30980BFF36F8F134B1A68DE
:1002D0001EF0100F08BF20ED108A20E9F04F1060CB
:1002E00009B44FF0500080F31188BFF34F8FBFF374
:1002F0006F8F05F095FF4FF0000080F3118809BC67
:1003000019680868B0E8F04F1EF0100F08BFB0EC95
:10031000108A80F30988BFF36F8F7047F0000020C8
:10032000EFF30580704700000948804709480047FF
:10033000FEE7FEE7FEE7FEE7FEE7FEE7FEE7FEE795
:10034000FEE7FEE704480549054A064B70470000F2
:1003500081430008890100084050002040560020D9
:10036000405200204052002053EA020C00F0698005
:100370002DE9F04B4FF00006002B1FBFB3FA83F5B9
:1003800003FA05F424FA05F65E4012BF1643B2FAEA
:1003900082F502FA05F4C5F120051EBF22FA05FC1C
:1003A00044EA0C04203556EA044C4FEA144418BFC2
:1003B000641C4FF000084FF00009904271EB030CF1
:1003C00039D3002919BFB1FA81F701FA07F6B0FA5B
:1003D00080F700FA07F6C7F120071EBF20FA07FCD6
:1003E00046EA0C062037B6FBF4FCA7EB0507103FE6
:1003F00007F01F0BCBF120060CFA0BFB2CFA06F6CC
:1004000044BFB3460026202FA4BF5E464FF0000B2A
:100410005BEA060C08BF4FF0010B19EB0B09ABFBB5
:10042000027C48EB0608C01B06FB02CC0BFB03CC8E
:1004300071EB0C01C1E70B46024641464846BDE858
:10044000F08B13B54FF000004FF00001AFF30080C8
:10045000BDE81C407047032A40F2308010F0030CC6
:1004600000F0158011F8013BBCF1020F624498BF07
:1004700011F801CB00F8013B38BF11F8013BA2F1A4
:10048000040298BF00F801CB38BF00F8013B11F01F
:10049000030300F05780083AC0F0088051F8043B8D
:1004A000083A51F804CBA0E80810F5E7121D5CBF2C
:1004B00051F8043B40F8043BAFF30080D20724BF5F
:1004C00011F8013B11F801CB48BF11F8012B24BFF3
:1004D00000F8013B00F801CB48BF00F8012B704742
:1004E00002F0FF0343EA032242EA024200F05EB850
:1004F0004FF0000200B5134694469646203922BFBD
:10050000A0E80C50A0E80C50B1F12001BFF4F7AF07
:10051000090728BFA0E80C5048BF0CC05DF804EBE9
:10052000890028BF40F8042B08BF704748BF20F857
:10053000022B11F0804F18BF00F8012B7047704755
:100540007047704710B5203AC0F00B80B1E81850E2
:10055000203AA0E81850B1E81850A0E81850BFF4AD
:10056000F5AF5FEA027C24BFB1E81850A0E818504C
:1005700044BF18C918C0BDE810405FEA827C24BFA0
:1005800051F8043B40F8043B08BF7047D20728BF2E
:1005900031F8023B48BF11F8012B28BF20F8023B7D
:1005A00048BF00F8012B70474FF000020429C0F04B
:1005B000128010F0030C3FF49DAFCCF1040CBCF1A1
:1005C000020F18BF00F8012BA8BF20F8022BA1EBE7
:1005D0000C01FFF78FBF5FEAC17C24BF00F8012B3D
:1005E00000F8012B48BF00F8012B7047754600F05A
:1005F0002BF8AE4605006946534620F007008546B5
:1006000018B020B5FFF79EFEBDE820404FF0000671
:100610004FF000074FF000084FF0000B21F00701EA
:10062000AC46ACE8C009ACE8C009ACE8C009ACE82D
:10063000C0098D46704710B50446AFF300802046D0
:10064000BDE81040FFF709BE00487047DC4F0020AE
:1006500001491820ABBEFEE72600020070470000EB
:1006600010B502461146244B1B680B44224C2360F4
:1006700023461B68214C2468A34203DD1F4B1B68E3
:100680001D4C23601C4B1B681C4C24686442A34215
:1006900004DA1A4B1B685B42174C2360184BD3EDEE
:1006A000000A00EE101AB8EEC00A20EE800A154BC0
:1006B00093ED001A104BD3ED000AF8EEE00A01EEBC
:1006C000200A114B1B68CB1A00EE903AF8EEE00AB4
:1006D0000E4B93ED001A01EE200ABDEEC00A10EE9B
:1006E000100A042800DB042010F1040F01DC6FF075
:1006F0000300054B196010BDD8000020C800002081
:10070000B8000020BC000020DC000020C000002059
:1007100010B502461146244B1B680B44224C236043
:1007200023461B68214C2468A34203DD1F4B1B6832
:100730001D4C23601C4B1B681C4C24686442A34264
:1007400004DA1A4B1B685B42174C2360184BD3ED3D
:10075000000A00EE101AB8EEC00A20EE800A154B0F
:1007600093ED001A104BD3ED000AF8EEE00A01EE0B
:10077000200A114B1B68CB1A00EE903AF8EEE00A03
:100780000E4B93ED001A01EE200ABDEEC00A10EEEA
:10079000100A042800DB042010F1040F01DC6FF0C4
:1007A0000300054B196010BDD0000020C8000020D8
:1007B000B8000020BC000020D4000020C0000020B1
:1007C0002DE9F0412DED088B04460D46164600201C
:1007D000FE490860FE490860FE490860FE4908605D
:1007E000722C1ADB8A2C18DC722D16DB8A2D14DC95
:1007F0000E2E12D0102E10D00021412003F016FC36
:100800000021422003F012FC0021432003F00EFCE3
:100810000021442003F00AFCEBE28A2C77DDA4F1EE
:100820008A0006F0D8FC41EC1B0B9FEDEC0B53EC5F
:10083000102B06F0E7FC41EC190BE448006806F0C9
:10084000CAFC41EC1A0B53EC192B06F0EDFB41EC02
:10085000180B06F091FCDD490860A4F18A0006F04F
:10086000BAFC41EC1B0B9FEDDD0B53EC102B06F09B
:10087000C9FC41EC190BD848006806F0ACFC41EC0F
:100880001A0B53EC192B06F0CFFB41EC180B06F0BA
:1008900073FCD1490860C4F1720006F09CFC41EC85
:1008A0001B0B9FEDCE0B53EC102B06F0ABFC41EC79
:1008B000190BC848006806F08EFC41EC1A0B53EC8B
:1008C000192B06F0B1FB41EC180B06F055FCC149A1
:1008D0000860C4F1720006F07EFC41EC1B0B9FED3A
:1008E000BF0B53EC102B06F08DFC41EC190BB848F4
:1008F000006806F070FC41EC1A0B53EC192B06F063
:1009000093FB41EC180B06F037FCB1490860722CE0
:1009100077DAC4F1720006F05EFC41EC1B0B9FED30
:10092000AF0B53EC102B06F06DFC41EC190BA748F4
:10093000006806F050FC41EC1A0B53EC192B06F042
:100940005FFD41EC180B06F017FCA0490860C4F1EC
:10095000720006F040FC41EC1B0B9FEDA00B53EC2A
:10096000102B06F04FFC41EC190B9B48006806F079
:1009700032FC41EC1A0B53EC192B06F041FD41EC13
:10098000180B06F0F9FB94490860A4F18A0006F000
:1009900022FC41EC1B0B9FED910B53EC102B06F04E
:1009A00031FC41EC190B8A48006806F014FC41EC5C
:1009B0001A0B53EC192B06F023FD41EC180B06F033
:1009C000DBFB83490860A4F18A0006F004FC41ECDB
:1009D0001B0B9FED820B53EC102B06F013FC41EC2C
:1009E000190B7C48006806F0F6FB41EC1A0B53EC3F
:1009F000192B06F005FD41EC180B06F0BDFB7549FF
:100A000008608A2D77DDA5F1640006F0E4FB41EC77
:100A10001B0B9FED740B53EC102B06F0F3FB41EC1A
:100A2000190B6A48006806F0D6FB41EC1A0B53EC30
:100A3000192B06F0F9FA41EC180B06F09DFB6349FF
:100A40000860A5F1640006F0C6FB41EC1B0B9FEDAE
:100A5000650B53EC102B06F0D5FB41EC190B5C48F1
:100A6000006806F0B8FB41EC1A0B53EC192B06F0AA
:100A7000DBFA41EC180B06F07FFB55490860A5F145
:100A8000640006F0A8FB41EC1B0B9FED560B53ECEA
:100A9000102B06F0B7FB41EC190B4E48006806F02E
:100AA0009AFB41EC1A0B53EC192B06F0BDFA41EC02
:100AB000180B06F061FB47490860A5F1640006F0D9
:100AC0008AFB41EC1B0B9FED470B53EC102B06F000
:100AD00099FB41EC190B4048006806F07CFB41ECA7
:100AE0001A0B53EC192B06F09FFA41EC180B06F089
:100AF00043FB39490860722D78DAA5F1820006F0CF
:100B00006AFB41EC1B0B9FED370B53EC102B06F0EF
:100B100079FB41EC190B2D48006806F05CFB41ECB9
:100B20001A0B53EC192B06F07FFA41EC180B06F068
:100B300023FB26490860A5F1820006F04CFB41EC3E
:100B40001B0B9FED280B53EC102B06F05BFB41ECCD
:100B5000190B1F48006806F03EFB41EC1A0B53ECE2
:100B6000192B06F061FA41EC180B06F005FB184949
:100B70000860A5F1820006F02EFB41EC1B0B9FEDF7
:100B8000190B53EC102B06F03DFB41EC190B1148EF
:100B9000006806F020FB41EC1A0B53EC192B06F011
:100BA00043FA41EC180B06F0E7FA0A490860A5F190
:100BB000820006F010FB41EC1B0B9FED0A0B53EC7F
:100BC000102B06F01FFB41EC190B10E00000002079
:100BD00004000020080000200C00002033333333D1
:100BE0003333D33F000000000000E03F0FE08348B4
:100BF000006806F0F0FA41EC1A0B53EC192B06F0E2
:100C000013FA41EC180B06F0B7FA7C4908600E2E77
:100C100013D17B4800683230794908607948006810
:100C20003238784908607848006832307649086080
:100C300072480068323871490860102E13D170482C
:100C4000006832386E4908606E48006832306D497D
:100C500008606D48006832386B4908606748006872
:100C600032306649086066480068002815DB0122BA
:100C70008021664800F0E8FC00224021634800F033
:100C8000E3FC634801685E48006802F0B1FA074679
:100C90003946412003F0CAF916E0012240215B48A1
:100CA00000F0D2FC00228021584800F0CDFC5848CA
:100CB0000068414252480068404202F099FA0746F3
:100CC0003946412003F0B2F94E480068002816DB8F
:100CD000012291024F4800F0B7FC00224FF400615E
:100CE0004C4800F0B1FC4C4801684648006802F0EE
:100CF00003FB07463946422003F098F917E001222A
:100D0000D102444800F0A0FC00224FF48061414829
:100D100000F09AFC4048006841423A48006840426E
:100D200002F0EAFA07463946422003F07FF93648D6
:100D30000068002815DB01224021364800F084FCC1
:100D400000228021334800F07FFC344801682E489F
:100D5000006802F055FB07463946432003F066F968
:100D600016E0012280212B4800F06EFC0022402179
:100D7000284800F069FC2948006841422248006880
:100D8000404202F03DFB07463946432003F04EF94E
:100D90001A480068002815DB012210211D4800F0C8
:100DA00053FC002220211B4800F04EFC1C48016827
:100DB0001248006802F0A8FB07463946442003F0B9
:100DC00035F916E001222021124800F03DFC0022F6
:100DD0001021104800F038FC1148006841420748D3
:100DE0000068404202F090FB07463946442003F079
:100DF0001DF9BDEC088BBDE8F08100000C0000205F
:100E00000000002004000020080000200004024030
:100E100010000020000C02401400002018000020E8
:100E20001C00002000BFFEE742F21070064909686E
:100E300048620649096848620549096848620549E7
:100E400009684862704700000C020020540200202C
:100E5000C4010020E402002010B5024800F000F9AF
:100E600010BD00000004002010B5024800F0F8F8A2
:100E700010BD0000600400200146087810381823D7
:100E8000B0FBF3F20848805CC865032A05D90868FE
:100E90006FF30900001D886503E008686FF309001F
:100EA0008865886D70470000707600080146002054
:100EB0008A6A8B69CBB932B1012A0DD0022A03D0DC
:100EC000032A10D10EE000BFCB6A03F08073B3F1A8
:100ED000807F00D1012007E0CB6AB3F1C07F00D151
:100EE000012001E000E000BF34E08B69B3F5005F52
:100EF0001AD132B1012A07D0022A03D0032A11D114
:100F00000AE000BF01200EE0CB6A03F08073B3F16A
:100F1000807F00D1012006E0CB6AB3F1C07F00D111
:100F2000012000E000BF15E032B1012A05D0022AFD
:100F300004D0032A0CD103E000BF00BF012008E069
:100F4000CB6A03F08073B3F1807F00D1012000E011
:100F500000BF00BF704730B50468246824F48024C3
:100F600005682C60046863608468402C04D10468C0
:100F7000A2600468E16003E00468A1600468E260C4
:100F800030BD704772B600BFFEE770B50446A56D70
:100F900000F060FB064694F83500022808D0802057
:100FA000606500BF002084F8340000BF012070BDE0
:100FB0002068006820F016002168086020684069F9
:100FC00020F0800021684861206C08B9A06C28B12D
:100FD0002068006820F00800216808602068006828
:100FE00020F001002168086010E000F033FB801B56
:100FF00005280BD920206065032084F8350000BF48
:10100000002084F8340000BF0320D0E72068006887
:1010100000F001000028E8D194F85C103F208840DF
:10102000A860012084F8350000BF002084F8340057
:1010300000BF00BFBBE7014691F83500022803D08E
:101040008020486501207047052081F83500086838
:10105000006820F001000A6810600020F3E700003B
:10106000F8B50446002000908C4800684FF41651F3
:10107000B0FBF1F7A56D2E6894F85C10082088404D
:10108000304098B12068006800F0040070B120681A
:10109000006820F004002168086094F85C100820C3
:1010A0008840A860606D40F00100606594F85C10B5
:1010B00001208840304068B12068406900F080001D
:1010C00040B194F85C1001208840A860606D40F049
:1010D0000200606594F85C1004208840304068B1DC
:1010E0002068006800F0020040B194F85C10042011
:1010F0008840A860606D40F00400606594F85C1062
:1011000010208840304078B32068006800F0080064
:1011100050B394F85C1010208840A86020680068E4
:1011200000F4802080B12068006800F4002028B915
:10113000206CC8B12046216C884715E0A06C98B19E
:101140002046A16C88470FE02068006800F480709A
:1011500028B92068006820F0080021680860206C29
:1011600010B12046216C884794F85C1020208840FC
:101170003040002865D02068006800F0100000288A
:101180005FD094F85C1020208840A86094F8350067
:10119000052828D12068006820F016002168086022
:1011A0002068406920F0800021684861206C08B9FF
:1011B000A06C28B12068006820F008002168086051
:1011C00094F85C103F208840A860012084F8350026
:1011D00000BF002084F8340000BF206D10B120460D
:1011E000216D8847F8BD2068006800F4802080B138
:1011F0002068006800F4002028B9606C10B1204617
:10120000616C88471DE0E06BD8B12046E16B8847F0
:1012100017E02068006800F4807068B920680068F2
:1012200020F0100021680860012084F8350000BF1C
:10123000002084F8340000BFE06B10B12046E16B61
:101240008847606D38B3606D00F00100F0B1052093
:1012500084F835002068006820F0010021680860EB
:1012600000BF0098401C0090B84200D905E02068FB
:10127000006800F001000028F3D100BF012084F8CD
:10128000350000BF002084F8340000BFE06C10B1CE
:101290002046E16C884700BFA4E70000EC00002076
:1012A0002DE9F0410446002500F0D4F9074614B9B1
:1012B0000120BDE8F081606A00B100BF022084F81F
:1012C000350000BF002084F8340000BF20680068AB
:1012D00020F00100216808600AE000F0BBF9C01BA3
:1012E000052805D920206065032084F83500E0E753
:1012F0002068006800F001000028EED12068056831
:1013000021480540D4E901010843E1680843216907
:10131000084361690843A1690843E1690843216AF8
:1013200008430543606A042803D1D4E90B0108434C
:101330000543206805602068456925F00705606A57
:101340000543606A04280DD1A06A0543E06A48B1EC
:101350002046FFF7ABFD28B140206065012084F8EE
:101360003500A6E7206845612046FFF785FD064663
:1013700094F85C103F208840B06000206065012038
:1013800084F83500002094E73F8010F02DE9F04705
:1013900004460D4616461F464FF00008D4F85890F4
:1013A00000BF94F83400012802D10220BDE8F08784
:1013B000012084F8340000BF94F83500012825D1BD
:1013C000022084F83500002060653B4632462946FD
:1013D0002046FFF7C0FD94F85C103F208840C9F814
:1013E00008002068006840F0160021680860206C42
:1013F00028B12068006840F0080021680860206873
:10140000006840F001002168086006E000BF00208D
:1014100084F8340000BF4FF002084046C6E70000E1
:1014200070B5044600F016F906462546681C10B152
:1014300004480078054400BF00F00CF9801BA84266
:10144000FAD370BDE8000020F8B502460B4600252F
:10145000002400200021D5E0012606FA01F51E68CF
:1014600006EA0504AC4274D11E7906F00306012E8B
:1014700004D01E7906F00306022E13D190684F00A7
:101480000326BE40B0434F00DE68BE40304390604C
:10149000506801268E40B0431E79C6F300168E4078
:1014A000304350601E7906F00306032E09D0D06841
:1014B0004F000326BE40B0434F009E68BE403043FD
:1014C000D0601E7906F00306022E13D1CF0802F178
:1014D000200656F827004E07F70E0F26BE40B043F1
:1014E0004F07FF0E1E69BE403043CF0802F12006B1
:1014F00046F8270010684F000326BE40B0431E790F
:1015000006F003064F00BE40304310605E6806F4EC
:101510004036002E75D000BF002600963B4E366840
:1015200046F48046394F3E603E46366806F48046B3
:10153000009600BF00BF364E8F0856F827008E0772
:10154000370F0F26BE40B043324EB24202D10026C2
:1015500024E056E0304EB24201D101261EE02F4E6B
:10156000B24201D1022619E02D4EB24201D103262A
:1015700014E02C4EB24201D104260FE02A4EB242B2
:1015800001D105260AE0294EB24201D1062605E026
:10159000274EB24201D1072600E008268F073F0FF1
:1015A000BE4030431A4E8F0846F82700214E30685F
:1015B000A0435E6806F4803606B120431D4E3060BD
:1015C000361D3068A0435E6806F4003606B120433D
:1015D000184E361D3060361D3068A0435E6806F434
:1015E000801606B12043134E08363060361D306831
:1015F000A0435E6806F4001606B120430D4E0C367B
:101600003060491C1029FFF427AFF8BD4438024070
:101610000838014000000240000402400008024077
:10162000000C02400010024000140240001802406A
:10163000001C0240003C0140024613690B400BB104
:10164000012000E0002070470AB1816101E00B0435
:10165000836170470148006870470000E000002087
:101660000348006803490978084401490860704745
:10167000E0000020E800002010B50D48006840F4AC
:1016800000700B4908600846006840F480600860FC
:101690000846006840F480700860032000F0C8F835
:1016A0000F2000F007F800F04BF8002010BD0000FC
:1016B000003C024070B588B0044600250026002298
:1016C00021462D2000F076F82D2000F063F800BFB1
:1016D000002001901648006840F4807014490860AA
:1016E0000846006800F48070019000BF00BF02A9A6
:1016F00003A800F073F900F099F945000D48B5FB17
:10170000F0F0461E0C480D49086040F2E7310B48E6
:10171000C160466000210161816000F0E3FC20B9F6
:10172000064800F05BFD08B070BD0120FBE700003B
:101730004038024040420F0000200040C006002018
:1017400008B500BF002000901148006840F48040B8
:101750000F4908600846006800F48040009000BF10
:1017600000BF00BF00200090081F006840F08050BC
:10177000091F08600846006800F08050009000BF14
:1017800000BF00220F21901E00F014F808BD0000D9
:101790004438024001460846002809DB00F01F03D8
:1017A00001229A4043099B0003F1E023C3F8002182
:1017B00000BF70472DE9F05F80460D4616460027B2
:1017C00003F0AAFB074639462A46334601F00700D4
:1017D000C0F1070ABAF1040F02D94FF0040A01E080
:1017E000C0F1070AD14600F1040ABAF1070F02D28C
:1017F0004FF0000A01E0A0F1030AD4464FF0010ABD
:101800000AFA09FAAAF1010A0AEA020A0AFA0CFA21
:101810004FF0010B0BFA0CFBABF1010B0BEA030BC6
:101820004AEA0B042146404603F07EFBBDE8F09FE8
:1018300000BF00F00702064B19684FF6FF0319407E
:10184000044B0B4343EA0221014B196000BF704770
:101850000CED00E00000FA0570B504460D460CB929
:10186000012070BD5848006800F00700A84209D266
:1018700055490D700846006800F00700A84201D0E5
:101880000120EEE7207800F0020002281DD1207828
:1018900000F00400042805D14C48006840F4E050F2
:1018A0004A490860207800F00800082805D1474818
:1018B000006840F46040454908604448006820F0F2
:1018C000F000A168084341490860207800F0010059
:1018D000A8B36068012807D13C4808380068C0F305
:1018E0004040B8B90120BCE76068022802D06068B7
:1018F000032807D1354808380068C0F3406048B96C
:101900000120AEE7314808380068C0F3400008B94C
:101910000120A6E72D48006820F003006168084315
:101920002A490860FFF796FE064609E0FFF792FE97
:10193000801B41F28831884202D9032091E707E0F9
:101940002248006800F00C006168B0EB810FEDD117
:101950001D48006800F00700A84209D91A490D7017
:101960000846006800F00700A84201D0012078E78F
:10197000207800F00400042807D11448006820F4FF
:10198000E050E168084311490860207800F0080041
:10199000082808D10D48006820F46040216940EA19
:1019A000C1000A49086000F061F808490968C1F3FC
:1019B0000311074A515CC8400649086006480068A0
:1019C000FFF778FE00204CE7003C02400838024058
:1019D00078760008EC000020E40000200F2202606E
:1019E0000D4A126802F0030242600B4A126802F0CC
:1019F000F0028260084A126802F4E052C260064AAD
:101A0000126802F46042D2080261044A126802F0CD
:101A100007020A607047000008380240003C02409C
:101A20000148006870470000EC00002000B5FFF797
:101A3000F7FF04490968C1F38221034A515CC84099
:101A400000BD0000083802408876000800B5FFF7A6
:101A5000E7FF04490968C1F34231034A515CC840B9
:101A600000BD000008380240887600082DE9F047E4
:101A7000002400250026A1462548006800F00C003F
:101A800020B1042805D008283AD105E0DFF8849079
:101A900039E0DFF8849036E01D48001F006800F050
:101AA0003F041B48001F006800F4800078B11A480A
:101AB0001749091F0968C1F38811A0FB017001468D
:101AC000224600233846FEF74FFC05460EE011483B
:101AD0000F49091F0968C1F38811A0FB0170014675
:101AE000224600233846FEF73FFC05460848001F03
:101AF0000068C0F30140401C4600B5FBF6F902E067
:101B0000DFF8109000BF00BF4846BDE8F087000036
:101B1000083802400024F40040787D01F8B50446FE
:101B20000CB90120F8BD207800F00100002874D025
:101B3000F948006800F00C0004280DD0F648006851
:101B400000F00C00082813D1F348001F006800F4CF
:101B50008000B0F5800F0BD1EF4808380068C0F363
:101B60004040002859D06068002856D10120D9E7AC
:101B700000BF6068B0F5803F08D1E74808380068CA
:101B800040F48030E449083908601EE06068B0F530
:101B9000A02F0DD1E0480838006840F48020DE49CD
:101BA000083908600846006840F4803008600CE09E
:101BB000D9480838006820F48030D74908390860CF
:101BC0000846006820F48020086000BF606890B17B
:101BD000FFF740FD054606E0FFF73CFD401B64288B
:101BE00001D903209EE7CC4808380068C0F3404084
:101BF0000028F1D011E0FFF72DFD054606E0FFF7C4
:101C000029FD401B642801D903208BE7C24808380E
:101C10000068C0F340400028F1D1207800F00200B5
:101C200002285FD1BC48006800F00C0058B1BA48E7
:101C3000006800F00C0008281CD1B748001F00689D
:101C400000F48000B0B9B44808380068C0F3400020
:101C500020B1E068012801D0012063E7AE480838D0
:101C6000006820F0F800216940EAC100AA4908395B
:101C7000086037E0E06800B30120A8490860FFF77A
:101C8000E9FC054606E0FFF7E5FC401B022801D908
:101C9000032047E7A04808380068C0F34000002848
:101CA000F1D09D480838006820F0F800216940EA2A
:101CB000C10099490839086014E00020974908607C
:101CC000FFF7C8FC054606E0FFF7C4FC401B0228EE
:101CD00001D9032026E7904808380068C0F3400087
:101CE0000028F1D1207800F0080008282CD1606984
:101CF000A8B101208A490860FFF7ACFC054606E060
:101D0000FFF7A8FC401B022801D903200AE78248FC
:101D10006C300068C0F340000028F1D014E00020CF
:101D20007F490860FFF796FC054606E0FFF792FC46
:101D3000401B022801D90320F4E677486C30006884
:101D4000C0F340000028F1D1207800F004000428FE
:101D500070D1002770483830006800F0805090B98A
:101D600000BF002000906C483830006840F0805080
:101D70006949383108600846006800F080500090DA
:101D800000BF00BF01276748006800F48070B0B949
:101D90006448006840F4807062490860FFF75AFCAC
:101DA000054606E0FFF756FC401B022801D9032038
:101DB000B8E65C48006800F480700028F2D000BFEC
:101DC000A068012808D154486830006840F001003C
:101DD0005149683108601DE0A06805280DD14E48C2
:101DE0006830006840F004004B49683108600846DC
:101DF000006840F0010008600CE047486830006867
:101E000020F001004449683108600846006820F06D
:101E10000400086000BFA068A8B1FFF71BFC0546DE
:101E200009E0FFF717FC401B41F28831884202D9D4
:101E3000032077E626E0384868300068C0F34000A9
:101E40000028EED013E0FFF705FC054608E0FFF799
:101E500001FC401B41F28831884201D9032061E630
:101E60002D4868300068C0F340000028EFD1012FF2
:101E700007D129483830006820F080502649383191
:101E8000086000BFA069002845D02348006800F022
:101E90000C0008285DD0A069022845D100201F4908
:101EA0000866FFF7D7FB054606E0FFF7D3FB401BAC
:101EB000022801D9032035E6174808380068C0F326
:101EC00040600028F1D1D4E907010843616A40EA83
:101ED00081110122A06AC2EB500041EA00412C208E
:101EE000005D41EA00600C49091F086001200B49B0
:101EF0000866FFF7AFFB054606E0FFF7ABFB401BAC
:101F0000022801D903200DE6034808380068C0F311
:101F100040600028F1D049E0083802400000474204
:101F2000800E474200700040002021490866FFF7FC
:101F300091FB054606E0FFF78DFB401B022801D907
:101F40000320EFE51B480068C0F340600028F2D191
:101F50002CE0A069012800D1E4E51648001D0668C0
:101F6000A069012820D006F48001E06981421BD1DC
:101F700006F03F01206A814216D147F6C07030401A
:101F8000616AB0EB811F0FD106F440310122A06AD3
:101F9000C2EB5000B1EB004F06D106F070612C206F
:101FA000005DB1EB006F01D00120BBE50020B9E579
:101FB00000004742003802407047704710B50346A2
:101FC000002200BF93F83C00012801D1022010BD7F
:101FD000012083F83C0000BF22F0FF00CC6840EAFB
:101FE000040222F440708C6840EA040222F480600B
:101FF0004C6840EA040222F400600C6840EA0402E3
:1020000022F480500C6940EA040222F400504C692A
:1020100040EA040222F48040CC6940EA04021868D5
:10202000426400BF002083F83C0000BF00BFCEE741
:1020300030B502460B4600BF92F83C00012801D1A2
:10204000022030BD012082F83C0000BF022082F84F
:102050003D00106844681068816824F070041868B6
:10206000044310684460184D1068A8421BD01068E3
:10207000B0F1804F17D0154D1068A84213D0144D01
:102080001068A8420FD0134D1068A8420BD0124D13
:102090001068A84207D0114D1068A84203D0104D17
:1020A0001068A84205D121F08001586801431068EA
:1020B0008160012082F83D0000BF002082F83C00D2
:1020C00000BF00BFBDE70000000001400004004069
:1020D00000080040000C00400004014000400140A6
:1020E0000018004010B504460CB9012010BD94F84A
:1020F0003D0028B9002084F83C00204600F026F876
:10210000022084F83D00211D206802F04FF90120D3
:1021100084F8460000BF84F83E0001213F200155AD
:10212000402001554120015500BF00BF012084F827
:10213000420043200155442001554520015500BF70
:10214000012084F83D000020D0E7000008B51F4AB8
:10215000016891420FD100BF002100911C4909681C
:1021600041F010011A4A11601146096801F010018E
:10217000009100BF29E0174A0168914211D100BFC8
:10218000002100911249091D096841F48031104A6B
:10219000121D11601146096801F48031009100BFE1
:1021A00013E00D4A016891420FD100BF0021009158
:1021B0000749096841F04001054A11601146096864
:1021C00001F04001009100BF00BF08BD00100040B9
:1021D000403802400040014000180040014691F89C
:1021E0003D00012801D001207047022081F83D0008
:1021F0000868C06840F001000B68D8601A4B086896
:1022000098421BD00868B0F1804F17D0174B086870
:10221000984213D0164B086898420FD0154B0868A7
:1022200098420BD0144B0868984207D0134B0868AB
:10223000984203D0124B086898420CD10868806815
:1022400000F00702062A0CD00868006840F0010080
:102250000B68186005E00868006840F001000B6832
:1022600018600020C0E700000000014000040040AA
:1022700000080040000C0040000401400040014004
:10228000001800402DE9F04104460D46002700BF2C
:1022900094F83C00012802D10220BDE8F081012021
:1022A00084F83C0000BF022084F83D002068866866
:1022B00026F0770626F47F46206886602868502836
:1022C00033D00CDC202850D004DC00284BD0102860
:1022D00051D149E0302849D040284CD139E060281C
:1022E0002DD0702807D0B0F5805F03D0B0F5005F27
:1022F00041D10DE041E0D5E902136A68206802F09F
:10230000D2F82068866846F077062068866034E058
:10231000D5E902136A68206802F0C5F82068806871
:1023200040F480402168886027E0EA686968206896
:1023300002F0AAF95021206802F0C0F81DE0EA6816
:102340006968206802F0B3F96021206802F0B6F8ED
:1023500013E0EA686968206802F096F94021206875
:1023600002F0ACF809E000BF00BF00BF2968206898
:1023700002F0A4F801E0012700BF00BF012084F8AB
:102380003D0000BF002084F83C0000BF384684E7D1
:102390002DE9F04104460D4614B90120BDE8F08155
:1023A00094F83D0028B9002084F83C00204600F055
:1023B00053F8022084F83D002068806844F2070149
:1023C000884321688860211D206801F0EFFF2068A4
:1023D000D0F80880206886692068076A286840EA83
:1023E000080840F203308643A969A86840EA012042
:1023F000064340F60C4086434FF2F0008643E969FD
:10240000E86840EA0120064328690001296A40EA99
:102410000130064327F0220727F0880769696868BA
:1024200040EA011007432068C0F8088020688661F0
:1024300020680762012084F8460084F83E000121EC
:102440003F200155012084F842004320015501201E
:1024500084F83D000020A1E710B586B004461421A1
:1024600001A8FEF745F82068B0F1804F4CD100BFBD
:10247000002000907848006840F00100764908602C
:102480000846006800F00100009000BF00BF00BFD8
:102490000020009070481038006840F001006E493C
:1024A000103908600846006800F00100009000BF85
:1024B00000BF00BF002000900846006840F0020006
:1024C00008600846006800F00200009000BF00BFEE
:1024D0004FF40040019002200290002003900490ED
:1024E0000120059001A95D48FEF7AEFF082001908C
:1024F000022002900020039004900120059001A981
:102500005748FEF7A1FFA5E05649206888422FD121
:1025100000BF002000905048006840F002004E4983
:1025200008600846006800F00200009000BF00BF8D
:1025300000BF0020009048481038006840F00200BA
:102540004549103908600846006800F00200009014
:1025500000BF00BF302001900220029000200390B5
:1025600004900220059001A93D48FEF76DFF71E03F
:102570003D492068884230D100BF00200090364895
:10258000006840F00400344908600846006800F024
:102590000400009000BF00BF00BF002000902E4844
:1025A0001038006840F008002B49103908600846D0
:1025B000006800F00800009000BF00BF4FF44050DA
:1025C00001900220029000200390049002200590C8
:1025D00001A92648FEF738FF3CE0254920688842DB
:1025E00038D100BF002000901B48001D006840F05B
:1025F00002001949091D08600846006800F0020041
:10260000009000BF00BF00BF0020009012481038AB
:10261000006840F00400104910390860084600685E
:1026200000F00400009000BF00BFC0200190022015
:1026300002900020039004900320059001A90D480A
:10264000FEF702FF00220F212D20FFF7B3F82D2007
:10265000FFF7A0F806B010BD40380240000002406D
:10266000000402400004004000080040000C02404A
:102670000004014000080240704710B5044620687D
:102680000069C0F34000D8B12068C068C0F34000C2
:10269000B0B16FF002002168086101202077206846
:1026A000806900F0030018B12046FFF7E5FF05E060
:1026B000204600F029F9204600F0F6F900202077A6
:1026C00020680069C0F38000D8B12068C068C0F3FA
:1026D0008000B0B16FF0040021680861022020770B
:1026E0002068806900F4407018B12046FFF7C4FFED
:1026F00005E0204600F008F9204600F0D5F900205A
:10270000207720680069C0F3C000D8B12068C06895
:10271000C0F3C000B0B16FF0080021680861042068
:1027200020772068C06900F0030018B12046FFF749
:10273000A3FF05E0204600F0E7F8204600F0B4F9DA
:102740000020207720680069C0F30010D8B120680D
:10275000C068C0F30010B0B16FF0100021680861CC
:10276000082020772068C06900F4407018B1204626
:10277000FFF782FF05E0204600F0C6F8204600F093
:1027800093F9002020772068006900F0010058B11B
:102790002068C06800F0010030B16FF001002168CE
:1027A0000861204600F008FA20680069C0F3C010F4
:1027B00058B12068C068C0F3C01030B16FF080001D
:1027C000216808612046FFF7F7FB20680069C0F325
:1027D000801058B12068C068C0F3801030B16FF02D
:1027E000400021680861204600F0F2F92068006985
:1027F000C0F3401058B12068C068C0F3401030B139
:102800006FF02000216808612046FFF7D6FB10BD5D
:1028100010B586B00446142101A8FDF769FE3449BD
:10282000206888421ED100BF002000903148006817
:1028300040F010002F4908600846006800F01000C2
:10284000009000BF00BF4FF4D440019002200290DE
:102850000020039004900120059001A92648FEF76E
:10286000F3FD43E02549206888421DD100BF0020C8
:1028700000902048006840F010001E49086008469B
:10288000006800F01000009000BF00BF60200190C1
:10289000022002900020039004900320059001A9DB
:1028A0001548FEF7D1FD21E01549206888421DD169
:1028B00000BF002000900F48006840F002000D4962
:1028C00008600846006800F00200009000BF00BFEA
:1028D0004FF44040019002200290002003900490A9
:1028E0000920059001A90748FEF7AEFD06B010BD0E
:1028F000000001403038024000100240004001401A
:10290000001800400004024070472DE9F0410446E1
:102910000D461646002700BF94F83C00012802D15E
:102920000220BDE8F081012084F83C0000BF36B1F0
:10293000042E1BD0082E31D00C2E5ED145E0294646
:10294000206801F0C5FD2068806940F0080021681A
:1029500088612068806920F004002168886120680F
:102960008069296908432168886148E02946206810
:1029700001F0E6FD2068806940F40060216888610C
:102980002068806920F480602168886120688069FF
:10299000296940EA01202168886130E029462068E1
:1029A00001F00CFE2068C06940F008002168C86191
:1029B0002068C06920F004002168C8612068C069EF
:1029C000296908432168C86119E02946206801F097
:1029D00031FE2068C06940F400602168C861206849
:1029E000C06920F480602168C8612068C0692969D5
:1029F00040EA01202168C86101E0012700BF00BF53
:102A000000BF002084F83C0000BF384689E710B5BD
:102A100004460CB9012010BD94F83D0028B90020EF
:102A200084F83C00204600F025F8022084F83D00A0
:102A3000211D206801F0BAFC012084F8460000BF87
:102A400084F83E0001213F200155402001554120DE
:102A5000015500BF00BF012084F84200432001550A
:102A6000442001554520015500BF012084F83D0058
:102A70000020D0E708B50A4A016891420FD100BF93
:102A8000002100910749096841F00101054A1160E0
:102A90001146096801F00101009100BF00BF08BDA7
:102AA00000000140443802407047000070B5044601
:102AB0000D4615B994F83E000BE0042D02D13F20DD
:102AC000005D06E0082D02D14020005D01E04120BC
:102AD000005D012801D0012070BD1DB9022084F8DD
:102AE0003E000EE0042D03D102213F20015508E0F5
:102AF000082D03D102214020015502E0022141208E
:102B0000015501222946206801F0BCFC23492068B8
:102B1000884203D022492068884201D1012000E088
:102B2000002028B12068406C40F4004021684864CF
:102B30001A49206888421BD02068B0F1804F17D016
:102B400018492068884213D01749206888420FD05E
:102B50001649206888420BD011492068884207D066
:102B600013492068884203D01249206888420CD15A
:102B70002068806800F00706062E0CD020680068E8
:102B800040F001002168086005E02068006840F01E
:102B900001002168086000209EE70000000001405D
:102BA000000401400004004000080040000C004008
:102BB000004001400018004010B504460349206859
:102BC000884201D1FEF74CFD10BD000000200040FE
:102BD0007047704770B50446002520684069C0F30F
:102BE000C01594F83D00212817D1B5B100BF00BF32
:102BF0002168143151E8001F21F080002168143150
:102C000041E80002002AF3D100BF606B10B1606B95
:102C1000FEF7BBF9204601F089FE20684069C0F349
:102C2000801594F83E00222817D1B5B100BF00BF2F
:102C30002168143151E8001F21F04000216814314F
:102C400041E80002002AF3D100BFA06B10B1A06BD5
:102C5000FEF79BF9204601F023FE002070BD70476F
:102C60002DE9F84F0446206805682068C66820688A
:102C700047694FF00009CA4605F00F09B9F1000F86
:102C80000AD105F0200038B106F0200020B120461E
:102C900001F05FFEBDE8F88FB9F1000F7CD007F0BE
:102CA000010018B906F49070002875D005F00100F5
:102CB00030B106F4807018B1206C40F0010020643F
:102CC00005F0040030B107F0010018B1206C40F0AD
:102CD0000200206405F0020030B107F0010018B1D5
:102CE000206C40F00400206405F0080048B106F0B4
:102CF000200010B907F0010018B1206C40F0080066
:102D00002064206C002846D005F0200028B106F091
:102D1000200010B1204601F01CFE20684069C0F37D
:102D2000801A206C00F0080010B9BAF1000F2DD005
:102D3000204601F0B5FD2068406900F040004028C1
:102D400020D100BF00BF2168143151E8001F21F0DD
:102D500040002168143141E80002002AF3D100BF8D
:102D6000A06B50B17548A16B0865A06BFEF763F9C5
:102D700088B1A06B016D88470DE02046FFF76FFF1B
:102D800009E009E02046FFF76AFF04E02046FFF76C
:102D900066FF002020647DE7206B012876D105F0D6
:102DA0001000002872D006F010000028FAD000BFF2
:102DB0000020009020680068009020684068009023
:102DC00000BF00BF2068406900F0400040285ED18D
:102DD000A06B006840681FFA80F8B8F1000F54D06B
:102DE000A08D404551DDA4F82E80A06BC069B0F5E0
:102DF000807F43D000BF00BF21680C3151E8001F25
:102E000021F4807021680C3141E80002002AF3D1DE
:102E100000BF00BF00BF2168143151E8001F21F03E
:102E200001002168143141E80002002AF3D100BFFB
:102E300000BF00BF2168143151E8001F21F040009D
:102E40002168143141E80002002AF3D100BF20209C
:102E500084F83E000020206300BF00BF21680C31D1
:102E600051E8001F21F0100021680C3141E80002F8
:102E7000002AF3D100BFA06BFEF787F8A08DE28D8A
:102E8000801A81B22046FFF7A4FE03E740E0A08D40
:102E9000E18D401A1FFA80F8E08DC0B3B8F1000F41
:102EA00035D000BF00BF21680C3151E8001F21F46C
:102EB000907021680C3141E80002002AF3D100BF74
:102EC00000BF00BF2168143151E8001F21F001004C
:102ED0002168143141E80002002AF3D100BF20200C
:102EE00084F83E000020206300BF00BF21680C3141
:102EF00051E8001F21F0100021680C3141E8000268
:102F0000002AF3D100BF41462046FFF762FEC1E62A
:102F100005F0800030B106F0800018B1204601F0C5
:102F20002DFFB7E605F0400030B106F0400018B1C3
:102F3000204601F0EBFCADE600BFABE66D470008B4
:102F400010B504460CB9012010BDA06900B100E025
:102F500000BF94F83D0028B9002084F83C002046CA
:102F600000F028F8242084F83D002068C06820F490
:102F700000502168C860204601F084FD2068006987
:102F800020F49040216808612068406920F02A0000
:102F9000216848612068C06840F400502168C8601A
:102FA00000202064202084F83D0084F83E000020AA
:102FB000CAE7000010B586B00446142101A8FDF749
:102FC00097FA3D492068884274D100BF00200090E4
:102FD0003A48006840F01000384908600846006828
:102FE00000F01000009000BF00BF00BF0020009064
:102FF00032481438006840F0010030491439086044
:103000000846006800F00100009000BF00BF4FF4C8
:10301000C0600190022002900020039003200490E1
:103020000720059001A92648FEF70EFA25482649F3
:1030300008604FF000604860002123488160C16053
:103040004FF480610161002141618161C1610162D0
:103050004162FEF725F908B1FDF794FF00BF1A4859
:10306000A063846300BF17487830184908604FF0A8
:10307000006048604021154881600021C1604FF424
:1030800080610161002141618161C1610162416230
:10309000FEF706F908B1FDF775FF00BF0B48606346
:1030A000846300BF002205212520FEF783FB252035
:1030B000FEF770FB06B010BD00100140443802401E
:1030C0000000024040640240000400206004002030
:1030D00070B504460D46164694F83E00202816D1D9
:1030E00005B10EB9012070BD00BF94F83C00012865
:1030F00001D10220F7E7012084F83C0000BF002046
:10310000206332462946204601F0D2FDEBE702203B
:10311000E9E7704770472DE9F84F04460E46174619
:1031200099464FF0000A94F83D0020285AD106B184
:1031300017B90120BDE8F88F00BF94F83C000128C2
:1031400001D10220F6E7012084F83C0000BF0020F6
:103150002064212084F83D00FEF77CFA8246A78493
:10316000E784A068B0F5805F04D1206910B900251C
:10317000B04602E035464FF0000800BF002084F85A
:103180003C0000BF1BE05346002280212046CDF8C2
:10319000009001F023FE08B10320CBE745B9B8F851
:1031A0000000C0F308002168486008F1020803E04D
:1031B0002878216848606D1CE08C401EE084E08C1B
:1031C0000028E0D15346002240212046CDF800904F
:1031D00001F004FE08B10320ACE7202084F83D0094
:1031E0000020A7E70220A5E7704700BFFEE7000028
:1031F00070B52DED0A8B04460D46281B3749086033
:103200000968374A1268881A03F0E5FF41EC1B0B86
:10321000344890ED000B53EC102B51EC1B0B03F0DA
:10322000F1FF41EC180B2D48006803F0D4FF41EC8E
:103230001B0B2D4890ED000B53EC102B51EC1B0B8E
:1032400003F0E0FF41EC190B24490968244A126895
:10325000022303FB1211254A1268881803F0BBFFF2
:1032600041EC1B0B224890ED000B53EC102B51EC62
:103270001B0B03F0C7FF41EC1A0B194800681B49F0
:103280000860164800681649086053EC192B51EC89
:10329000180B03F0C9FE41EC1C0B53EC1A2B03F086
:1032A000C3FE41EC1B0B03F067FF12490968081AC3
:1032B0001049086008460068B0F57A7F02DD4FF4D7
:1032C0007A7008600B480068002802DA002009497B
:1032D000086008480068BDEC0A8B70BD380000200B
:1032E0003C0000202000002028000020400000209A
:1032F000300000204400002070B52DED0A8B0446FC
:103300000D46281B374908600968374A1268881A31
:1033100003F061FF41EC1B0B344890ED000B53ECC4
:10332000102B51EC1B0B03F06DFF41EC180B2D48DB
:10333000006803F050FF41EC1B0B2D4890ED000B93
:1033400053EC102B51EC1B0B03F05CFF41EC190B01
:1033500024490968244A1268022303FB1211254AF2
:103360001268881803F037FF41EC1B0B224890EDE0
:10337000000B53EC102B51EC1B0B03F043FF41EC03
:103380001A0B194800681B4908601648006816495E
:10339000086053EC192B51EC180B03F045FE41EC7F
:1033A0001C0B53EC1A2B03F03FFE41EC1B0B03F0FC
:1033B000E3FE12490968081A1049086008460068C7
:1033C000B0F57A7F02DD4FF47A7008600B48006830
:1033D000002802DA00200949086008480068BDECAE
:1033E0000A8B70BD480000204C0000202000002007
:1033F0002800002050000020300000205400002051
:1034000070B52DED0A8B04460D46281B3749086020
:103410000968374A1268881A03F0DDFE41EC1B0B7D
:10342000344890ED000B53EC102B51EC1B0B03F0C8
:10343000E9FE41EC180B2D48006803F0CCFE41EC8E
:103440001B0B2D4890ED000B53EC102B51EC1B0B7C
:1034500003F0D8FE41EC190B24490968244A12688C
:10346000022303FB1211254A1268881803F0B3FEE9
:1034700041EC1B0B224890ED000B53EC102B51EC50
:103480001B0B03F0BFFE41EC1A0B194800681B49E7
:103490000860164800681649086053EC192B51EC77
:1034A000180B03F0C1FD41EC1C0B53EC1A2B03F07D
:1034B000BBFD41EC1B0B03F05FFE12490968081AC3
:1034C0001049086008460068B0F57A7F02DD4FF4C5
:1034D0007A7008600B480068002802DA0020094969
:1034E000086008480068BDEC0A8B70BD58000020D9
:1034F0005C00002020000020280000206000002048
:10350000300000206400002070B52DED0A8B0446C9
:103510000D46281B374908600968374A1268881A1F
:1035200003F059FE41EC1B0B344890ED000B53ECBB
:10353000102B51EC1B0B03F065FE41EC180B2D48D2
:10354000006803F048FE41EC1B0B2D4890ED000B8A
:1035500053EC102B51EC1B0B03F054FE41EC190BF8
:1035600024490968244A1268022303FB1211254AE0
:103570001268881803F02FFE41EC1B0B224890EDD7
:10358000000B53EC102B51EC1B0B03F03BFE41ECFA
:103590001A0B194800681B4908601648006816494C
:1035A000086053EC192B51EC180B03F03DFD41EC76
:1035B0001C0B53EC1A2B03F037FD41EC1B0B03F0F3
:1035C000DBFD12490968081A1049086008460068BE
:1035D000B0F57A7F02DD4FF47A7008600B4800681E
:1035E000002802DA00200949086008480068BDEC9C
:1035F0000A8B70BD680000206C00002020000020B5
:1036000028000020700000203000002074000020FE
:1036100008B500BF002000900E48006840F480000C
:103620000C4908600846006800F48000009000BF64
:1036300000BF002205213A20FEF7BCF83A20FEF731
:10364000A9F8002205214620FEF7B4F84620FEF72F
:10365000A1F808BD3038024010B50E4A00210E48CE
:1036600001F04CFD0D4908600D4A00210D4801F0A4
:1036700045FD0D4908600D4A00210D4801F03EFD51
:103680000C4908600C4A00210C4801F037FD0C4938
:10369000086010BDE075000865400008A800002023
:1036A00004760008ED400008AC00002028760008F1
:1036B0002D410008B00000204C7600085941000858
:1036C000B400002000B587B0142102A8FCF710FF59
:1036D00000BF002001905948006840F01000574991
:1036E00008600846006800F01000019000BF00BFAD
:1036F00000BF002001900846006840F00400086008
:103700000846006800F00400019000BF00BF00BF41
:10371000002001900846006840F0800008600846DC
:10372000006800F08000019000BF00BF00BF0020D3
:1037300001900846006840F00200086008460068F2
:1037400000F00200019000BF00BF00BF0020019008
:103750000846006840F0080008600846006800F06D
:103760000800019000BF00BF00BF00200190084684
:10377000006840F0010008600846006800F00100A1
:10378000019000BF00BF002202212D48FDF75CFF21
:1037900001220C212A48FDF757FF01224FF48A61CC
:1037A0002848FDF751FF00224FF40A612548FDF734
:1037B0004BFF012240212448FDF746FF00228021D3
:1037C0002148FDF741FF01200290002003900220D4
:1037D000049002A91A48FDF737FE06200290012046
:1037E0000390002004900220059002A91448FDF7E0
:1037F0002BFE08200290012003900020049003205B
:10380000059002A90E48FDF71FFE4FF44F6002908D
:103810000120039000200490059002A90948FDF7BB
:1038200013FEC02002900120039000200490059018
:1038300002A90548FDF708FE07B000BD3038024078
:1038400000080240000C02400004024000B58BB0AA
:1038500000200790089009900A901C216846FCF708
:1038600047FE1F481F4908604FF45270486000210E
:103870001C4881604FF47A71C1600021016181614F
:10388000FEF730FC08B1FDF77DFB4FF48050079048
:1038900007A91448FEF7F6FC08B1FDF773FB1148C1
:1038A000FFF7B5F808B1FDF76DFB60200090002030
:1038B000019002900490002269460A48FFF725F81B
:1038C00008B1FDF75FFB042269460648FFF71DF8C3
:1038D00008B1FDF757FB0348FEF79AFF0BB000BD98
:1038E000001800407403002000B591B000200F9034
:1038F00010901C2108A8FCF7FBFD20216846FCF76E
:10390000F7FD2F482F4908604FF4D260486000212E
:103910002C4881604FF6FF71C16000210161416157
:103920008161FFF774F808B1FDF72CFB00200F90C0
:1039300010900FA92348FEF77BFB08B1FDF722FB8F
:1039400060200890002009900A900B900C900D9038
:103950000E90002208A91B48FEF7D7FF08B1FDF71B
:1039600011FB042208A91748FEF7CFFF08B1FDF7A5
:1039700009FB082208A91348FEF7C7FF08B1FDF7A5
:1039800001FB0C2208A90F48FEF7BFFF08B1FDF7A5
:10399000F9FA0020009001900290039004904FF4F7
:1039A000005005900020079069460648FEF706FB88
:1039B00008B1FDF7E7FA0348FEF72AFF11B000BD92
:1039C000000001407C01002000B58BB0242102A83A
:1039D000FCF78EFD0020009001904FF080401749C9
:1039E000086000204860002114488160491EC160C1
:1039F00000210161816103200290002003900120D9
:103A00000490002005900690079001200890002067
:103A100009900A9002A90948FEF7BAFC08B1FDF71F
:103A2000B1FA00200090019069460448FEF700FBBF
:103A300008B1FDF7A7FA0BB000BD0000C4010020DB
:103A400000B58BB0242102A8FCF752FD00200090A5
:103A50000190184818490860002048600021164865
:103A600081604FF6FF71C160002101618161032017
:103A70000290002003900120049000200590069001
:103A8000079001200890002009900A9002A90A4896
:103A9000FEF77EFC08B1FDF775FA0020009001905A
:103AA00069460548FEF7C4FA08B1FDF76BFA0BB09A
:103AB00000BD0000000400400C02002000B58BB0E7
:103AC000242102A8FCF714FD002000900190184862
:103AD00018490860002048600021164881604FF6B0
:103AE000FF71C1600021016181610320029000200B
:103AF000039001200490002005900690079001207B
:103B00000890002009900A9002A90A48FEF740FC9C
:103B100008B1FDF737FA002000900190694605488A
:103B2000FEF786FA08B1FDF72DFA0BB000BD0000D4
:103B300000080040540200201CB5002000900190B5
:103B40000E480F49086042F2CF00486000210C483F
:103B5000816040F28F11C16000218161FEF7C2FADD
:103B600008B1FDF70FFA0020009001906946044863
:103B7000FEF75EFA08B1FDF705FA1CBD0010004023
:103B80009C02002000B58BB0242102A8FCF7B0FCF9
:103B900000200090019018481849086000204860F3
:103BA0000021164881604FF6FF71C160002101615C
:103BB0004161816103200290002003900120049064
:103BC00000200590069007900120089000200990A1
:103BD0000A9002A90948FEF7DBFB08B1FDF7D2F90C
:103BE00000200090019069460448FEF721FA08B1D0
:103BF000FDF7C8F90BB000BD00040140E40200204D
:103C000000B58BB000200790089009900A901C2105
:103C10006846FCF76DFC1F481F4908604FF452705E
:103C2000486000211C4881604FF47A71C160002116
:103C300001618161FEF756FA08B1FDF7A3F94FF46F
:103C40008050079007A91448FEF71CFB08B1FDF748
:103C500099F91148FEF7DBFE08B1FDF793F96020F2
:103C600000900020019002900490002269460A48CA
:103C7000FEF74BFE08B1FDF785F9042269460648B8
:103C8000FEF743FE08B1FDF77DF90348FEF7C0FDDE
:103C90000BB000BD004001402C03002010B50B48C4
:103CA0000B4908604FF4E13048600021084881600A
:103CB000C16001610C21416100218161C161FFF797
:103CC0003FF908B1FDF75EF910BD0000001001409A
:103CD000BC03002000BFFEE700BFFEE7014601482D
:103CE000405C704770010020002004E00021034A7E
:103CF0001154411CC8B20928F8DB7047700100203C
:103D000038B5044601200090002022494870012067
:103D1000009036E0BDF80000204028B101220221C9
:103D20001D48FDF791FC04E0002202211A48FDF72E
:103D30008BFC012208211848FDF786FC052001F0C4
:103D40000BF9002208211448FDF77EFC052001F044
:103D500003F9012208211048FDF776FC01210E48E5
:103D6000FDF76AFC30B10B484078BDF800100843FD
:103D700008494870BDF800004FF6FF7101EA4000A5
:103D80000090BDF80000FF28C4DD102001F0E4F829
:103D900038BD0000700100200008024010B5FFF798
:103DA000A3FF00F085F80F48C0780E49097940EA72
:103DB00001200D49088000240FE00C4810F8140081
:103DC000401E012101FA00F007490988084010B996
:103DD000601CC0B210BD601CC4B2102CEDDB002012
:103DE000F8E7000070010020780000207C0000202F
:103DF00010B5002204211548FDF726FC102001F023
:103E0000ABF80120FFF77CFF4320FFF779FF00208C
:103E1000FFF776FF0120FFF773FF0020FFF770FF29
:103E20000020FFF76DFF0020FFF76AFF0020FFF77B
:103E300067FF0020FFF764FF012204210348FDF71C
:103E400003FC102001F088F810BD000000080240BB
:103E500010B5002204211548FDF7F6FB102001F0F3
:103E60007BF80120FFF74CFF4320FFF749FF0020BC
:103E7000FFF746FF0020FFF743FF5A20FFF740FF00
:103E80005A20FFF73DFF5A20FFF73AFF5A20FFF76D
:103E900037FF5A20FFF734FF012204210348FDF7C2
:103EA000D3FB102001F058F810BD000000080240BC
:103EB0001CB5002001900120009000220421294817
:103EC000FDF7C2FB28490878FFF71AFF2649487812
:103ED000FFF716FF022001903AE0012000902BE04E
:103EE000012208211F48FDF7AFFB052001F034F83F
:103EF000002208211B48FDF7A7FB052001F02CF844
:103F0000012208211748FDF79FFB01211548FDF705
:103F100093FB50B115489DF80410405CBDF80010AB
:103F2000084312499DF804208854BDF800004FF65C
:103F3000FF7101EA40000090BDF80000FF28CFDDCE
:103F4000102001F009F89DF80400401CC0B2019057
:103F50009DF804000928C0DB012204210148FDF777
:103F600073FB1CBD000802407A0000207001002095
:103F700010B500F00BF800F009F800F007F8FFF7B3
:103F800037FF00F027F8FFF763FF10BD10B50022E0
:103F900004210F48FDF758FB102000F0DDFF012041
:103FA000FFF7AEFE4220FFF7ABFE0020FFF7A8FEB2
:103FB0000020FFF7A5FE0020FFF7A2FE012204214A
:103FC0000348FDF741FB102000F0C6FF10BD0000C4
:103FD0000008024010B5002204211348FDF734FB0D
:103FE0000120FFF78DFE4420FFF78AFE0020FFF737
:103FF00087FE0120FFF784FEEE20FFF781FE002000
:10400000FFF77EFE0020FFF77BFE0020FFF778FE23
:104010000020FFF775FE012204210348FDF714FB81
:10402000102000F099FF10BD00080240002900DABE
:104030004942412802D1094A12685163422802D1FB
:10404000064A12689163432802D1054A12685163F7
:10405000442802D1024A1268916370472C03002061
:104060007403002000BF0720FFF738FE18490870CE
:104070000820FFF733FE174908700520FFF72EFED2
:10408000154908700620FFF729FE14490870FFF74C
:1040900085FE13490870084600780B2802D10120DC
:1040A000104908700E480078092802D100200D49F7
:1040B00008700B4800780C2803D196200A49086440
:1040C00002E06420084908641E2000F0C1FFCAE72E
:1040D0009C0000209D0000209E0000209F000020EA
:1040E000A0000020CC0000200000014000BFFCF731
:1040F0009BFE282000F0ACFF00F0D8FE07490860C6
:1041000000F0C2FE0649086000F0E2FE05490860C2
:1041100000F0F0FE04490860E9E700001400002008
:1041200010000020180000201C00002000BF0749DC
:104130000978C1F1FF0006490A7806490978FCF7B9
:104140003FFB0A2000F084FFF1E700009E00002002
:10415000A00000209F0000204FF47A704D49486372
:10416000886300BF4C48007898B94C48007808280C
:1041700005D14B480088401C00B249490880474897
:104180000078062805D146480088401E00B2444900
:1041900008804148007898B940480078052805D142
:1041A00040480088401C00B23E4908803B480078E7
:1041B000072805D13B480088401E00B239490880D5
:1041C0003748B0F9000040F22E41884202DD08462F
:1041D000334908803248B0F9000040F25231884239
:1041E00002DA08462E4908802E48B0F90000B0F5E2
:1041F0007A7F03DD4FF47A702A4908802948B0F9A4
:10420000000040F2CA31884202DA08462549088097
:10421000254800882349B1F90010884205DA224870
:104220000088401C204908800BE01F4800881D4979
:10423000B1F90010884204DD1B480088401E1A496D
:1042400008801948008813494863184800881449B1
:10425000B1F90010884205DA14480088401C13495F
:1042600008800BE0114800880D49B1F90010884220
:1042700004DD0E480088401E0C4908800B48008869
:104280000449C8630848008848630A2000F0E0FE3B
:1042900068E7000000000140CC000020A0000020E2
:1042A000C6000020C4000020A2000020A4000020BE
:1042B00010B54FF0E020006902F060FC012801D049
:1042C00002F0AAF810BD000000B593B0302107A895
:1042D000FCF70EF9142102A8FCF70AF900BF002030
:1042E00001902548006840F0805023490860084646
:1042F000006800F08050019000BF00BF00BF0020A8
:1043000001901E48006840F480401C49086008463F
:10431000006800F48040019000BF00BF02200790B9
:1043200001200A9010200B9002200D9000210E9188
:1043300008210F91A82110910221119104211291BD
:1043400007A8FDF7EBFB08B1FCF71CFE0F2002905D
:1043500002200390002004904FF4A05005904FF4E9
:1043600080500690052102A8FDF776FA08B1FCF707
:1043700009FE13B000BD000040380240007000404C
:104380000348006840F4700001490860704700006D
:1043900088ED00E010B50348FEF76FF90248FEF71C
:1043A0006CF910BDE4020020C006002010B50268C0
:1043B000294B98420ED0B0F1804F0BD0274B98423A
:1043C00008D0274B984205D0264B984202D0264B66
:1043D000984203D122F070024B681A431E4B984258
:1043E00020D0B0F1804F1DD01C4B98421AD01C4BEE
:1043F000984217D01B4B984214D01B4B984211D0B7
:104400001A4B98420ED01A4B98420BD0194B984237
:1044100008D0194B984205D0184B984202D0184B3F
:10442000984203D122F44072CB681A4322F08003F1
:104430004C6943EA040202608B68C3620B688362C2
:10444000054B984202D0084B984201D10B69036397
:104450000123436110BD0000000001400004004042
:1044600000080040000C00400004014000400140F2
:10447000004401400048014000180040001C00407A
:104480000020004030B501F01F05012404FA05F3B7
:10449000046A9C430462046A01F01F0502FA05F5F0
:1044A0002C43046230BD30B50C46816821F47F4155
:1044B00042EA032525432943816030BD0A468168CD
:1044C00021F0700142F0070319438160704700003A
:1044D00030B5056A25F001050562026A4368846902
:1044E00024F0700424F003040D682C4322F002022F
:1044F0008D682A43104DA84200D103E00F4DA84219
:1045000006D100BF22F00802CD682A4322F004023F
:10451000094DA84202D0094DA84207D123F4807367
:1045200023F400734D692B438D692B4343608461F1
:104530004D684563026230BD000001400004014047
:1045400030B5056A25F010050562026A4368846982
:1045500024F4E04424F440740D6844EA052422F075
:1045600020028D6842EA0512124DA84200D103E0F4
:10457000114DA84207D100BF22F08002CD6842EA67
:10458000051222F040020B4DA84202D00A4DA8426B
:1045900009D123F4806323F400634D6943EA850362
:1045A0008D6943EA8503436084614D6885630262D7
:1045B00030BD0000000001400004014030B5056A34
:1045C00025F480750562026A4368C46924F07004AA
:1045D00024F003040D682C4322F400728D6842EA33
:1045E0000522124DA84200D103E0114DA84207D187
:1045F00000BF22F40062CD6842EA052222F4806204
:104600000A4DA84202D00A4DA84209D123F4805392
:1046100023F400534D6943EA05138D6943EA0513FA
:104620004360C4614D68C563026230BD0000014053
:104630000004014030B5056A25F480550562036A1F
:104640004468C26922F4E04222F440720D6842EAF2
:10465000052223F400538D6843EA0533084DA84230
:1046600002D0084DA84204D124F480444D6944EAA4
:1046700085144460C2614D680564036230BD00006A
:10468000000001400004014030B50B461446026AA8
:10469000056A25F001050562816921F0F00141EA12
:1046A000041122F00A021A438161026230BD30B562
:1046B0000B461446056A25F0100505628169026AF9
:1046C00021F4704141EA043122F0A00242EA0312CF
:1046D0008161026230BD000010B51D48FEF77AFA14
:1046E0001C4800684068C0F1FF001B490880642333
:1046F0000846028819491648FEF70DFD184800784B
:1047000001281FD11548407811280BDD134949783D
:10471000C1F18000FBF7A4FF12490988084400B2E8
:10472000104908800D48007811280BDD0B490978E5
:10473000C1F18000FBF7ECFF0B490988084400B287
:1047400009490880FF2205490148FEF7C1FC10BD58
:10475000BC03002000040020CE000020C004002084
:10476000CC000020C4000020C600002070B5054623
:10477000AC6B0020E085E0842046FEF770FA70BD47
:1047800070B506460025B46B20684069C0F3C015BB
:1047900094F83D00212805D125B10020E084204671
:1047A00000F0C4F820684069C0F3801594F83E001A
:1047B000222805D125B10020E085204600F070F8C0
:1047C000206C40F0100020642046FEF748FA70BDCF
:1047D00070B50546AC6B2868006800F4807000284E
:1047E00042D1E08500BF00BF21680C3151E8001FB5
:1047F00021F4807021680C3141E80002002AF3D1D5
:1048000000BF00BF00BF2168143151E8001F21F034
:1048100001002168143141E80002002AF3D100BFF1
:1048200000BF00BF2168143151E8001F21F0400093
:104830002168143141E80002002AF3D100BF202092
:1048400084F83E00206B01280ED100BF00BF216814
:104850000C3151E8001F21F0100021680C3141E8B3
:104860000002002AF3D100BF206B012804D1A18DE2
:104870002046FEF7AEF902E02046FEF74AFC70BD86
:1048800070B50546AC6B206B012805D1A08D4108A1
:104890002046FEF79EF902E02046FEF73BFC70BD85
:1048A00000BF00BF02680C3252E8002F22F4907162
:1048B00002680C3242E80013002BF3D100BF00BFA6
:1048C00000BF0268143252E8002F22F00101026892
:1048D000143242E80013002BF3D100BF016B012911
:1048E0000ED100BF00BF02680C3252E8002F22F048
:1048F000100102680C3242E80013002BF3D100BF14
:10490000202180F83E1000210163704710B5044655
:104910002068C06820F040002168C860202084F82A
:104920003D002046FEF760FC002010BD00BF00BF28
:1049300002680C3252E8002F22F0C00102680C32EB
:1049400042E80013002BF3D100BF202180F83D1076
:104950007047F8B5044694F83E00222873D1A06849
:10496000B0F5805F0CD1206950B90025A66A206897
:104970004068C0F308003080A06A801CA06215E087
:10498000A56A0026A068B0F5805F03D0A06828B9AA
:10499000206918B920684068287004E020684068E1
:1049A00000F07F002870A06A401CA062E08D401ECD
:1049B00080B2E085002844D12068C06820F0200043
:1049C0002168C8602068C06820F480702168C860D1
:1049D0002068406920F0010021684861202084F8A7
:1049E0003E00206B012826D10020206300BF00BFBD
:1049F00021680C3151E8001F21F0100021680C31B2
:104A000041E80002002AF3D100BF2068006800F0EE
:104A1000100010280AD100BF002000902068006814
:104A2000009020684068009000BF00BFA18D204624
:104A3000FEF7CFF802E02046FEF76BFB0020F8BD42
:104A400001E00020FBE70220F9E7000038B504464A
:104A50000B480068006800F01000102800D038BD36
:104A600000BF002000902068006800902068406827
:104A7000009000BF00BFFFF72FFE00BFEFE7000070
:104A8000BC0300202DE9F84F04462068006920F49B
:104A90004050E1680843216808612169A068084323
:104AA00061690843E169084300902068C06849F2E1
:104AB0000C618843009908432168C86020684069F8
:104AC00020F44070A1690843216848617649206854
:104AD000884203D075492068884203D1FCF7B6FFAD
:104AE000814602E0FCF7A2FF8146E069B0F5004F85
:104AF0006CD102206168A0FB015003461920A9FB7C
:104B0000007001462A463846FBF72EFC6421B0FBB4
:104B1000F1F04FEA001A02206168A0FB01510B4638
:104B20001920A9FB00712A463846FBF71DFC834675
:104B300002206168A0FB015003461920A9FB007107
:104B40002A463846FBF710FC6421B0FBF1F000EB7D
:104B5000C00101EB0010ABEB8000322101EBC00083
:104B60006421B0FBF1F000F0F8000AEB400A0220EB
:104B70006168A0FB015003461920A9FB00700146A3
:104B80002A463846FBF7F0FB834602206168A0FB0B
:104B9000015003461920A9FB00712A463846FBF74D
:104BA000E3FB6421B0FBF1F000EBC00101EB00106E
:104BB000ABEB8000322101EBC0006421B0FBF1F0CF
:104BC00000F007005044216888606AE004206168B2
:104BD000A0FB015003461920A9FB007001462A469C
:104BE0003846FBF7C1FB824604206168A0FB0150F8
:104BF00003461920A9FB007001462A463846FBF7F8
:104C0000B3FB6421B0FBF1F000EBC00101EB00103D
:104C1000AAEB8000322101EB00106421B0FBF1F01F
:104C200000F0F00A04206168A0FB0170034619201F
:104C3000A9FB00513A462846FBF796FB6421B0FBDE
:104C4000F1F00AEB001A04206168A0FB01510B4649
:104C50001920A9FB00712A463846FBF785FB8346DD
:104C600004206168A0FB015003461920A9FB0070D5
:104C700001462A463846FBF777FB6421B0FBF1F08A
:104C800000EBC00101EB0010ABEB8000322101EB27
:104C900000106421B0FBF1F000F00F0050442168D7
:104CA0008860BDE8F88F000000100140001401404A
:104CB00077B581B0044615460298A062A58500200C
:104CC0002064222084F83E002948A16BC86329484B
:104CD000A16B08642848A16BC8640020A16B08651B
:104CE00002AE32682368191D2B46A06BFCF74EFB01
:104CF00000BF002000902068006800902068406895
:104D0000009000BF00BF00BF002084F83C0000BF3F
:104D100000BF00BF21680C3151E8001F41F48070D2
:104D200021680C3141E80002002AF3D100BF00BF26
:104D300000BF2168143151E8001F41F001002168D3
:104D4000143141E80002002AF3D100BF00BF00BFC8
:104D50002168143151E8001F41F0400021681431EE
:104D600041E80002002AF3D100BF002004B070BD6A
:104D7000D14700088148000881470008014691F8A2
:104D80003D00212828D18868B0F5805F0BD10869E3
:104D900048B90A6A1088C0F308000B685860086AAE
:104DA000801C086205E00B6A581C086218780B68C2
:104DB0005860C88C401E80B2C88458B90868C06862
:104DC00020F080000B68D8600868C06840F04000A0
:104DD0000B68D860002070470220FCE72DE9F04105
:104DE00004460D4617469846069E34E0701C88B36C
:104DF0002EB1FCF72FFCA0EB0800B0422BD900BF6E
:104E000000BF21680C3151E8001F21F4D0702168E7
:104E10000C3141E80002002AF3D100BF00BF00BFFF
:104E20002168143151E8001F21F00100216814317C
:104E300041E80002002AF3D100BF202084F83D00A1
:104E400084F83E0000BF002084F83C0000BF03202F
:104E5000BDE8F081FFE7206800682840A84201D142
:104E6000012000E00020B842C0D00020F0E70000A0
:104E700010B50348FFF7EAFD0148FDF7F1FE10BD4C
:104E8000BC03002000BFFEE707480068406A00B28C
:104E9000A0F51C51103940F2DC5048434FF4A56294
:104EA00090FBF2F0704700000C02002007480068F9
:104EB000406A00B2A0F51C51103940F2DC50484362
:104EC0004FF4A56290FBF2F07047000054020020FE
:104ED00007480068406A00B2A0F51C51103940F242
:104EE000DC5048434FF4A56290FBF2F0704700009D
:104EF000C401002007480068406A00B2A0F51C51B8
:104F0000103940F2DC5048434FF4A56290FBF2F0B8
:104F100070470000E402002002480068C0F302204D
:104F2000704700000CED00E010B5002804DB0A0714
:104F3000130E054A135406E00A07140E034A00F044
:104F40000F031B1FD45410BD00E400E018ED00E077
:104F5000EFF30580704700002DE9F04180464FF0E7
:104F6000E0208569FCF776FB0746542008FB00F635
:104F7000AE420ED900BFFCF76DFBB842FBD00B4828
:104F80002844841B00BF4FF0E0208069A042FAD87B
:104F90000AE0AC1B00BF4FF0E0208069A04203D9BB
:104FA000FCF758FBB842F6D0BDE8F081204801007C
:104FB000FCF762FBFFF788F9FEF784FBFEF740FD84
:104FC000FEF77CFDFEF7B8FDFEF7DCFDFEF718FEF0
:104FD000FEF73CFCFEF762FEFEF7F6FCFEF718FB60
:104FE000FEF782FC00211548FDF760FD04211348FF
:104FF000FDF75CFD00211248FDF758FD0421104823
:10500000FDF754FD01200F4908600F490860810732
:1050100008600E49086040F2DC50FCF701FAFEF728
:10502000A7FF4FF47A60FCF7FBF900F021F8FEF7D8
:1050300013FB00F033F800BFFEE700002C03002054
:1050400074030020000400400008004000040140F8
:1050500070B50546FFF77CFF10B16FF0050404E062
:10506000002415B1284600F0FBFF204670BD00006B
:1050700010B5FFF76DFF10B16FF0050409E00648A9
:10508000006820B9012004490860002401E04FF0C5
:10509000FF34204610BD00004001002070B5FFF72E
:1050A00057FF10B16FF005041FE011480068012898
:1050B00019D100BF801F0021002804DB0A07130E4E
:1050C0000C4A135406E00A07150E0B4A00F00F03B2
:1050D0001B1FD55400BF00BF02200549086001F026
:1050E0003BF8002401E04FF0FF34204670BD000083
:1050F0004001002000E400E018ED00E02DE9FF474A
:1051000080468946144600200390FFF721FF0028BF
:105110004ED1B8F1000F4BD0802618258246471E8D
:1051200044B3206808B1D4F800A0A06900B1A56913
:105130002DB1382D03D8207900F0010018B10020DE
:1051400004B0BDE8F087606908B160698608A068AE
:1051500040B1E0685C2805D3206918B1606908B1E6
:10516000012708E0A06830B9E06820B9206910B9CB
:10517000002700E00027012F0CD12169A0684B46D1
:105180003246CDE9005102905146404601F098FC6C
:1051900003900DE067B903A8B2B24B465146CDE982
:1051A0000050404601F05AFC012801D00020039035
:1051B0000398C5E72DE9F04105460E4616480768F5
:1051C00016480068001D00F0C3FD681C38B936B1F0
:1051D00012480168091D124800F010FE1AE07C19FF
:1051E0000E4800684460BC4207D20C480168091DA3
:1051F0000C48006800F0E8FD0CE008480168091D53
:105200000948006800F0E0FD08480068844201D2C7
:1052100006480460BDE8F08104010020F000002091
:10522000F80B0020F8000020F400002020010020EE
:1052300010B5044600F0EEFD24480068401C2349E8
:1052400008602348006840B92148046008460068A7
:1052500001280DD100F0FCF90AE01E48006838B9B9
:105260001B480068C06AE16A884201D81848046097
:1052700019480068401C18490860084600686064C6
:105280001649E06A0968884202D91449E06A086050
:10529000E16A01EB8101124A02EB8100211D00F05D
:1052A000ADFD00F0E1FD0B48006868B108480068FA
:1052B000C06AE16A884207D24FF08050094908600D
:1052C000BFF34F8FBFF36F8F10BD000000010020B0
:1052D000F00000200C0100201C010020080100202B
:1052E0004807002004ED00E008B500F093FD1248E7
:1052F0000068E8B9114800F057FD114800F054FD6E
:105300000E48104908600E480F49086000200F4BF6
:105310000F4A102100900A2001F098F80649086011
:105320000846006820B10BA10348006800F05CFE4D
:1053300000F09AFD08BD0000340100200C0C002094
:10534000200C00202C01002030010020340C002013
:10535000840C0020546D72510000000010B516E05E
:1053600000F058FD0C48C068C468201D00F0F0FC37
:105370000A480068401E0949086009480068401E44
:105380000749086000F070FD204600F05FF804480F
:1053900000680028E4D110BDE40B002000010020CB
:1053A000FC00002070B504460D46206C70B1216CE5
:1053B000E0680144E160D4E90210884201D3216829
:1053C000E1602846226CE168FBF745F870BD2DE9E5
:1053D000F04104460F4615464FF00008A66B206CBE
:1053E00048B9206800282CD1A06801F07FFC8046D5
:1053F0000020A06025E07DB93946226C6068FBF78B
:105400002AF8216C606808446060D4E90101884290
:1054100017D32068606014E03946226CE068FBF71F
:105420001AF8216CE068411AE1602168E06888425E
:1054300003D2216CA068411AE160022D01D106B1AE
:10544000761E701CA0634046BDE8F08110B504468E
:1054500094F8590030B9206B00F024FD204600F08C
:1054600021FD1AE094F85900012803D1204600F0EC
:1054700019FD12E094F85900022801D1012000E042
:10548000002050B900BF502080F31188BFF34F8F28
:10549000BFF36F8F00BF00BFFEE710BD0146084A93
:1054A000126812680AB9012200E000220A600A6844
:1054B00022B9034A1268D268106800E000207047E1
:1054C0002C01002030B54FF47053174800F007044A
:1054D0002CB1C01D20F00700134C041B1B1B0246FF
:1054E000124C22600024114D6C60D018083820F056
:1054F00007000F4C206000240D4D2D686C600C4D92
:105500002D682C601146441A4C60094C24680C60CC
:10551000084D4C682C60084D4C682C604FF00044DE
:10552000064D2C6030BD0000DC130020440100203B
:105530004C01002054010020500100206001002097
:1055400000BFFFF70BFF064800680128F9D94FF0AC
:10555000805004490860BFF34F8FBFF36F8FF0E7AF
:105560004807002004ED00E02DE9F04106460D4615
:1055700017469846069C0DB9246000E02760E66354
:1055800025640121204600F0D1FF84F84C80BDE85D
:10559000F0812DE9F05F82460E4690469B460A9FB9
:1055A0000C9C4FEA8801A522206BFAF799FFA8F11D
:1055B0000100216B01EB800929F0070909F00700C0
:1055C00008B9012000E0002050B900BF502080F34E
:1055D0001188BFF34F8FBFF36F8F00BF00BFFEE78F
:1055E00086B1002507E0715D04F134004155705D1E
:1055F00000B902E06D1C102DF5D300BF002143203F
:10560000015502E0002084F83400382F00D33727FA
:10561000E762E76400202065201D00F0D2FB04F162
:10562000180000F0CEFB2461C7F13800A06164626D
:105630000020606584F858005A465146484600F0FC
:1056400071FB20600B9808B10B980460BDE8F09FD7
:1056500010B5002407E004EB84010F4A02EB81003F
:1056600000F0A2FB641C382CF5D30C4800F09CFB26
:105670000B4800F099FB0B4800F096FB0A4800F03D
:1056800093FB0A4800F090FB04480949086004486D
:105690000849086010BD000048070020A80B002042
:1056A000BC0B0020D00B0020E40B0020F80B0020E6
:1056B000F4000020F800002010B50146164800E074
:1056C000006803688B42FBD30246436813448B4255
:1056D00004D143684C682344436001460A464B6842
:1056E00013440468A34211D10C4C03682468A342FC
:1056F00008D04B680468646823444B6003681B68E7
:105700000B6005E0054B1B680B6001E003680B6054
:10571000884200D0016010BD440100204C010020EF
:105720002DE9F04104460D4616461F464FF000088D
:1057300065602461B5420CD8F01BA169884202D390
:105740004FF0010811E0211D0948006800F03CFB02
:105750000BE0BE4204D2BD4202D34FF0010804E088
:10576000211D0448006800F02FFB4046BDE8F08191
:10577000300100202C01002070B5054600F04AFBE6
:10578000A86B08B9012400E0002400F06DFB20465E
:1057900070BD70B5054600F03DFBA86BE96B884213
:1057A00001D1012400E0002400F05EFB204670BD22
:1057B000F8B505460F461A480068C068C468201D41
:1057C00000F0C6FA94F8280000F00400E8B1A069DF
:1057D00041192B463A462046FFF7A2FFD8B10020D8
:1057E00003462A4601460090204601F0DBFB0646B0
:1057F00056B900BF502080F31188BFF34F8FBFF31D
:105800006F8F00BF00BFFEE705E094F8280020F08E
:10581000010084F828002046216A8847F8BD00006E
:105820002C010020F0B587B0A0E00398002811DA21
:1058300004AE56B900BF502080F31188BFF34F8FDC
:10584000BFF36F8F00BF00BFFEE7D6E90020B1684D
:10585000904700BF03980028E6DB059C606908B903
:10586000012000E0002010B9201D00F071FA02A80C
:1058700000F0DEF8054603980A2875D2DFE800F04C
:1058800009050739416306083A4200BF00BF00BF5F
:1058900000BF94F8280040F0010084F82800049824
:1058A000A269811803462A462046FFF739FFF8B15E
:1058B0002046216A884794F8280000F00400B8B117
:1058C000002000900498A169421800231946204640
:1058D00001F068FB074657B900BF502080F31188DC
:1058E000BFF34F8FBFF36F8F00BF00BFFEE700BF56
:1058F0003BE000BF94F8280020F0010084F8280065
:1059000033E000BF94F8280040F0010084F828003C
:105910000498A061A06908B1012000E0002050B9FE
:1059200000BF502080F31188BFF34F8FBFF36F8FFC
:1059300000BF00BFFEE7A06941192B462A4620465A
:10594000FFF7EEFE11E094F8280000F0020018B90D
:10595000204600F0A7FA05E094F8280020F00100A6
:1059600084F8280001E0FFE700BF00BF002203A980
:105970000448006800F078FF00287FF456AF07B0B5
:10598000F0BD000034010020F8B505460C4600F0DB
:105990003FFC684600F04CF80646009820BB44B92E
:1059A000B54206D801F040FA31462846FFF700FF1D
:1059B0001CE03CB10E480068006808B9012000E016
:1059C00000200446A91B22460A48006800F022FB7A
:1059D00001F02AFA50B94FF0805007490860BFF330
:1059E0004F8FBFF36F8F01E001F01EFAF8BD00008A
:1059F000300100203401002004ED00E00A4909686C
:105A0000096809B9012100E0002121B14FF0FF31FF
:105A1000064A116006E004490968C968C868034A73
:105A20004168116070470000F40000202001002050
:105A300070B5044601F0B2F8054607480068854293
:105A400004D200F00BF80120206001E0002020606B
:105A500001480560284670BD3C0100202DE9F8434F
:105A600034E025480068C068056823480068C068BD
:105A7000C468201D00F06CF92046216A884794F81C
:105A8000280000F0040008B3A0694619AE4207D907
:105A900066602461211D1848006800F095F915E042
:105AA000002003462A4601460090204601F07AFA7B
:105AB000074657B900BF502080F31188BFF34F8FBE
:105AC000BFF36F8F00BF00BFFEE700BF0A4800684A
:105AD000006808B9012000E000200028C1D0064875
:105AE000D0F8008005480068034908600348C0F802
:105AF0000080BDE8F88300002C0100203001002068
:105B00000E480068401C08B9012000E0002050B990
:105B100000BF502080F31188BFF34F8FBFF36F8F0A
:105B200000BF00BFFEE700BF502080F31188BFF325
:105B30004F8FBFF36F8F00BF00BFFEE764010020EF
:105B400008B500BF6846FFF7A9FC04462046009947
:105B5000FFF71AFFFFF766FEF4E770B5044600F0A2
:105B600059F994F9455010E0606A08B9012000E045
:105B7000002038B904F1240001F00AF918B100F04E
:105B8000A9FA00E003E0681E45B2002DECDC00BF7E
:105B9000FF2084F8450000F067F900F03BF994F924
:105BA000445010E0206908B9012000E0002048B905
:105BB00004F1100001F0ECF808B100F08BFA681E57
:105BC00045B200E001E0002DECDC00BFFF2084F8CE
:105BD000440000F049F970BD2DE9F04104464FF052
:105BE000000800F015FB4948006808B9FFF76AFC97
:105BF000474800682040002870D1D4B1083404F030
:105C00000700B0B104F00700C0F10800044404F03C
:105C1000070008B9012000E0002050B900BF502063
:105C200080F31188BFF34F8FBFF36F8F00BF00BFAA
:105C3000FEE7002C52D03748006884424ED8364EDA
:105C40003046056801E02E462D686868A04202D201
:105C500028680028F7D12D48006885423ED030687A
:105C600000F10808286830606868001B102819D9FE
:105C70002F1907F0070008B9012000E0002050B9F3
:105C800000BF502080F31188BFF34F8FBFF36F8F99
:105C900000BF00BFFEE76868001B78606C60384694
:105CA000FFF70AFD1B4968680968081A1949086066
:105CB0000846006819490968884203D215480068F7
:105CC000164908601249686809680843686000203E
:105CD000286013480068401C1149086001F0A4F8CE
:105CE00008F0070008B9012000E0002050B900BF0B
:105CF000502080F31188BFF34F8FBFF36F8F00BF29
:105D000000BFFEE74046BDE8F08100004C010020E6
:105D100060010020500100204401002054010020B7
:105D200058010020001F4FF080730360001F21F016
:105D300001030360001F054B036014380260001F5D
:105D40006FF002030360203870470000015B000819
:105D500001460A69D1E901309860D1E90103586030
:105D60005068884201D1886850600020086110683E
:105D7000401E106010687047034B0360034B0B60BC
:105D80008023136070470000240D0020800D002048
:105D9000034B0360034B0B604FF480731360704739
:105DA000800F0020DC0F002000F1080141604FF05F
:105DB000FF31816000F10801C160016100210160D3
:105DC000704700210161704710B502460B685C1CEA
:105DD0000CB9106907E002F1080000E0406844686F
:105DE00024689C42FAD944684C604C68A160886081
:105DF00041600A611468641C146010BD42684A6006
:105E000093688B60936859609160086103685B1CBC
:105E10000360704700BF502080F31188BFF34F8F9D
:105E2000BFF36F8F00BF0E480068401C0C4908602C
:105E300008460068012812D10A480068C0B208B9B3
:105E4000012000E0002050B900BF502080F31188ED
:105E5000BFF34F8FBFF36F8F00BF00BFFEE77047E8
:105E60006401002004ED00E00D48006850B900BF57
:105E7000502080F31188BFF34F8FBFF36F8F00BFA7
:105E800000BFFEE706480068401E05490860084656
:105E9000006820B9002080F3118800BF00BF704760
:105EA0006401002070B506463546002E44D0083DFA
:105EB0002C46224960680968084008B1012000E0CA
:105EC000002050B900BF502080F31188BFF34F8FDE
:105ED000BFF36F8F00BF00BFFEE7206808B9012045
:105EE00000E0002050B900BF502080F31188BFF3BC
:105EF0004F8FBFF36F8F00BF00BFFEE70F49606891
:105F000009680840C0B12068B0B90C4960680968E8
:105F10008843606000F07CF90949606809680844BA
:105F2000074908602046FFF7C7FB06480068401C89
:105F30000449086000F078FF70BD00006001002097
:105F4000500100205C01002000204FF0E02108619A
:105F50008861064800684FF47A71B0FBF1F0401E8A
:105F60004FF0E0214861072008617047EC000020F5
:105F700070B5FAF7D5F90446102C16D304F1E020D9
:105F800090F8F05315480078854201DB012000E0CD
:105F9000002050B900BF502080F31188BFF34F8F0D
:105FA000BFF36F8F00BF00BFFEE70D48006800F42D
:105FB000E0600C490968884201D8012000E0002017
:105FC00050B900BF502080F31188BFF34F8FBFF34B
:105FD0006F8F00BF00BFFEE770BD000068010020AA
:105FE0000CED00E06C010020024600200BE0084BA5
:105FF00053F8303033B9064B43F8301003EBC0038D
:106000005A6002E0401C0828F1D300BF704700002E
:10601000080700202DE9F04105460E4617462C469C
:10602000FFF7F8FE94F94400401C10B9002084F8F2
:10603000440094F94500401C10B9002084F8450044
:10604000FFF712FFA06B28B93A46314604F124004D
:1060500000F062F82046FFF780FDBDE8F081000007
:1060600070B504460025D4B11248006808B9012073
:1060700000E0002050B900BF502080F31188BFF32A
:106080004F8FBFF36F8F00BF00BFFEE700F0C0F877
:1060900000212046FFF78EF800F0C6FE05463DB908
:1060A0004FF0805004490860BFF34F8FBFF36F8FEC
:1060B00070BD00002801002004ED00E003490968DC
:1060C0000160034909684160704700001801002021
:1060D00004010020012001490860704714010020DC
:1060E00070B504460D4654B900BF502080F31188A6
:1060F000BFF34F8FBFF36F8F00BF00BFFEE70548B0
:10610000016818312046FFF75FFE01212846FFF79E
:1061100051F870BDF000002070B505460E461446DB
:1061200055B900BF502080F31188BFF34F8FBFF3E4
:106130006F8F00BF00BFFEE7064801681831284690
:10614000FFF75CFE0CB14FF0FF3621463046FFF7FB
:1061500031F870BDF000002010B586B00020059029
:10616000049003AA04A905A8FFF706FE0022DDE9B2
:1061700004101346CDE9002102901EA11F48039A86
:1061800000F09EFC1E4908600846006808B1012422
:1061900000E00024012C02D100F0C8FE0446012CCE
:1061A00015D100BF502080F31188BFF34F8FBFF38C
:1061B0006F8F00BF4FF0FF30124908600120124975
:1061C000086000201149086000F072F810E0601CBF
:1061D00008B1012000E0002050B900BF502080F33A
:1061E0001188BFF34F8FBFF36F8F00BF00BFFEE773
:1061F00006B010BD49444C45000000004155000860
:1062000024010020200100200C01002004010020B6
:1062100002480068401C01490860704728010020BE
:106220001E48006818B101201D49086034E00020B4
:106230001B4908601B4801680CE051B900BF5020A1
:1062400080F31188BFF34F8FBFF36F8F00BF00BF84
:10625000FEE7491E01EB8100134A52F8200008B9FD
:10626000012000E000200028E7D101EB81020E4B65
:1062700003EB820042685268426000F10802436802
:10628000934202D14268526842604268D268074B2A
:106290001A600448016000BF704700002801002018
:1062A000140100200801002048070020F000002011
:1062B0001CB5524800685249884201D0012000E0D4
:1062C000002050B900BF502080F31188BFF34F8FDA
:1062D000BFF36F8F00BF00BFFEE748480068484922
:1062E000491E884201D0012000E0002050B900BFC3
:1062F000502080F31188BFF34F8FBFF36F8F00BF23
:1063000000BFFEE73F49084600780190FF200A469B
:1063100010700846007800909DF8000000F0F00032
:106320009DF80020904201D1012000E0002050B9EA
:1063300000BF502080F31188BFF34F8FBFF36F8FE2
:1063400000BF00BFFEE79DF8000000F050002E4A9D
:10635000107007202D4A106009E02C480068401E8C
:106360002A4A10609DF800004006000E00909DF83B
:10637000000000F080008028EFD024480068C0F1C1
:106380000700042801D1012000E0002050B900BF1F
:10639000502080F31188BFF34F8FBFF36F8F00BF82
:1063A00000BFFEE7194800680002184A1060104656
:1063B000008800F4E0601060124A019810700F48E5
:1063C0002030006840F470000C4920310860084615
:1063D000006840F070400860FFF7B6FD00200C49EF
:1063E0000860F9F765FF0B48006840F04040094934
:1063F0000860F9F749FF00201CBD000000ED00E037
:1064000071C20F4100E400E0680100206C0100202F
:106410006401002034EF00E010B500BF502080F38D
:106420001188BFF34F8FBFF36F8F00BF00F0BCFB2D
:1064300018B14FF080500449086000BF002080F37D
:10644000118800BF10BD000004ED00E02DE9F84305
:1064500080460E4617461D46DDF82090B8F1000F25
:1064600001D0012000E0002050B900BF502080F38F
:106470001188BFF34F8FBFF36F8F00BF00BFFEE7E0
:106480000DB1012000E0002050B900BF502080F382
:106490001188BFF34F8FBFF36F8F00BF00BFFEE7C0
:1064A00007B10EB1012000E0002050B900BF50201C
:1064B00080F31188BFF34F8FBFF36F8F00BF00BF12
:1064C000FEE707B90EB9012000E0002050B900BF77
:1064D000502080F31188BFF34F8FBFF36F8F00BF41
:1064E00000BFFEE7502000900098502801D1012005
:1064F00000E0002050B900BF502080F31188BFF3A6
:106500004F8FBFF36F8F00BF00BFFEE700BF2C4669
:106510004CB1012084F846004B463A46314640468D
:106520000094FFF721F82046BDE8F88370B50546D2
:106530000E462C4654B900BF502080F31188BFF39B
:106540004F8FBFF36F8F00BF00BFFEE7FFF762FC06
:10655000D4E90F12206801FB0200A0600020A063B4
:1065600020686060E06B401E226C216800FB021115
:10657000E160FF2084F8440084F845009EB920695A
:1065800008B9012000E00020A8B904F1100000F0D3
:10659000FFFB80B14FF0805009490860BFF34F8F77
:1065A000BFF36F8F07E004F11000FFF7FDFB04F16C
:1065B0002400FFF7F9FBFFF757FC012070BD000036
:1065C00004ED00E02DE9FF4383B0064688461D46F2
:1065D0004FF00009344654B900BF502080F31188B1
:1065E000BFF34F8FBFF36F8F00BF00BFFEE7B8F15F
:1065F000000F01D1206C08B9012000E0002050B943
:1066000000BF502080F31188BFF34F8FBFF36F8F0F
:1066100000BF00BFFEE7022D02D1E06B012801D1CF
:10662000012000E0002050B900BF502080F3118805
:10663000BFF34F8FBFF36F8F00BF00BFFEE700F0C7
:106640009DFA08B9059808B9012000E0002050B96A
:1066500000BF502080F31188BFF34F8FBFF36F8FBF
:1066600000BF00BFFEE700BFFFF7D4FBA06BE16BEC
:10667000884201D3022D28D12A4641462046FEF702
:10668000A6FE0746606A08B9012000E0002068B94C
:1066900004F1240000F07CFB88B14FF080503249B7
:1066A0000860BFF34F8FBFF36F8F08E03FB14FF02B
:1066B00080502D490860BFF34F8FBFF36F8FFFF7F6
:1066C000D3FB012007B0BDE8F083059818B9FFF7A8
:1066D000CBFB0020F6E7B9F1000F04D101A8FFF7CA
:1066E000EDFC4FF00109FFF7BFFBFFF791FDFFF74E
:1066F00091FB94F94400401C10B9002084F8440038
:1067000094F94500401C10B9002084F84500FFF7BB
:10671000ABFB05A901A800F05BF9F0B92046FFF733
:1067200038F8A0B104F110000599FFF7D9FC204614
:10673000FFF713FA00F078FB002895D14FF0805056
:1067400009490860BFF34F8FBFF36F8F8CE7204676
:10675000FFF703FA00F068FB86E72046FFF7FDF934
:1067600000F062FB0020ADE704ED00E02DE9F84FFA
:1067700007468A4690461E463C4654B900BF502004
:1067800080F31188BFF34F8FBFF36F8F00BF00BF3F
:10679000FEE7BAF1000F01D1206C08B9012000E03A
:1067A000002050B900BF502080F31188BFF34F8FF5
:1067B000BFF36F8F00BF00BFFEE7022E02D1E06B78
:1067C000012801D1012000E0002050B900BF502075
:1067D00080F31188BFF34F8FBFF36F8F00BF00BFEF
:1067E000FEE7FFF7C5FB00BF5021EFF3118081F3F7
:1067F0001188BFF34F8FBFF36F8F00BF0546A06BAB
:10680000E16B884201D3022E25D194F945B0A06BEB
:106810000090324651462046FEF7D9FD0BF10100AB
:1068200088B9606A08B9012000E0002050B904F17D
:10683000240000F0ADFA28B1B8F1000F02D0012019
:10684000C8F8000004E00BF1010040B284F84500F4
:106850004FF0010901E04FF0000900BF85F31188F6
:1068600000BF4846BDE8F88F2DE9F74183B00546E3
:106870000E464FF000082C4654B900BF502080F35C
:106880001188BFF34F8FBFF36F8F00BF00BFFEE7CC
:106890000EB9206C08B9012000E0002050B900BFFB
:1068A000502080F31188BFF34F8FBFF36F8F00BF6D
:1068B00000BFFEE700F062F908B9059808B90120A9
:1068C00000E0002050B900BF502080F31188BFF3D2
:1068D0004F8FBFF36F8F00BF00BFFEE700BFFFF712
:1068E00099FAA76BF7B131462046FEF75BFD781E9B
:1068F000A063206908B9012000E0002060B904F11C
:10690000100000F045FA38B14FF080502F49086070
:10691000BFF34F8FBFF36F8FFFF7A6FA012006B0CA
:10692000BDE8F081059818B9FFF79EFA0020F6E758
:10693000B8F1000F04D101A8FFF7C0FB4FF0010828
:10694000FFF792FAFFF764FCFFF764FA94F944004A
:10695000401C10B9002084F8440094F94500401C04
:1069600010B9002084F84500FFF77EFA05A901A8B8
:1069700000F02EF8F0B92046FEF7FEFEA0B104F1BB
:1069800024000599FFF7ACFB2046FFF7E6F800F07E
:106990004BFA0028A3D14FF080500C490860BFF398
:1069A0004F8FBFF36F8F9AE72046FFF7D6F800F0BE
:1069B0003BFA94E72046FFF7D0F800F035FA20467E
:1069C000FEF7DAFE00288AD00020A8E704ED00E0F8
:1069D00070B505460C4655B900BF502080F31188AC
:1069E000BFF34F8FBFF36F8F00BF00BFFEE754B9F7
:1069F00000BF502080F31188BFF34F8FBFF36F8F1C
:106A000000BF00BFFEE7FFF705FA1248026868689A
:106A1000131A2068401C08B9002617E00E492868A0
:106A20000968884204D06868904201D801260DE0C8
:106A30002068984207D92068C01A20602846FFF7CE
:106A40003DFB002602E0002020600126FFF70CFA43
:106A5000304670BD04010020180100202DE9FF4FD1
:106A600085B0804689461746DDE912ABB800FFF7CE
:106A7000B3F8064656B15C20FFF7AEF804460CB1F9
:106A8000266304E03046FFF70DFA00E000248CB1E5
:106A9000002084F85900CDE900ABCDE902403A4628
:106AA00049464046089BFEF774FD2046FEF7C0FBB2
:106AB000012501E04FF0FF35284609B0BDE8F08F11
:106AC0002DE9F04F85B00746884691469A46DDE9A4
:106AD0000EB6109C0EB1012000E0002050B900BF9E
:106AE000502080F31188BFF34F8FBFF36F8F00BF2B
:106AF00000BFFEE70CB1012000E0002050B900BF4C
:106B0000502080F31188BFF34F8FBFF36F8F00BF0A
:106B100000BFFEE75C20039003985C2801D10120B0
:106B200000E0002050B900BF502080F31188BFF36F
:106B30004F8FBFF36F8F00BF00BFFEE700BFB4B140
:106B4000AEB125462C462E63022085F85900002060
:106B500004A953464A46CDE900B1CDE90250414669
:106B60003846FEF716FD2846FEF762FB01E00020DE
:106B70000490049805B0BDE8F08F0000054909684D
:106B800009B9012005E00449096809B9022000E0BB
:106B9000002070470C0100202801002001490868EE
:106BA00070470000040100202DE9F0414FF000087B
:106BB0004348006800287BD142480068451C414892
:106BC000056015BB40480068006808B9012000E076
:106BD000002050B900BF502080F31188BFF34F8FC1
:106BE000BFF36F8F00BF00BFFEE737480768374825
:106BF0000068354908603548076035480068401C22
:106C000033490860FEF7FAFE00BF3248006885424B
:106C10003BD300BF2C480068006808B9012000E0A1
:106C2000002020B14FF0FF302A4908602CE02648B0
:106C30000068C068C4686668B54202D2254806602C
:106C400022E0201DFFF784F8A06A18B104F11800B3
:106C5000FFF77EF82049E06A0968884202D91E4998
:106C6000E06A0860E16A01EB81011C4A02EB8100E5
:106C7000211DFFF7C3F81A49E06A0968C96A88420A
:106C8000C8D34FF00108C5E700BF15480068C06AC7
:106C900000EB8000114951F82000012801D94FF084
:106CA00001081048006808B14FF0010805E0FFE74F
:106CB0000D480068401C0C4908604046BDE8F08162
:106CC0002801002004010020F4000020F80000202A
:106CD00018010020200100200801002048070020A2
:106CE000F0000020140100201001002070B50546BE
:106CF0002C460026002D43D022480068844201D152
:106D0000012000E0002050B900BF502080F311881E
:106D1000BFF34F8FBFF36F8F00BF00BFFEE7206D43
:106D200050B900BF502080F31188BFF34F8FBFF3DD
:106D30006F8F00BF00BFFEE7206D401E2065E16C35
:106D4000E06A88421CD0206DD0B9201DFFF700F802
:106D5000E06CE062E06AC0F13800A0610A49E06AD4
:106D60000968884202D90849E06A0860E16A01EBD3
:106D70008101064A02EB8100211DFFF73FF8012641
:106D8000304670BDF00000200801002048070020B8
:106D900070B50646F068C46854B900BF502080F34F
:106DA0001188BFF34F8FBFF36F8F00BF00BFFEE7A7
:106DB00004F11800FEF7CCFF15480068A0B9201DAB
:106DC000FEF7C6FF1349E06A0968884202D91149F3
:106DD000E06A0860E16A01EB81010F4A02EB810081
:106DE000211DFFF70BF804E004F118010B48FFF731
:106DF00005F80B49E06A0968C96A884204D9012587
:106E000001200849086000E00025284670BD000008
:106E1000280100200801002048070020D00B002096
:106E2000F00000201401002070B500240026364830
:106E3000006850B900BF502080F31188BFF34F8F16
:106E4000BFF36F8F00BF00BFFEE7FEF7E3FF2E48E2
:106E50000068401E2C4908600846006800284ED192
:106E60002A48006800284AD023E02948C068C4683E
:106E700004F11800FEF76CFF201DFEF769FF25499D
:106E8000E06A0968884202D92249E06A0860E16A3A
:106E900001EB8101204A02EB8100211DFEF7AEFFCC
:106EA0001E49E06A0968C96A884202D301201C4968
:106EB00008601748006808B9012000E00020002899
:106EC000D3D00CB1FEF79AFD1648056865B100BF36
:106ED000FFF76AFE10B10120114908606D1E002DF8
:106EE000F6D100200F4908600D48006838B101262E
:106EF00030070D490860BFF34F8FBFF36F8FFEF768
:106F0000B3FF304670BD00002801002000010020C2
:106F1000D00B00200801002048070020F0000020CE
:106F2000140100201001002004ED00E010B586B02F
:106F30000024FEF7D9F916480068D0B1002005906A
:106F4000049003AA04A905A8FEF722FF0222DDE9A6
:106F500004100023CDE9002102900EA10F48039AEE
:106F6000FFF7AEFD0E4908600846006800B1012435
:106F700000BF54B900BF502080F31188BFF34F8F7A
:106F8000BFF36F8F00BF00BFFEE7204606B010BD05
:106F900034010020546D722053766300415B000879
:106FA000380100202DE9FF4704460D4616461F46CE
:106FB000DDF830804FF0000954B900BF502080F355
:106FC0001188BFF34F8FBFF36F8F00BF00BFFEE785
:106FD0001448006810B3009501960294062D15DA46
:106FE000FFF7CCFD022808D10023424669460D4830
:106FF0000068FFF7E7FA814610E000231A46694669
:1070000008480068FFF7DEFA814607E000233A46A9
:10701000694604480068FFF7A9FB8146484604B06A
:10702000BDE8F0873401002010B591EA030F48BF96
:1070300083F0004300F1EC81841A71EB030C05D25C
:10704000121943EB0C03001B61EB0C01DFF824E188
:107050004FEA1154A4EB135C1EEA430F18BF9EEADB
:10706000445F73D023EA0E03DCF1200E21EA0451C1
:1070700043F4801332D322FA0CFE10EB0E0023FAF5
:107080000CFE41EB0E01CCF1200E03FA0EFE10EBCC
:107090000E0051F10001B1F5801FCCF1200E32D26B
:1070A00001EB045112FA0EF2BDE8104058BF7047D0
:1070B000401C38BF5FEA420218BF7047002814BF67
:1070C00020F0010041F100014FEA410313F5001FD8
:1070D00038BF7047A1F1C04100F08CB9012A43EBE1
:1070E0000302ACF1200CDCF11F0E32BF4FF0000E9A
:1070F00023FA0CF310EB030041EB0451B4EB115FE6
:10710000D0D0A1EB045101F5801149085FEA3000AD
:1071100001EB04510ED350F1000038BF12FA0EFEFD
:1071200008D1BDE81040C9E7401C38BF5FEA420201
:10713000CAD1C3E7BDE810404FEA410313F5001F71
:1071400038BF7047A1F1C04100F054B99EEA445FD6
:1071500008D011EA5E0FBDE8104004BF01F0004105
:1071600000207047BDE8104070B500F0F5F800BF92
:1071700064FBBE3E0000E0FF4FEA41034FEA535379
:10718000A3F58063D3F11E03C8BFD3F1210C0CDD3E
:107190004FF0004242EAC12242EA505232FA03FC66
:1071A0008CEAE17CACEBE1707047102BC4BF00208F
:1071B000704703F5787CBCF1FF3F04D06FF00042CC
:1071C00082EA2100704770B500F0C6F84992248029
:1071D00000207047F2E710F0004248BF4042B0FA8A
:1071E00080F310FA03F10AD0C3F11D0303F58063A5
:1071F0004FEA415002EB035202EBD12170474FF0AE
:1072000000007047DFF848C170B51CEA111E1EBFB0
:107210001CEA13159EEA0C0F95EA0C0F00F06F8024
:1072200081EA030423EA4C134EEAD47E21EA4C118E
:1072300041F4801143F48013AE44A1FB024CA0FB47
:107240000365AEF17F7E361955EB0C05A1FB034CAF
:107250004CF10003A0FB021C16EB0C06654153F138
:107260000003094218BF46F0010613F4007F0BD15A
:107270004FEA03314FEA0530340341EA155140EA41
:1072800016506FF003020AE04FEAC3214FEAC5200F
:10729000F40241EA555140EA56506FF0020202EB07
:1072A0002E4201EB025585EACE710AD05FEA440C0A
:1072B00018BF24F0004450F1000041F1000120EA21
:1072C000D47040F2FE7C624500D270BDA84214BF6B
:1072D0004FF080444FF04044002E08BF0024BEF120
:1072E000806FA8BFA1F1C041BDE8704080F28280EC
:1072F0004FF0000001F1C04101F0004170479EEAEB
:107300000C0F0CEA131518BF95EA0C0F06D04FF0BE
:10731000000081EA030E0EF0004170BD00F01CF881
:107320008900013E00F007B800F009B84FEA430CAD
:107330005FEA5C5C08D081EA030100F05BB84FEAC9
:10734000410C5FEA5C5CF6D14FF0000001497047E8
:107350000000FF070000F87F0EF1020E2EF0030E72
:107360005EF8046B364205D4012A43EB030515F59C
:10737000001F12D8012841EB010C1CF5001F0CD88E
:107380000ED14FEAD17C15F5001F0CEB4C0C0CF123
:10739000020C08BF4CEBD37C04E04FF0080C01E07A
:1073A0004FEAD37C0CEB4C0526FA05F606F00706EF
:1073B000B6F1040C06D20EEB860CBDE870404CF022
:1073C000010C6047DFE80CF0090B02024FF00041AE
:1073D0004FF00000A1F5002170BD194610460128AC
:1073E00051EB010418BFD4F5001484BF002001F054
:1073F000004170BD0808A0F500114FEA3101704747
:1074000010B591EA030F48BF83F000433FF514AE77
:10741000841A71EB030C07D212198CF0004C43EB69
:107420000C03001B61EB0C01DFF8A4E14FEA1154DF
:10743000A4EB135C1EEA430F18BF9EEA445F00F002
:10744000B08023EA6E03524221EA0451C3EB6E037B
:1074500038BF5B1EDCF1200E25D322FA0CFE10EBA8
:107460000E0043FA0CFE41EB0E01CCF1200E03FAA4
:107470000EFE10EB0E0051F10001CCF1200E29D4CC
:1074800012FA0EF201EB0451BDE8104058BF7047EC
:10749000401C1CBFB2F1004F704700280CBF491CB4
:1074A00020F00100704712EB020E43EB030218BFFD
:1074B0004FF0010E4EEA4202ACF1200CDCF11E0E40
:1074C00054D943FA0CFE10EB0E0051F1FF31CCF110
:1074D0001E0ED5D50EF1010E12FA0EFE404141EB03
:1074E000010101EB445C5FEA5C5C10D910EBDE70DB
:1074F00001EB045138BFBEF1004FBDE8104018BF8A
:10750000704700280CBF491C20F00100704730D2A2
:107510004FEAD42C11F5001124F400641BD0B1FA09
:1075200081F20B3AA41AA41ED2F12003914030FA42
:1075300003F31943904001EBCC71002C01EB045193
:10754000BDE81040A8BF704701F1C0414FF00000F6
:1075500001F000417047B0FA80F310FA03F100D156
:1075600010BDE41A173C4805C90AE4E701EB0451D1
:1075700010BD491001EB0451BDE810404FEA300046
:1075800002E04FF0000170474A0008BF0042F8D007
:10759000B2F5001F28BF704701F000414FF0000016
:1075A00070479EEA445F07D011EA5E0FBDE81040C5
:1075B00004BF002100207047BDE8104070B5FFF700
:1075C000CBFE00BF40DFF63E83F00041104670471F
:1075D0000000E0FF4FF04070E1EE100A704700003D
:1075E000A476000800000000000000000000000079
:1075F00000000000000400001C000000000000006B
:10760000000000009076000800000000000000006C
:107610000000000000000000000400001000000056
:1076200000000000000000009C7600080000000040
:107630000000000000000000000000000004000046
:10764000160000000000000000000000B0760008F6
:10765000000000000000000000000000000000002A
:1076600000040000180000000000000000000000FE
:1076700000061016000610160000000000000000B2
:1076800001020304060708090000000001020304C8
:1076900054736B5F57484C5F5550440050574D5FD3
:1076A00047454E0064656661756C745461736B0088
:1076B000536572766F5F636F6E74726F6C0000005B
:1076C000E07600080000002070010000C4010008FE
:1076D0003877000870010020D05400002002000814
:1076E00001202B9A99013CE93F33014BE33F100302
:1076F00042C93F1401420112021203120412051280
:1077000006120712081209120A120B120C120D129D
:107710000E120F72100512E803E80328090AD7A316
:107720003C0AD7233D081AD422021B0A294A4201E7
:08773000037524F41AAA01817B
:040000050800018965
:00000001FF
